:020000040800F2
:105000000050002071970008F98C0008058D0008F9
:10501000118D00081D8D0008298D0008000000007A
:10502000000000000000000000000000358D0008B6
:10503000418D0008000000004D8D0008598D0008CA
:10504000C5970008C5970008C5970008DD900008BF
:10505000C5970008C5970008E18D0008158E000867
:10506000498E00088D8E0008C18E0008C597000883
:10507000C5970008C5970008C5970008619100080A
:10508000C5970008C5970008698D0008C5970008F6
:105090006D910008C5970008C5970008F58E0008B7
:1050A000C5970008C5970008C59700082D9000080F
:1050B00095900008AD900008C5900008A58D0008E7
:1050C000B98D0008C5970008C5970008CD8D000868
:1050D000C59700087D8D0008918D0008C5970008D0
:1050E000798F000811910008C597000800000000A2
:1050F00000000000000000000000000000000000B0
:0C51000000000000000000005FF808F153
:1051100010F8012B11F8013B012A28BF9A42F7D061
:10512000D01A704781F0004102E000BF83F00043D5
:1051300030B54FEA41044FEA430594EA050F08BF32
:1051400090EA020F1FBF54EA000C55EA020C7FEAF6
:10515000645C7FEA655C00F0E2804FEA5454D4EB73
:105160005555B8BF6D420CDD2C4480EA020281EA3D
:10517000030382EA000083EA010180EA020281EA75
:105180000303362D88BF30BD11F0004F4FEA0131C7
:105190004FF4801C4CEA113102D0404261EB4101D6
:1051A00013F0004F4FEA03334CEA133302D052425C
:1051B00063EB430394EA050F00F0A780A4F1010418
:1051C000D5F1200E0DDB02FA0EFC22FA05F2801852
:1051D00041F1000103FA0EF2801843FA05F3594138
:1051E0000EE0A5F120050EF1200E012A03FA0EFCB7
:1051F00028BF4CF0020C43FA05F3C01851EBE371E1
:1052000001F0004507D54FF0000EDCF1000C7EEBFD
:1052100000006EEB0101B1F5801F1BD3B1F5001F3B
:105220000CD349085FEA30004FEA3C0C04F101045A
:105230004FEA445212F5800F80F09A80BCF1004F83
:1052400008BF5FEA500C50F1000041EB045141EA05
:10525000050130BD5FEA4C0C404141EB010111F406
:10526000801FA4F10104E9D191F0000F04BF0146B1
:105270000020B1FA81F308BF2033A3F10B03B3F18F
:1052800020020CDA0C3208DD02F1140CC2F10C021F
:1052900001FA0CF021FA02F10CE002F11402D8BF7D
:1052A000C2F1200C01FA02F120FA0CFCDCBF41EA49
:1052B0000C019040E41AA2BF01EB0451294330BD18
:1052C0006FEA04041F3C1CDA0C340EDC04F11404F5
:1052D000C4F1200220FA04F001FA02F340EA0300CC
:1052E00021FA04F345EA030130BDC4F10C04C4F112
:1052F000200220FA02F001FA04F340EA03002946F2
:1053000030BD21FA04F0294630BD94F0000F83F43B
:10531000801306BF81F480110134013D4EE77FEA1E
:10532000645C18BF7FEA655C29D094EA050F08BF6A
:1053300090EA020F05D054EA000C04BF194610464B
:1053400030BD91EA030F1EBF0021002030BD5FEA8F
:10535000545C05D14000494128BF41F0004130BDB7
:1053600014F580043CBF01F5801130BD01F000450B
:1053700045F0FE4141F470014FF0000030BD7FEA7E
:10538000645C1ABF194610467FEA655C1CBF0B4679
:10539000024650EA013406BF52EA033591EA030F90
:1053A00041F4002130BD00BF90F0000F04BF002188
:1053B000704730B54FF4806404F132044FF00005BB
:1053C0004FF0000150E700BF90F0000F04BF002134
:1053D000704730B54FF4806404F1320410F000459A
:1053E00048BF40424FF000013EE700BF42004FEA95
:1053F000E2014FEA31014FEA02701FBF12F07F4312
:1054000093F07F4F81F06051704792F0000F14BF0E
:1054100093F07F4F704730B54FF4607401F0004552
:1054200021F0004120E700BF50EA010208BF7047A9
:1054300030B54FF000050AE050EA010208BF70479E
:1054400030B511F0004502D5404261EB41014FF407
:10545000806404F132045FEA915C3FF4DCAE4FF00B
:1054600003025FEADC0C18BF03325FEADC0C18BFF2
:10547000033202EBDC02C2F1200300FA03FC20FA43
:1054800002F001FA03FE40EA0E0021FA02F1144490
:10549000C1E600BF70B54FF0FF0C4CF4E06C1CEAA5
:1054A00011541DBF1CEA135594EA0C0F95EA0C0F1A
:1054B00000F0DEF82C4481EA030621EA4C5123EA8D
:1054C0004C5350EA013518BF52EA033541F48011BC
:1054D00043F4801338D0A0FB02CE4FF00005E1FB6F
:1054E00002E506F00042E0FB03E54FF00006E1FBB9
:1054F00003569CF0000F18BF4EF0010EA4F1FF04FC
:10550000B6F5007F64F5407404D25FEA4E0E6D413B
:1055100046EB060642EAC62141EA55514FEAC5204C
:1055200040EA5E504FEACE2EB4F1FD0C88BFBCF5C8
:10553000E06F1ED8BEF1004F08BF5FEA500E50F179
:10554000000041EB045170BD06F0004646EA01013F
:1055500040EA020081EA0301B4EB5C04C2BFD4EB71
:105560000C0541EA045170BD41F480114FF0000E6A
:10557000013C00F3AB8014F1360FDEBF002001F0D8
:10558000004170BDC4F10004203C35DA0C341BDC52
:1055900004F11404C4F1200500FA05F320FA04F024
:1055A00001FA05F240EA020001F0004221F0004158
:1055B00010EBD37021FA04F642EB06015EEA430ECB
:1055C00008BF20EAD37070BDC4F10C04C4F12005FB
:1055D00000FA04F320FA05F001FA04F240EA0200AE
:1055E00001F0004110EBD37041F100015EEA430E7F
:1055F00008BF20EAD37070BDC4F1200500FA05F29F
:105600004EEA020E20FA04F301FA05F243EA02031D
:1056100021FA04F001F0004121FA04F220EA02002C
:1056200000EBD3705EEA430E08BF20EAD37070BD72
:1056300094F0000F0FD101F00046400041EB010152
:1056400011F4801F08BF013CF7D041EA060195F034
:10565000000F18BF704703F00046520043EB0303EE
:1056600013F4801F08BF013DF7D043EA06037047DB
:1056700094EA0C0F0CEA135518BF95EA0C0F0CD0E6
:1056800050EA410618BF52EA4306D1D181EA03012C
:1056900001F000414FF0000070BD50EA410606BF26
:1056A0001046194652EA430619D094EA0C0F02D16B
:1056B00050EA013613D195EA0C0F05D152EA0336B0
:1056C0001CBF104619460AD181EA030101F00041CE
:1056D00041F0FE4141F470014FF0000070BD41F017
:1056E000FE4141F4780170BD70B54FF0FF0C4CF4F1
:1056F000E06C1CEA11541DBF1CEA135594EA0C0F10
:1057000095EA0C0F00F0A7F8A4EB050481EA030E5C
:1057100052EA03354FEA013100F088804FEA033343
:105720004FF0805545EA131343EA12634FEA022211
:1057300045EA111545EA10654FEA00260EF00041D2
:105740009D4208BF964244F1FD0404F5407402D224
:105750005B084FEA3202B61A65EB03055B084FEAB5
:1057600032024FF480104FF4002CB6EB020E75EBB2
:10577000030E22BFB61A754640EA0C005B084FEADA
:105780003202B6EB020E75EB030E22BFB61A754657
:1057900040EA5C005B084FEA3202B6EB020E75EBA2
:1057A000030E22BFB61A754640EA9C005B084FEA1A
:1057B0003202B6EB020E75EB030E22BFB61A754627
:1057C00040EADC0055EA060E18D04FEA051545EA16
:1057D00016754FEA06164FEAC30343EA52734FEABF
:1057E000C2025FEA1C1CC0D111F4801F0BD141EA38
:1057F00000014FF000004FF0004CB6E711F4801F9D
:1058000004BF01430020B4F1FD0C88BFBCF5E06F7C
:105810003FF6AFAEB5EB030C04BFB6EB020C5FEA8C
:10582000500C50F1000041EB045170BD0EF0004EE1
:105830004EEA113114EB5C04C2BFD4EB0C0541EA13
:10584000045170BD41F480114FF0000E013C90E610
:1058500045EA060E8DE60CEA135594EA0C0F08BFD4
:1058600095EA0C0F3FF43BAF94EA0C0F0AD150EAD3
:1058700001347FF434AF95EA0C0F7FF425AF104666
:1058800019462CE795EA0C0F06D152EA03353FF48E
:10589000FDAE1046194622E750EA410618BF52EA0B
:1058A00043067FF4C5AE50EA41047FF40DAF52EADF
:1058B00043057FF4EBAE12E74FF0FF3C06E000BF7C
:1058C0004FF0010C02E000BF4FF0010C4DF804CD89
:1058D0004FEA410C7FEA6C5C4FEA430C18BF7FEA49
:1058E0006C5C1BD001B050EA410C0CBF52EA430C77
:1058F00091EA030F02BF90EA020F0020704710F1F7
:10590000000F91EA030F58BF994208BF90422CBF85
:10591000D8176FEAE37040F0010070474FEA410C7E
:105920007FEA6C5C02D150EA013C07D14FEA430C9C
:105930007FEA6C5CD6D152EA033CD3D05DF8040B0D
:10594000704700BF8446104662468C46194663463F
:1059500000E000BF01B5FFF7B7FF002848BF10F116
:10596000000F01BD4DF808EDFFF7F4FF0CBF01205B
:1059700000205DF808FB00BF4DF808EDFFF7EAFFD7
:1059800034BF012000205DF808FB00BF4DF808ED92
:10599000FFF7E0FF94BF012000205DF808FB00BF87
:1059A0004DF808EDFFF7CEFF94BF012000205DF811
:1059B00008FB00BF4DF808EDFFF7C4FF34BF01201E
:1059C00000205DF808FB00BF4FEA410212F500120B
:1059D00015D211D56FF47873B3EB625212D94FEA36
:1059E000C12343F0004343EA505311F0004F23FA20
:1059F00002F018BF404270474FF00000704750EA75
:105A0000013005D111F0004008BF6FF00040704731
:105A10004FF00000704700BF80B582B000AF7860E3
:105A200039607868396802F077FC03461846083711
:105A3000BD4680BD80B582B000AF78607B68064A05
:105A40001A600023002B02D0786800F073FD7B6899
:105A500018460837BD4680BD40DB000880B582B0DF
:105A600000AF78607868FFF7E5FF786800F062FDC6
:105A70007B6818460837BD4680BD00BF80B500AFC3
:105A80000848094900F0A4FD0848094900F0A0FDB4
:105A90000848094900F09CFD0848094900F098FDB4
:105AA00080BD00BF98DA0008D15A0008A4DA0008C7
:105AB000AD5B0008B4DA0008255D0008C0DA000814
:105AC000015E000880B400AFBD465DF8047B7047FE
:105AD00090B58DB000AF78607868012102F094FC39
:105AE0000346303BFB62FB6A002B02DBFB6A072BA1
:105AF00002DD4FF0FF3351E007F10C03184629494E
:105B000002F028FB07F10C037868194602F034FC18
:105B10000346002B0CBF00230123DCB207F10C036A
:105B2000184602F031FB002C0CD0FB6A9BB21846E1
:105B3000032100F033FEFB6A9BB2184600F0D4FF4D
:105B400003462BE007F11C031846174902F002FB3D
:105B500007F11C037868194602F00EFC0346002B7F
:105B60000CBF00230123DCB207F11C03184602F02E
:105B70000BFB002C10D0FB6A9BB20A339BB2184679
:105B8000032100F00BFEFB6A9BB20A339BB218465E
:105B900000F0AAFF034601E06FF001031846343716
:105BA000BD4690BDCCDA0008D0DA000890B595B0BB
:105BB00000AF7860002387F84F307868012102F049
:105BC00023FC0346303BBB64BB6C002B02DBBB6C8D
:105BD000072B02DD4FF0FF3398E007F1080318466A
:105BE00079680322072302F04BFC07F108031846EB
:105BF0004849FFF711FF0346002B0CBF0023012388
:105C0000DCB207F10803184602F0BEFA002C03D0FC
:105C1000012387F84F3021E007F11803184679680F
:105C20000322062302F02CFC07F1180318463A4918
:105C3000FFF7F2FE0346002B0CBF00230123DCB26A
:105C400007F11803184602F09FFA002C03D0002336
:105C500087F84F3002E06FF0010357E007F12803A7
:105C600018462E4902F076FA07F12803786819469B
:105C700002F082FB0346002B0CBF00230123DCB2A1
:105C800007F12803184602F07FFA002C0FD0BB6CF6
:105C90009BB21846002100F081FDBB6C9AB297F8C8
:105CA0004F301046194600F069FE01232EE007F13F
:105CB000380318461A4902F04DFA07F1380378689C
:105CC000194602F059FB0346002B0CBF00230123A9
:105CD000DCB207F13803184602F056FA002C13D054
:105CE000BB6C9BB20A339BB21846002100F056FDF4
:105CF000BB6C9BB20A339AB297F84F3010461946E4
:105D000000F03CFE012301E06FF002031846543717
:105D1000BD4690BDD4DA0008DCDA0008CCDA000811
:105D2000D0DA000890B58DB000AF786078680121B6
:105D300002F06AFB0346303BFB62FB6A002B02DB8E
:105D4000FB6A072B02DD4FF0FF3351E007F10C0334
:105D50001846294902F0FEF907F10C037868194644
:105D600002F00AFB0346002B0CBF00230123DCB228
:105D700007F10C03184602F007FA002C0CD0FB6A5E
:105D80009BB21846012100F009FDFB6A9BB2184640
:105D900001F014F803462BE007F11C0318461749DD
:105DA00002F0D8F907F11C037868194602F0E4FA0A
:105DB0000346002B0CBF00230123DCB207F11C03B8
:105DC000184602F0E1F9002C10D0FB6A9BB20A33AE
:105DD0009BB21846012100F0E1FCFB6A9BB20A333A
:105DE0009BB2184600F0EAFF034601E06FF00103A2
:105DF00018463437BD4690BDCCDA0008D0DA00082A
:105E000090B591B000AF78607868012102F0FCFA9B
:105E10000346303BFB63FB6B002B02DBFB6B072B6A
:105E200002DD4FF0FF346DE007F10C03184679688E
:105E3000032202F013FB07F11C031846344902F059
:105E400089F907F11C037868194602F095FA0346B0
:105E5000002B0CBF00230123DCB207F11C03184602
:105E600002F092F9002C14D0FB6B9BB21846002173
:105E700000F094FCFB6B9CB207F10C03184602F097
:105E800043FB0346DBB22046194601F0C1F801246A
:105E900033E007F12C0318461E4902F05BF907F1C5
:105EA0002C037868194602F067FA0346002B0CBFF2
:105EB00000230123DCB207F12C03184602F064F939
:105EC000002C18D0FB6B9BB20A339BB21846002102
:105ED00000F064FCFB6B9BB20A339CB207F10C032D
:105EE000184602F011FB0346DBB22046194601F0CA
:105EF0008FF8012401E06FF0010407F10C0318464C
:105F000002F042F9234618464437BD4690BD00BF13
:105F1000CCDA0008D0DA000880B584B002AF78602F
:105F200039607B68012B11D13A684FF6FF739A42B2
:105F30000CD100230093074800210022002301F028
:105F4000F5FE04480449054A05F007FF0837BD4639
:105F500080BD00BF3C040020355A0008A805002081
:105F600080B500AF01204FF6FF71FFF7D5FF80BD70
:105F700080B500AF214B1B88032B08D81F4B042290
:105F80001A801E4B1B880420194604F027FB4FF093
:105F900000604FF4A04104F075FA194B01221A7009
:105FA00003F0F4FE03F038FC4020012104F09AFDD8
:105FB0006FF07F4003F09AFDE72003F00BFE114BDA
:105FC00001221A7003F06AFC7D2004F0AFFD034645
:105FD000002B0CBF00230123DBB2002B04D00A4BA3
:105FE00001221A7004F0B6FD40F6B83003F0B0FCA0
:105FF00003F0ECFF04F04EF880BD00BFB0140020A9
:106000008C1400204C040020C814002080B500AF80
:10601000224B1B88042B08D8204B05221A801F4BCB
:106020001B880420194604F0D9FA1D4B1B78012B5C
:1060300014D01C4B002B11D0184B1B88062B08D8F2
:10604000164B07221A80154B1B880420194604F0B2
:10605000C5FAFFF713FD124B01221A70124B002BE9
:106060001BD00E4B1B88072B08D80C4B08221A801C
:106070000A4B1B880420194604F0B0FAFFF722FDF2
:10608000064B1B88082B08D8044B09221A80034BA7
:106090001B880420194604F0A1FAC6E7B0140020BA
:1060A000A60500207D5A0008C55A000880B500AF3B
:1060B000334B1B68002B0CBF00230123DBB2002BEA
:1060C00004D02F4B1B685A1E2D4B1A602D4B1B788A
:1060D000002B0FD02C4B1B78DBB2002B04D02B4BAA
:1060E000002B01D0012300E00023002B21D000F081
:1060F000EFFA1EE0264B1B68002B0CBF0023012388
:10610000DBB2002B05D0224B1B685A1E204B1A60B5
:106110000FE0204B1B78DBB2002B0CBF00230123C8
:10612000DBB2002B05D0E72003F07AFD184B1422D8
:106130001A60194B1A6840F2E7339A4294BF002361
:106140000123DBB2002B15D0134B00221A6004F0A0
:1061500065FC124B1A884FF6FF739A420FD00F4B13
:106160004FF6FF721A800D4B1B880420194604F06D
:1061700035FA04E0084B1B685A1C074B1A6080BDB7
:10618000D01400206C140020E80E0020D166000816
:10619000CC1400204C040020D4140020B0140020A3
:1061A00080B400AF0D4B1B68052B14BF00230123E7
:1061B000DBB2002B0CD00A4B1B78012B08D1094B0A
:1061C0001B88DAB2084B1B88DBB2D31ADBB200E0C3
:1061D00000231846BD465DF8047B7047B4140020C8
:1061E000A5050020A0050020A205002080B500AF75
:1061F000134B1B68052B14BF00230123DBB2002BBC
:106200001AD0104B1B78012B16D10F4B1B881A4646
:106210000E4B1B88D31A012B05D10A4B00221A7092
:10622000032005F0AEFC094B1B885A1C91B2074AAB
:106230001180074AD35C01E04FF0FF33184680BD60
:10624000B4140020A5050020A0050020A205002010
:106250006005002080B582B000AF0346FB71154B8E
:106260001B68052B14BF00230123DBB2002B1ED0BB
:10627000114B1B68114AF979D1540F4B1B685A1CFA
:106280000D4B1A600C4B1B68B3F5807F02D10A4B93
:1062900000221A6003F0E2FD0346002B0CBF00232E
:1062A0000123DBB2002B02D0642003F0D1FA0837BF
:1062B000BD4680BDB41400205405002054040020C5
:1062C00080B582B000AF334B1B78012B5FD0324BCF
:1062D0001B68B3F5807F02D12F4B00221A602E4B32
:1062E0001A682E4B1B689A4203D12A4B00221A705F
:1062F0004DE0294B1A68294B1B689A4206D9264B58
:106300001B68C3F58072264B1A6006E0234B1A689F
:10631000214B1B68D21A224B1A60214B1B68402B61
:1063200011D91D4B1B68FB804023BB801A4B1B6897
:1063300003F14002184B1A60194B1B68A3F140028D
:10634000174B1A600FE0144B1B68FB80144B1B6843
:10635000BB80114B1A68124B1B681A440E4B1A6013
:106360000F4B00221A600B4B01221A70FA880D4B5A
:106370001A44BB881046C0211A4605F07DFBBB8835
:106380000120194605F080FC012005F0E7FB0837E5
:10639000BD4680BDA40500205805002054050020FE
:1063A0005C0500205404002080B584B000AF0E4B83
:1063B0001B68FB600D4B1B68BB600D4B1B687B6053
:1063C000FA687B681344FB60FB68002B09D0F8680F
:1063D0000849082200F012F8B8680749042200F0C2
:1063E0000DF81037BD4680BDE8F7FF1FECF7FF1F23
:1063F000F0F7FF1F4A0200205A02002080B487B045
:1064000000AFF860B9601346FB710023FB750023F1
:10641000FB7525E0FB681B0F092B0AD8FB7D5B0091
:10642000BA681344FA68120FD2B23032D2B21A707C
:1064300009E0FB7D5B00BA681344FA68120FD2B220
:106440003732D2B21A70FB681B01FB60FB7D5B0028
:106450000133BA68134400221A70FB7D0133FB75C7
:10646000FA7DFB799A42D5D31C37BD465DF8047B93
:10647000704700BF80B584B002AF786039607B6838
:10648000012B11D13A684FF6FF739A420CD10023C9
:106490000093074800210022002301F047FC044834
:1064A0000449054A05F059FC0837BD4680BD00BFC8
:1064B00044040020355A0008A805002080B500AF2C
:1064C00001204FF6FF71FFF7D5FF80BD80B584B086
:1064D00000AF786039607B68FB6007E0FB681B6891
:1064E000BB60BB689847FB680433FB60FA683B6895
:1064F0009A42F3D31037BD4680BD00BF80B500AFD0
:1065000006480749FFF7E2FF06480749FFF7DEFFA5
:1065100006480749FFF7DAFF80BD00BF24E0000806
:1065200024E0000824E0000864E0000864E00008BB
:1065300064E0000880B582B000AF7860786805F04C
:106540005DFC0837BD4680BD80B582B000AF786085
:10655000072003F0C3FEFEE780B584B000AF78608B
:106560000B4B1B68FB600A4B1A687B681A44084B8C
:106570001A60074B1A68074B9A4204D9082003F0A7
:10658000ADFE05F017FCFB6818461037BD4680BD10
:10659000000000200048002080B483B000AF786085
:1065A00039604FF0FF3318460C37BD465DF8047B69
:1065B000704700BF80B400AF01231846BD465DF8A8
:1065C000047B704780B500AF0C2003F087FEFEE728
:1065D00080B584B000AF786039600023FB603B6811
:1065E000002B6ED07B68002B6BD0374B1B68042BC5
:1065F00000D166E00023FB601CE0344AFB685821B0
:1066000001FB03F313441A683B689A420FD1FB68FD
:10661000582202FB03F22D4B1344043318467968C9
:106620000C2205F00BFD0346002B00D149E0FB686E
:106630000133FB60244B1B68FA689A42DDDB224B76
:106640001B68224A582101FB03F313443A681A607D
:106650001D4B1B68582202FB03F303F110021B4B76
:10666000134418460021402205F0D9FB164B1B6845
:10667000582202FB03F2154B134404331846002141
:106680000C2205F0CCFB104B1B68582202FB03F2D6
:106690000E4B134404337A6810685168926818608E
:1066A00059609A60084B1B68084A582101FB03F3A4
:1066B0001344503300221A71034B1B685A1C024BBF
:1066C0001A601037BD4680BDF80E0020C40F0020B0
:1066D00080B500AF154B1B68002B0CBF00230123B6
:1066E000DBB2002B05D0114B1B685A1E0F4B1A60F2
:1066F0001BE00F4B1A680F4B53F82230184603F07B
:106700001DFAE72003F066FA084B64221A60084B72
:106710001B685A1C064B1A60054B1A68064B1B680F
:106720009A4202DB024B00221A6080BDEC0E002070
:10673000F00E0020F4DA00080800002080B584B0D4
:1067400002AF786039607B68012B14D13A684FF64C
:10675000FF739A420FD100230093084800210022C2
:10676000002301F0E3FA05480549064A05F0F5FA69
:10677000054805F0DDFA0837BD4680BDAC050020B0
:10678000355A0008A8050020B405002080B500AFE8
:1067900001204FF6FF71FFF7D1FF80BD80B586B0B5
:1067A00000AF02460B46FA807B71FB88142B02D89F
:1067B0007B79FF2B00D1D7E001F062FC0346002B70
:1067C0000AD0FB880D2B05D0FB880F2B02D0FB884D
:1067D0000E2B01D1012300E00023002B00D0C3E0E9
:1067E00001F0E6F90346002B07D0FB88012B02D00D
:1067F000FB88002B01D1012300E00023002B00D0F7
:10680000B2E002F083F90346002B07D0FB88122B7D
:1068100002D0FB88132B01D1012300E00023002BC1
:1068200000D0A1E0FA88524913465B001344DB0014
:106830000B441B687B61FA884D4913465B00134487
:10684000DB000B449B887B827A694A4B9A4204D1D5
:106850000420012104F052F907E07A69464B9A427C
:1068600003D10820012104F049F97B8ABB817B799F
:10687000062B72D801A252F823F000BF99680008D5
:10688000B7680008D1680008EB68000805690008CF
:1068900023690008416900081023FB730323BB73BD
:1068A000FA88334913465B001344DB000B4408337A
:1068B00000229A7152E00423FB73FA882C49134694
:1068C0005B001344DB000B44083301229A7145E05E
:1068D0004823FB73FA88264913465B001344DB0008
:1068E0000B44083302229A7138E02823FB73FA889C
:1068F0001F4913465B001344DB000B44083303229B
:106900009A712BE01823FB730323BB73FA88184991
:1069100013465B001344DB000B44083304229A71D6
:106920001CE01C23FB730323BB73FA881049134636
:106930005B001344DB000B44083305229A710DE021
:106940000023FB73FA880A4913465B001344DB00FB
:106950000B44083306229A7100E000BF07F10C03D4
:106960007869194603F0D4FF1837BD4680BD00BFD3
:106970001000002000080140000C014080B582B0EA
:1069800000AF02460B46FA807B71FB88142B36D889
:10699000FA88544913465B001344DB000B44083368
:1069A0009B79012B2BD0FA884E4913465B00134488
:1069B000DB000B4408339B79022B20D0FA8849492D
:1069C00013465B001344DB000B4408339B79032B15
:1069D00015D0FA88434913465B001344DB000B448F
:1069E00008339B79062B0AD0FA883E4913465B0090
:1069F0001344DB000B4408339B79FF2B00D16EE07E
:106A000001F03EFB0346002B0AD0FB880D2B05D07E
:106A1000FB880F2B02D0FB880E2B01D1012300E055
:106A20000023002B00D05AE001F0C2F80346002BEF
:106A300007D0FB88012B02D0FB88002B01D101235A
:106A400000E00023002B00D049E002F05FF803468D
:106A5000002B07D0FB88122B02D0FB88132B01D10F
:106A6000012300E00023002B00D038E0FA881D4904
:106A700013465B001344DB000B4408339B79042B63
:106A800004D1FB8818460021FFF788FE7B79012B93
:106A900011D1FA88134913465B001344DB000B4401
:106AA0001968FA880F4813465B001344DB0003445F
:106AB0009B880B6113E07B79002B10D1FA88094980
:106AC00013465B001344DB000B441968FA88054841
:106AD00013465B001344DB0003449B884B6108377B
:106AE000BD4680BD1000002080B582B000AF0346D7
:106AF000FB80FB88142B20D8FA88564913465B008C
:106B00001344DB000B4408339B79FF2B15D0FA8824
:106B1000504913465B001344DB000B4408339B7958
:106B2000042B0AD0FA884B4913465B001344DB0060
:106B30000B4408339B79052B01D1002386E001F03B
:106B40009FFA0346002B0AD0FB880D2B05D0FB884B
:106B50000F2B02D0FB880E2B01D1012300E0002374
:106B6000002B01D0002371E001F022F80346002B36
:106B700007D0FB88012B02D0FB88002B01D1012319
:106B800000E00023002B01D000235FE001F0BEFFF6
:106B90000346002B07D0FB88122B02D0FB88132B57
:106BA00001D1012300E00023002B01D000234DE0A0
:106BB000FA88284913465B001344DB000B44083372
:106BC0009B79062B0CD1244B1B78FF2B01D1002382
:106BD0003CE0214B1B78FA8810461946FFF7DEFD92
:106BE000FA881C4913465B001344DB000B4408334E
:106BF0009B79002B15D1FA88164913465B00134484
:106C0000DB000B441968FA88124813465B001344F2
:106C1000DB0003449B880846194603F0CDFE03467B
:106C200014E0FA880B4913465B001344DB000B4465
:106C30001968FA88074813465B001344DB000344D5
:106C40009B880846194603F0B1FE034618460837EC
:106C5000BD4680BD100000200F00002080B590B020
:106C600000AF4FF4004003F015FF0120012103F0B5
:106C700039FF4FF4C060012103F040FF4A4803F0A0
:106C8000CBFC4A4B3B604A4B7B600023BB600A2332
:106C9000FB6000233B6180237B614FF40073BB6189
:106CA0004FF40063FB6100233B624FF400537B62AF
:106CB0000023BB623B463C48194603F025FD4FF4D8
:106CC0000023FB62002387F83030002387F831303F
:106CD0004FF460237B630023BB63012387F83C30C0
:106CE00007F12C033348194603F0D6FB4FF4002379
:106CF000FB62002387F83030002387F831304FF4EF
:106D000060237B630023BB63012387F83C3007F1DA
:106D10002C032948194603F0BFFB2648012103F044
:106D2000DFFB244803F0EEFB00BF224803F0EFFB3B
:106D30000346002B0CBF00230123DBB2002BF4D150
:106D40001C4803F0E8FB00BF1A4803F0E9FB0346C8
:106D5000002B0CBF00230123DBB2002BF4D116481B
:106D6000012103F0BDFB144803F0CCFB00BF124827
:106D700003F0CDFB0346002B0CBF00230123DBB245
:106D8000002BF4D10C4803F0C6FB00BF0A4803F007
:106D9000C7FB0346002B0CBF00230123DBB2002BF3
:106DA000F4D14037BD4680BD080002404C2401406C
:106DB00034110020002401400028014080B588B033
:106DC00000AF0346FB80FB88092B02D8FB880A33FF
:106DD000FB8001F055F90346002B0AD0FB880D2BF0
:106DE00005D0FB880F2B02D0FB880E2B01D101238D
:106DF00000E00023002B01D00023F1E000F0D8FEDA
:106E00000346002B07D0FB88012B02D0FB88002B08
:106E100001D1012300E00023002B01D00023DFE09B
:106E200001F074FE0346002B07D0FB88122B02D022
:106E3000FB88132B01D1012300E00023002B01D09C
:106E40000023CDE0FB88142B09D8FA886649134645
:106E50005B001344DB000B449B79FF2B01D1002323
:106E6000BEE00023FB61FA885F4913465B001344D0
:106E7000DB000B449A795D4B1B789A420FD0FA885D
:106E8000594913465B001344DB000B4408339A79DD
:106E9000574B1A70FB8818460621FFF77FFC554BAD
:106EA0001B78012B04D1FFF7D9FE524B00221A7038
:106EB000FA884D4913465B001344DB000B449A7972
:106EC0004A4B1B789A4227D0FA88474913465B0001
:106ED0001344DB000B449A79474B1B784748114613
:106EE000012203F02AFBFA883F4913465B00134452
:106EF000DB000B449A79404B1B7841481146012234
:106F000003F01BFBFA88384913465B001344DB008F
:106F10000B449A79354B1A700023FB6107E0394B1B
:106F2000FA69002143F82210FB690133FB61FB6918
:106F3000092BF4DD34480A2103F00FFC304801210D
:106F400003F043FB3048012103F0FCFB2B480121F7
:106F500003F0CFFA2948012103F0E6FA00BF02202E
:106F600003F0FEFB0346002B14BF00230123DBB21A
:106F7000002BF4D1022003F001FC2048002103F093
:106F8000B8FA2148002103F0DDFB00237B820023B7
:106F90003B820023BB610023FB8100237B6115E062
:106FA000184B7A6953F822301B0C3B823B8ABA6932
:106FB0001344BB61134B7A6953F822307B827B8A7E
:106FC000BA691344BB617B6901337B617B69092B1F
:106FD000E6DDBA690D4BA3FB02131B09FB81FB899C
:106FE00018462037BD4680BD100000200D0000204F
:106FF0000F0000200C0000200E00002000240140A3
:10700000002801403411002008000240CDCCCCCC37
:1070100080B58AB000AF02460B46FA807B71FB88D0
:10702000142B0AD8FA88A14913465B001344DB00ED
:107030000B4408331B68002B00D184E101F020F8D9
:107040000346002B0AD0FB880D2B05D0FB880F2BA5
:1070500002D0FB880E2B01D1012300E00023002B7E
:1070600000D070E100F0A4FD0346002B07D0FB88A0
:10707000012B02D0FB88002B01D1012300E000236B
:10708000002B00D05FE101F041FD0346002B07D04B
:10709000FB88122B02D0FB88132B01D1012300E0C7
:1070A0000023002B00D04EE1FA88804913465B0094
:1070B0001344DB000B4408339B79002B0BD0FA8878
:1070C0007A4913465B001344DB000B4408339B7979
:1070D000042B00D037E1764B1A68764BA3FB0213E2
:1070E0005B0D9BB2013BFB844BF67F33BB847B790A
:1070F000BA8C013202FB03F36F4A82FB03121A447B
:10710000D211DB17D31A7B840120012103F0F6FC96
:10711000FB8818460421FFF741FBFA8863491346B0
:107120005B001344DB000B4408331B68B3F1804F52
:1071300004D10120012103F0EDFC20E0FA885B4935
:1071400013465B001344DB000B4408331A685B4BA7
:107150009A4204D10220012103F0DCFC0FE0FA88FE
:10716000524913465B001344DB000B4408331A6892
:10717000534B9A4203D10420012103F0CBFCBB8C7A
:10718000BB83FB8C3B830023FB8300237B83FA8838
:10719000464913465B001344DB000B4408331A686E
:1071A00007F118031046194603F094FD60233B8154
:1071B00001237B8100233B827B8CFB81FA883B4946
:1071C00013465B001344DB000B4408339B88002B01
:1071D0001CD1FA88354913465B001344DB000B448D
:1071E00008331A6807F108031046194603F0BCFD7E
:1071F000FA882E4913465B001344DB000B44083326
:107200001B681846082103F0EFFE82E0FA88274940
:1072100013465B001344DB000B4408339B88042BAC
:107220001CD1FA88214913465B001344DB000B4450
:1072300008331A6807F108031046194603F0D8FD11
:10724000FA881A4913465B001344DB000B440833E9
:107250001B681846082103F0CFFE5AE0FA8813494C
:1072600013465B001344DB000B4408339B88082B58
:1072700028D1FA880D4913465B001344DB000B4408
:1072800008331A6807F108031046194603F0F4FDA5
:10729000FA88064913465B001344DB000B440833AD
:1072A0001B681846082103F0B1FE32E010000020F0
:1072B00084030020819F5E1681808080000400404E
:1072C00000080040FA88214913465B001344DB00A4
:1072D0000B4408339B880C2B1BD1FA881B4913469F
:1072E0005B001344DB000B4408331A6807F1080302
:1072F0001046194603F002FEFA88144913465B0053
:107300001344DB000B4408331B681846082103F0C4
:1073100085FEFA880D4913465B001344DB000B44DD
:1073200008331B681846012103F052FEFA8807490A
:1073300013465B001344DB000B4408331B681846FC
:10734000012103F022FE2837BD4680BD1000002039
:1073500080B584B002AF786039607B68012B11D1B1
:107360003A684FF6FF739A420CD100230093074806
:1073700000210022002300F0D9FC04480449054AFA
:1073800004F0EBFC0837BD4680BD00BF2C11002087
:10739000355A0008A805002080B500AF01204FF63F
:1073A000FF71FFF7D5FF80BD80B584B000AF062325
:1073B0007B8106233B810023FB810023FB8000238C
:1073C000BB804FF6FF73BB8103F036FA984B1B88E6
:1073D0007B81984B1B883B817B894EF6EE62934202
:1073E00038D04FF6FF72934203D0002B00F0AA80F2
:1073F00015E13B89002B09D18D4803F04FFA034674
:107400007B807B88042B24D07B881FE13A894EF651
:10741000EE639A4214D1864803F040FA03467B801B
:107420007B88042B01D07B8810E18248002103F087
:1074300053FA03467B807B88042B0AD07B8805E1C6
:1074400000F052F903467B807B88042B01D07B88B7
:10745000FCE0FAE03B89002B50D10023FB8135E0B2
:10746000754B1B889AB2F989744B33F811309A42E4
:1074700014BF00230123DBB2002B01D0FB89BB81A9
:10748000FA89B7F90C309A421DD0FA896B4B33F860
:10749000123018466A4900F0DDF80346BB80BB880D
:1074A000012B10D0FA89654B33F81220644B1B88EE
:1074B0001046194600F086F90346FB80FB88042B32
:1074C00001D0FB88C2E0FB890133FB81FB89632B80
:1074D000C6D95748002103F0FFF903467B807B881B
:1074E000042B01D07B88B1E0524803F0D7F9034662
:1074F0007B807B88042B24D07B88A7E03A894FF6D9
:10750000FF739A4214D14B4803F0C8F903467B80BD
:107510007B88042B01D07B8898E04548002103F04C
:10752000DBF903467B807B88042B0AD07B888DE0C7
:1075300000F0DAF803467B807B88042B01D07B883F
:1075400084E082E03B89002B08D100F0CDF80346AF
:107550007B807B88042B61D07B8877E03A894FF66B
:10756000FF739A4209D1334803F098F903467B80B0
:107570007B88042B52D07B8868E00023FB8135E0B8
:10758000304B1B889AB2F9892C4B33F811309A4250
:1075900014BF00230123DBB2002B01D0FB89BB8188
:1075A000FA89B7F90C309A421DD0FA89234B33F887
:1075B00012301846224900F04DF80346BB80BB88C4
:1075C000012B10D0FA891D4B33F812201C4B1B885D
:1075D0001046194600F0F6F80346FB80FB88042BA2
:1075E00001D0FB8832E0FB890133FB81FB89632BEF
:1075F000C6D91048002103F06FF903467B807B88D1
:10760000042B01D07B8821E0094803F047F90346A9
:107610007B807B88042B01D07B8817E015E000F08D
:1076200063F803467B807B88042B0DD07B880DE0BC
:1076300000400008004400080640000860110020D7
:107640005C1100200644000800BF042318461037D0
:10765000BD4680BD80B586B000AF03463960FB8073
:107660000023FB810023BB810123FB821C4B3B6178
:107670001B4BBB60002000F05FF80346FB81FB89D9
:10768000AB2B01D1AB2327E0FB899B0203F1006305
:1076900003F58043BB60FB8901339B021A46114B03
:1076A00013443B6112E03B691B88BB81BA89FB88AC
:1076B0009A4208D13B69023B1B889AB23B681A8008
:1076C0000023FB8207E03B69043B3B61BB689A1CDB
:1076D0003B699A42E7D3FB8A18461837BD4680BDFE
:1076E00000400008FE3F000880B582B000AF0423D0
:1076F000FB710F4803F0D2F80346FB71FB79042BB2
:1077000001D0FB7910E00A48002103F0E5F80346B8
:10771000FB71FB79042B01D0FB7905E0054803F0F0
:10772000BDF80346FB71FB7918460837BD4680BD9E
:10773000004000080044000880B485B000AF034654
:10774000FB710623FB810623BB811C4B1B88FB813D
:107750001B4B1B88BB81FB79002B1BD0012B25D138
:10776000BB89002B08D1FA894EF6EE639A4201D10B
:1077700000231CE001231AE0FB89002B08D1BA8901
:107780004EF6EE639A4201D1012310E000230EE091
:10779000AB230CE0FB89002B01D1002307E0BB8960
:1077A000002B01D1012302E0AB2300E000231846A7
:1077B0001437BD465DF8047B704700BF00400008E9
:1077C0000044000880B586B000AF02460B46FA8040
:1077D000BB800423FB7400233B82264B7B61264B3A
:1077E000FB600120FFF7A8FF03463B823B8AAB2BDF
:1077F00001D1AB2339E03B8A9B0203F1006303F51F
:1078000080437B613B8A01339B021A461B4B134426
:10781000FB6025E07B691B68B3F1FF3F14BF0023C9
:107820000123DBB2002B18D0BB887869194603F01E
:1078300053F80346FB74FB7C042B02D0FB7C9BB209
:1078400013E07B699A1CFB881046194603F044F844
:107850000346FB74FB7C9BB207E07B6904337B61CE
:107860007A69FB689A42D5D3802318461837BD46FB
:1078700080BD00BF00400008FF470008FE3F000831
:1078800080B584B000AF7860FFF78EFD0023FB81E8
:1078900007E0FA89074BF98923F81210FB890133B5
:1078A000FB81FB89632BF4D97B6818461037BD46F2
:1078B00080BD00BF6011002080B582B000AF78604D
:1078C00039607B68012B07D13A684FF6FF739A4203
:1078D00002D10348FFF7D4FF0837BD4680BD00BF83
:1078E0002812002080B500AF01204FF6FF71FFF78E
:1078F000E3FF80BD80B483B000AF786039607B68FF
:107900003A685A600C37BD465DF8047B704700BF8B
:1079100080B483B000AF78607B68064A1A607B68E9
:1079200000225A607B6818460C37BD465DF8047B20
:10793000704700BF68DB000880B582B000AF786098
:107940007B68064A1A600023002B02D07868FEF795
:10795000F1FD7B6818460837BD4680BD68DB00082E
:1079600080B582B000AF78607868FFF7E5FF78688F
:10797000FEF7E0FD7B6818460837BD4680BD00BFB6
:1079800080B582B000AF78607B681846FFF7C0FF13
:107990007B68054A1A607B684FF47A729A607B684C
:1079A00018460837BD4680BD68DD000880B582B046
:1079B00000AF78607B68084A1A607B681846FFF75A
:1079C000BBFF0023002B02D07868FEF7B3FD7B6875
:1079D00018460837BD4680BD68DD000880B582B016
:1079E00000AF78607868FFF7E1FF7868FEF7A2FDE6
:1079F0007B6818460837BD4680BD00BF80B582B0A1
:107A000000AF78607B681846FFF7BAFF7B68034ACF
:107A10001A607B6818460837BD4680BD18DB000831
:107A200080B582B000AF78600B46FB70114B1B78BD
:107A3000002B19D0104B1B781F2B06D97B681846DA
:107A40000121FFF757FF00230FE00C4B1B780C4A76
:107A5000F978D154094B1B780133DAB2074B1A700D
:107A6000064B1A78044B1A70012318460837BD4696
:107A700080BD00BF8E1200208D1200208C120020CD
:107A80006C12002080B586B000AFF860B9607A60F3
:107A90000E4B1B78002B14D000237B610DE0FB689C
:107AA0001B6808331B68B9687A690A441278F86859
:107AB000114698477B6901337B617A697B689A42FA
:107AC000EDD37B6818461837BD4680BD8E12002066
:107AD00080B483B000AF7860054B1B781A46054B25
:107AE0001B78D31A18460C37BD465DF8047B7047E7
:107AF000691200206812002080B485B000AF786061
:107B00004FF0FF33FB600C4B1A780C4B1B789A42FA
:107B10000AD2094B1B780A4AD35CFB60064B1B78E0
:107B20000133DAB2044B1A70FB6818461437BD46AD
:107B30005DF8047B704700BF6812002069120020C6
:107B40004812002080B485B000AF78604FF0FF335A
:107B5000FB60094B1A78094B1B789A4204D2064BFA
:107B60001B78074AD35CFB60FB6818461437BD4698
:107B70005DF8047B704700BF681200206912002086
:107B80004812002080B483B000AF78600C37BD4647
:107B90005DF8047B704700BF80B400AFBD465DF860
:107BA000047B704780B400AFBD465DF8047B70472E
:107BB00080B400AF034B1B781846BD465DF8047BCC
:107BC000704700BF4512002080B582B000AF7860DA
:107BD0007B68084A1A607B681846FFF7E7FE0023B7
:107BE000002B02D07868FEF7A5FC7B6818460837A2
:107BF000BD4680BD18DB000880B582B000AF78605C
:107C00007868FFF7E1FF7868FEF794FC7B68184618
:107C10000837BD4680BD00BF80B584B002AF786034
:107C200039607B68012B19D13A684FF6FF739A428D
:107C300014D1002300930B4800210022002300F000
:107C400075F808480849094A04F087F80848FFF71A
:107C5000D5FE07480749054A04F07FF80837BD46B6
:107C600080BD00BF2C120020355A0008A805002056
:107C700098120020C97B000880B500AF01204FF6A4
:107C8000FF71FFF7C9FF80BD80B584B000AF034628
:107C9000FB71FA79064B53F82230FB60FB68002B2E
:107CA00000D101E0FB6898471037BD4680BD00BF9A
:107CB000B012002080B584B002AF786039607B6874
:107CC000012B11D13A684FF6FF739A420CD1002371
:107CD0000093074800210022002300F027F8044801
:107CE0000449054A04F039F80837BD4680BD00BF95
:107CF000A8120020355A0008A805002080B500AF62
:107D000001204FF6FF71FFF7D5FF80BD80B483B02F
:107D100000AF78607B68044A1A607B6818460C37AD
:107D2000BD465DF8047B704790DD000880B582B0E9
:107D300000AF7860F970BA707B707B681846FFF707
:107D4000E5FF7B68094A1A607B68FA781A717B68DC
:107D5000BA785A717B687A789A717B683A7CDA7162
:107D60007B6818460837BD4680BD00BF40DB000871
:107D700080B584B000AF786039600023FB600023D9
:107D8000BB6017E07A68BB6813441B7938681946F2
:107D90000A2200F0A7F80346FA681344FB6038682B
:107DA0002E2100F08BF80346FA681344FB60BB6891
:107DB0000133BB60BB68022BE4DD7B68DB7938688C
:107DC00019460A2200F08EF80346FA681344FB6055
:107DD000FB6818461037BD4680BD00BF80B584B033
:107DE00002AF786039607B68012B11D13A684FF699
:107DF000FF739A420CD10023009307480021002210
:107E00000023FFF793FF04480449054A03F0A5FF48
:107E10000837BD4680BD00BFF0120020355A00086B
:107E2000A805002080B500AF01204FF6FF71FFF7D5
:107E3000D5FF80BD90B583B000AF786039603B68F6
:107E4000002B01D100230CE07B681B680C331C68FD
:107E5000386804F0EBF80346786839681A46A0479A
:107E6000034618460C37BD4690BD00BF80B586B0AE
:107E700000AFF860B9607A6000237B610EE0FB68B8
:107E80001B6808331A68BB68591CB9601B78F8680E
:107E90001946904703467A6913447B617B685A1EF2
:107EA0007A60002B0CBF00230123DBB2002BE6D14C
:107EB0007B6918461837BD4680BD00BF80B582B0CB
:107EC00000AF78600B46FB707B681B6808331B684B
:107ED000FA78786811469847034618460837BD4631
:107EE00080BD00BF80B584B000AFF8600B467A60FB
:107EF000FB72FB7AF86819467A6800F005F80346C9
:107F000018461037BD4680BD80B584B000AFF8601C
:107F1000B9607A607B68002B0AD1FB681B68083364
:107F20001B68BA68D2B2F86811469847034607E062
:107F30007B68DBB2F868B9681A4600F005F80346BA
:107F400018461037BD4680BD80B590B000AFF860D0
:107F5000B9601346FB71202307F114021344FB633D
:107F6000FB6B00221A70FB79012B01D80A23FB71ED
:107F7000BB68BB63FB79BA68B2FBF3F3BB60BB6B56
:107F8000DAB2BB68DBB2F97901FB03F3DBB2D31AD7
:107F900087F83730FB6B013BFB6397F83730092BD1
:107FA00004D897F837303033DBB203E097F8373036
:107FB0003733DBB2FA6B1370BB68002BD8D1F8688B
:107FC000F96BFFF737FF034618464037BD4680BDC3
:107FD00080B584B002AF786039607B68012B11D125
:107FE0003A684FF6FF739A420CD10023009307487A
:107FF000002100220023FFF799FE04480449054AA6
:1080000003F0ABFE0837BD4680BD00BFF81200206C
:10801000355A0008A805002080B500AF01204FF6B2
:10802000FF71FFF7D5FF80BD80B584B002AF7860E7
:1080300039607B68012B11D13A684FF6FF739A4281
:108040000CD1002300930748002100220023FFF7F2
:108050006DFE04480449054A03F07FFE0837BD461B
:1080600080BD00BF00130020355A0008A80500207D
:1080700080B500AF01204FF6FF71FFF7D5FF80BD3F
:1080800080B400AF034B1B781846BD465DF8047BF7
:10809000704700BF2913002080B400AFBD465DF8D3
:1080A000047B704780B584B002AF786039607B682C
:1080B000012B11D13A684FF6FF739A420CD100237D
:1080C00000930748002100220023FFF72FFE0448F9
:1080D0000449054A03F041FE0837BD4680BD00BF94
:1080E00008130020355A0008A805002080B500AF0D
:1080F00001204FF6FF71FFF7D5FF80BD80B584B03A
:1081000002AF786039607B68012B11D13A684FF675
:10811000FF739A420CD100230093074800210022EC
:108120000023FFF703FE04480449054A03F015FE47
:108130000837BD4680BD00BF2C130020355A00080B
:10814000A805002080B500AF01204FF6FF71FFF7B2
:10815000D5FF80BD80B582B000AF786039607868A7
:1081600000F020F83B68002B08D0386803F05EFF71
:108170000346786839681A4600F08EF87B6818461E
:108180000837BD4680BD00BF80B582B000AF7860C3
:108190007B681B68184603F031FE7B681846083779
:1081A000BD4680BD80B483B000AF78607B6800229C
:1081B0001A607B6800225A607B6800229A607B68A4
:1081C00000221A730C37BD465DF8047B704700BF70
:1081D00080B582B000AF78607B681B68002B04D04C
:1081E0007B681B68184603F009FE7B6800221A6052
:1081F0007B6800229A607B689A687B685A600837BF
:10820000BD4680BD80B582B000AF786039607B68C4
:108210001B68002B06D07B685A683B689A4201D3E2
:10822000012316E07868396800F018F80346002B3F
:108230000CBF00230123DBB2002B09D07B689B68B5
:10824000002B03D17B681B6800221A70012300E019
:10825000002318460837BD4680BD00BF80B584B0F6
:1082600000AF786039607B681A683B68013310465C
:10827000194603F075FEF860FB68002B07D07B6899
:10828000FA681A607B683A685A60012300E00023AC
:1082900018461037BD4680BD80B584B000AFF86089
:1082A000B9607A60F8687968FFF7ACFF0346002B85
:1082B00014BF00230123DBB2002B04D0F868FFF7C2
:1082C00087FFFB6809E0FB687A689A60FB681B68B7
:1082D0001846B96803F0A2FEFB6818461037BD4681
:1082E00080BD00BF80B582B000AF786039603B6868
:1082F000002B09D0386803F099FE03467868396886
:108300001A46FFF7C9FF02E07868FFF761FF7B6854
:1083100018460837BD4680BD80B582B000AF786092
:1083200039607B689B68002B0AD13B68002B03D027
:108330003B681B78002B01D1012300E0002317E0EC
:108340003B68002B08D17B681B681B78002B14BF8F
:1083500000230123DBB20BE07B681B6818463968F9
:10836000FCF7D6FE0346002B14BF00230123DBB22B
:1083700018460837BD4680BD80B582B000AF786032
:1083800039607B689A683B689B689A4201D20023F7
:1083900005E078683968002200F006F803461846C0
:1083A0000837BD4680BD00BF80B584B000AFF8601F
:1083B000B9607A60FB689A68BB689B68D21A7B6870
:1083C0009A4207D3FB681B68002B03D0BB681B686D
:1083D000002B01D1002312E0FB681A687B68D118DA
:1083E000BB681A68BB689B68084611461A4603F0CA
:1083F00025FE0346002B14BF00230123DBB21846E1
:108400001037BD4680BD00BF80B582B000AF786038
:1084100039607868396800F005F80346184608376F
:10842000BD4680BD80B483B000AF786039607B68A2
:108430009A683B689A4203D97B681B68002B01D17C
:10844000002304E07B681A683B6813441B781846D5
:108450000C37BD465DF8047B704700BF80B584B023
:1084600000AFF860B9607A60BB689B68FA68104634
:10847000B9687A6800F004F8F8681037BD4680BD26
:1084800080B586B000AFF860B9607A603B607A680A
:108490003B689A4205D93B687B617B683B607B699E
:1084A0007B60F8681749FFF755FEBB689A687B68E0
:1084B0009A4200D222E0BB689A683B689A4202D294
:1084C000BB689B683B60BB681A683B6813441B78B9
:1084D000FB74BB681A683B68134400221A70BB68BF
:1084E0001A687B681344F8681946FFF7FBFEBB68FF
:1084F0001A683B681344FA7C1A7000BFF868183792
:10850000BD4680BD84DB000880B582B000AF7860D6
:108510007B681B68002B06D07B681B68184603F03D
:1085200050FC034600E0002318460837BD4680BDD6
:1085300080B582B000AF254B1B78002B43D0234B76
:108540005B78002B3FD000F043F8386001237B605C
:108550001E4B1B785BB2002B14DD1C4B5B781A465C
:108560001A4B1B785BB292FBF3F3012B1FDC7B6889
:10857000013B7B60154B1B78DBB2013BDAB2134B3E
:108580001A7014E0114B5B781A46104B1B785BB2E3
:1085900092FBF3F3B3F1FF3F09DB7B6801337B60B0
:1085A0000A4B1B78DBB20133DAB2084B1A70074B67
:1085B0005B78013BDAB2054B5A703A687B6813442A
:1085C000184600F011F80837BD4680BD3C13002066
:1085D00080B582B000AF02F0E5FA03467B607B68AD
:1085E00018460837BD4680BD80B582B000AF7860C0
:1085F00002F00AFB7B68184602F0E6FA02F004FB80
:108600000837BD4680BD00BF80B584B002AF78603A
:1086100039607B68012B11D13A684FF6FF739A429B
:108620000CD1002300930748002100220023FFF70C
:108630007DFB04480449054A03F08FFB0837BD461B
:1086400080BD00BF34130020355A0008A805002063
:1086500080B500AF01204FF6FF71FFF7D5FF80BD59
:1086600080B584B002AF786039607B68012B11D18E
:108670003A684FF6FF739A420CD1002300930748E3
:10868000002100220023FFF751FB04480449054A5A
:1086900003F063FB0837BD4680BD00BF70130020A8
:1086A000355A0008A805002080B500AF01204FF61C
:1086B000FF71FFF7D5FF80BD80B582B000AF786055
:1086C0007B68084A1A607B681846FFF76FF9002339
:1086D000002B02D07868FDF72DFF7B68184608371D
:1086E000BD4680BD90DB000880B582B000AF7860E9
:1086F0007868FFF7E1FF7868FDF71CFF7B68184694
:108700000837BD4680BD00BF80B485B000AF0346CA
:108710003960FB713B681B6C013303F03F03FB6066
:108720003B685A6CFB689A420CBF00230123DBB202
:10873000002B07D03B681B6C3A68F979D1543B6831
:10874000FA681A641437BD465DF8047B704700BFB1
:1087500080B582B000AF786039607B681846FFF75B
:108760000FF97B68134A1A607B683A68C3F8A42043
:108770007B68D3F8A4307A681432DA617B68D3F866
:10878000A4307A685C329A617B6814331846002101
:10879000482203F044FB7B685C33184600214822E2
:1087A00003F03DFB7B6800221A747B68184608378B
:1087B000BD4680BD90DB000880B483B000AF786018
:1087C0007B685A6D7B689B6DD31A03F03F03184694
:1087D0000C37BD465DF8047B704700BF80B483B0A2
:1087E00000AF78607B685A6D7B689B6D9A4214BFBE
:1087F00000230123DBB2002B02D04FF0FF3304E053
:108800007B689B6D7A6813441B7D18460C37BD4608
:108810005DF8047B704700BF80B485B000AF78601E
:108820007B685A6D7B689B6D9A4214BF00230123BD
:10883000DBB2002B02D04FF0FF330DE07B689B6D65
:108840007A6813441B7DFB737B689B6D013303F0D7
:108850003F027B689A65FB7B18461437BD465DF87E
:10886000047B704780B582B000AF786000BF7B6842
:10887000D3F89C207B68D3F8A0309A420CBF002329
:108880000123DBB2002BF2D100BF7B681B7C002BE5
:108890000CD07B68D3F8A4301B681846402102F046
:1088A000F6FB0346002B01D1012300E00023002B3F
:1088B000EBD17B6800221A740837BD4680BD00BF2B
:1088C00080B584B000AF78600B46FB707B68D3F84E
:1088D000A4301B68184640F2277102F0DEFB034605
:1088E000002B09D17B68D3F89C207B68D3F8A0309B
:1088F0009A4201D0012300E00023002B09D07B68BD
:10890000D3F8A4301B68184640F22771012202F008
:108910009EFB7B68D3F89C30013303F03F03FB6080
:108920004AE07B68D3F8A4301B68184640F22771F0
:1089300002F0B3FB0346002B0CD07B68D3F8A430C5
:108940001B681846802102F0A2FB0346002B01D0D1
:10895000012300E00023002B2ED07B68D3F8A43045
:108960001B68184640F22771002202F070FB7B68FA
:10897000D3F8A4301A687B68D3F8A030581C796803
:10898000C1F8A00079680B4493F85C301046194692
:1089900002F075FB7B68D3F8A03003F03F027B68E0
:1089A000C3F8A0207B68D3F8A4301B68184640F2B7
:1089B0002771012202F04BFB7B68D3F8A020FB68F3
:1089C0009A420FD0EFF31083BB60BB6803F0010342
:1089D000002B09D07B68D3F89C207B68D3F8A030AB
:1089E0009A4201D0012300E00023002B99D17B683B
:1089F000D3F89C307A681344FA7883F85C207B685B
:108A0000FA68C3F89C207B6801221A747B68D3F84B
:108A1000A4301B68184640F22771012202F017FBB0
:108A2000012318461037BD4680BD00BF90B585B004
:108A300000AF78607B681B68184640F2255102F051
:108A40002CFB0346002B0CBF00230123DBB2002BC1
:108A50000DD07B681B68184602F015FB0346FB73BC
:108A60007B68DB69FA7B10461946FFF74DFE7B6891
:108A70001B68184640F2277102F00FFB0346002BDB
:108A80000CBF00230123DBB2002B2BD07B689B693A
:108A90001A6C7B689B695B6C9A4214BF00230123AC
:108AA000DBB2002B08D07B681B68184640F22771A8
:108AB000002202F0CCFA15E07B6819687B6898699F
:108AC0007B689A69536C5C1C5464C35C0846194605
:108AD00002F0D5FA7B689B697A689269526C02F061
:108AE0003F025A641437BD4690BD00BF80B500AF49
:108AF0000148FFF79BFF80BD0802002080B500AF52
:108B00000148FFF793FF80BD2802002080B400AF2A
:108B1000034B1B781846BD465DF8047B704700BFC9
:108B20009013002080B584B002AF786039607B6814
:108B3000012B1AD13A684FF6FF739A4215D10023E0
:108B400000930B48002100220023FFF7EFF80848AC
:108B50000849094A03F001F908480949FFF7F8FDF7
:108B600006480849044A03F0F8F80837BD4680BDB6
:108B700078130020355A0008A8050020941300201F
:108B800008020020B986000880B500AF01204FF62A
:108B9000FF71FFF7C7FF80BD80B582B000AF78607E
:108BA0007B681846FEF7ECFE7B68034A1A607B6818
:108BB00018460837BD4680BDB8DB000880B582B0D6
:108BC00000AF7860FDF712FB034618460837BD4634
:108BD00080BD00BF80B582B000AF7860FDF7E0FADD
:108BE000034618460837BD4680BD00BF80B582B039
:108BF00000AF78600B46FB70FB781846FDF72AFB48
:108C0000012318460837BD4680BD00BF80B483B03D
:108C100000AF78600C37BD465DF8047B704700BF3D
:108C200080B483B000AF78604FF0FF3318460C3744
:108C3000BD465DF8047B704780B582B000AF7860B8
:108C40007B68084A1A607B681846FEF7AFFE00236F
:108C5000002B02D07868FDF76DFC7B68184608375A
:108C6000BD4680BDB8DB000880B582B000AF78603B
:108C70007868FFF7E1FF7868FDF75CFC7B681846D1
:108C80000837BD4680BD00BF80B584B002AF7860B4
:108C900039607B68012B19D13A684FF6FF739A420D
:108CA00014D1002300930B48002100220023FFF77A
:108CB0003DF808480849094A03F04FF80848FFF70B
:108CC0006BFF07480749054A03F047F80837BD46D8
:108CD00080BD00BF3C140020355A0008A8050020C4
:108CE00044140020398C000880B500AF01204FF6F5
:108CF000FF71FFF7C9FF80BD80B400AFBD465DF8CE
:108D0000047B704780B500AF012001F0E7FAFEE771
:108D100080B500AF032001F0E1FAFEE780B500AFB7
:108D2000042001F0DBFAFEE780B500AF052001F07A
:108D3000D5FAFEE780B400AFBD465DF8047B70470E
:108D400080B400AFBD465DF8047B704780B400AFCF
:108D5000BD465DF8047B704780B500AF01F05EF959
:108D6000FDF7A4F980BD00BF80B500AF024B002B1A
:108D700001D0AFF3008080BD0000000080B500AFDF
:108D8000024B002B01D0FFF7B9FE80BDFD8A000821
:108D900080B500AF024B002B01D0FFF7A7FE80BDCE
:108DA000ED8A000880B500AF024B002B01D0FEF722
:108DB000F3FE80BD997B000880B500AF024B002B0D
:108DC00001D0FEF7EFFE80BDA57B000880B500AFA7
:108DD000024B002B01D0FFF75FF980BD998000089E
:108DE00080B500AF012001F013FD0346002B0CBF3E
:108DF00000230123DBB2002B08D0012001F016FD77
:108E0000034B002B02D00020FEF73EFF80BD00BFC9
:108E1000897C000880B500AF022001F0F9FC034610
:108E2000002B0CBF00230123DBB2002B08D0022053
:108E300001F0FCFC034B002B02D00120FEF724FFC5
:108E400080BD00BF897C000880B500AF042001F020
:108E5000DFFC0346002B0CBF00230123DBB2002BF9
:108E60000ED0042001F0E2FC064B00221A80002004
:108E7000002100F017FF04481021012202F09FF8A2
:108E800080BD00BF88140020002C014080B500AFD9
:108E9000082001F0BDFC0346002B0CBF002301237A
:108EA000DBB2002B08D0082001F0C0FC034B002BE4
:108EB00002D00320FEF7E8FE80BD00BF897C0008D9
:108EC00080B500AF102001F0A3FC0346002B0CBFBF
:108ED00000230123DBB2002B08D0102001F0A6FCF8
:108EE000034B002B02D00420FEF7CEFE80BD00BF56
:108EF000897C000880B500AF202001F089FC034682
:108F0000002B0CBF00230123DBB2002B08D0202054
:108F100001F08CFC174B002B02D00520FEF7B4FEAD
:108F2000402001F075FC0346002B0CBF00230123F9
:108F3000DBB2002B08D0402001F078FC0D4B002B59
:108F400002D00620FEF7A0FE802001F061FC03465F
:108F5000002B0CBF00230123DBB2002B08D08020A4
:108F600001F064FC034B002B02D00720FEF78CFEBF
:108F700080BD00BF897C000880B500AF4FF4005071
:108F800001F046FC0346002B0CBF00230123DBB29B
:108F9000002B09D04FF4005001F048FC224B002B6D
:108FA00002D00D20FEF770FE4FF4804001F030FC3F
:108FB0000346002B0CBF00230123DBB2002B09D09A
:108FC0004FF4804001F032FC174B002B02D00E20F2
:108FD000FEF75AFE4FF4004001F01AFC0346002B46
:108FE0000CBF00230123DBB2002B09D04FF400405B
:108FF00001F01CFC0C4B002B02D00F20FEF744FEAE
:109000004FF4006001F004FC0346002B0CBF00236A
:109010000123DBB2002B05D04FF4006001F006FC09
:1090200000F0D3FB80BD00BF897C000880B500AF95
:109030001648102101F0FCFF0346002B0CBF002353
:109040000123DBB2002B1FD01048102101F0FBFFE1
:10905000002000F0EBFE0346002B14BF0023012389
:10906000DBB2002B07D00A4B1B889BB20A339AB2A3
:10907000074B1A8008E005481021002201F09FFFED
:109080000020012100F00EFE80BD00BF002C014039
:109090008814002080B500AF034B1B68002B02D062
:1090A000014B1B68984780BD5414002080B500AF69
:1090B000034B1B68002B02D0014B1B68984780BDF7
:1090C0005814002080B500AF034B1B68002B02D062
:1090D000014B1B68984780BD5C14002080B500AF31
:1090E000012001F0A7FD0346002B0CBF0023012344
:1090F000DBB2002B09D0012001F0ACFD034B002BAB
:1091000001D0FFF715FA01F07FFD80BD3185000821
:1091100080B500AF022001F08DFD0346002B0CBF8F
:1091200000230123DBB2002B18D04FF4003001F0F4
:109130007DFB012001F09CFC0346002B0CBF0023AB
:109140000123DBB2002B02D0012001F09BFC01F0D7
:109150005BFD022001F07EFD01F056FD80BD00BFE9
:1091600080B500AF00F030FB80BD00BF80B500AF20
:1091700000F096F880BD00BF80B582B000AF234BF1
:109180001B78012B3ED1224B1B68002B03D11F4BB8
:1091900000221A7036E01E4B1B68402B11D91D4B64
:1091A0001B68FB804023BB801A4B1B6803F1400205
:1091B000184B1A60164B1B68A3F14002144B1A603F
:1091C0000FE0144B1B68FB80114B1B68BB80114BDD
:1091D0001A680F4B1B681A440E4B1A600C4B002286
:1091E0001A60FA880C4B1A44BB881046C0211A46F4
:1091F00002F042FCBB880120194602F045FD012027
:1092000002F0ACFC0837BD4680BD00BFA4050020BD
:109210005C050020580500205404002080B500AFF4
:109220000A4B01221A700A4B00221A80032002F016
:1092300059FD03461A46074B1A80064B1B88064801
:109240004FF488711A4602F02FFC80BDA50500205E
:10925000A2050020A00500206005002080B500AF19
:109260000D4B1B68052B14BF00230123DBB2002B21
:1092700010D00A4B1B68591C084A1160052B14BFFB
:1092800000230123DBB2002B04D0044B00221A6020
:10929000FDF716F880BD00BFB41400206014002054
:1092A00080B500AF524B1B689AB2524B1A80514B9B
:1092B0001B889BB203F400724F4B1B881340002B9A
:1092C0000CBF00230123DBB2002B0CD0484B4FF620
:1092D000FF521A60494B1B78DBB20133DAB2474BBD
:1092E0001A70FFF7BBFF434B1B889BB203F400428D
:1092F000414B1B881340002B0CBF00230123DBB222
:10930000002B01D002F002FB3A4B1B889BB203F406
:109310008062394B1B881340002B0CBF00230123B4
:10932000DBB2002B06D0324B4FF6FF321A60344BC3
:109330005B6898472F4B1B889BB203F400522E4B5F
:109340001B881340002B0CBF00230123DBB2002B32
:1093500003D0274B4DF6FF721A60264B1B889BB239
:1093600003F48052244B1B881340002B0CBF0023B6
:109370000123DBB2002B06D01D4B4EF6FF721A60A4
:10938000002000F069FF1B4B1B889BB203F40062B6
:10939000194B1B881340002B0CBF00230123DBB2A9
:1093A000002B0ED0174B1B78DBB2002B02D000F045
:1093B00033FF02E0022000F04FFF0D4B4FF2FF722F
:1093C0001A600C4B1B889BB203F480720A4B1B88FB
:1093D0001340002B0CBF00230123DBB2002B06D06F
:1093E000034B4FF6FF621A60072000F035FF80BD87
:1093F000445C004064140020141500206614002012
:10940000A80200209803002080B500AFFCF7CCFF35
:10941000054B1B6800229A7200F0E6FE02F078FC11
:10942000024B00221A6080BD10150020B4140020E9
:1094300080B500AF364B1B6800229A72344B1B6814
:10944000344AD2795A72324B1B680022DA720020F9
:1094500002F03CFB00204FF4007102F03FFB0020C3
:10946000102102F049FB0020402102F0E1FB002026
:10947000802102F0CDFB002002F096FB264B93F8F2
:109480002C300020194602F00DFC002002F079FB80
:109490000120002102F022FB0120C02102F0B8FBD4
:1094A0000120202102F028FB0120002102F03DFBD9
:1094B00002204FF4C06102F011FB02204FF48071D2
:1094C00002F0A6FB0220002102F02FFB0220202147
:1094D00002F012FB0320002102F000FB03204FF4F6
:1094E000887102F0A5FB0320402102F0DBFB032082
:1094F0004FF4405102F019FB0320002102F0FCFA66
:10950000002002F0B3F9054B01221A6080BD00BFB4
:1095100010150020ECDB0008A8020020B414002085
:1095200080B483B000AF074B7B607B689B7A002BD5
:1095300002D0054B05221A600C37BD465DF8047B4E
:10954000704700BFF0140020B414002080B400AFB6
:10955000034B04221A60BD465DF8047B704700BFD0
:10956000B414002080B400AF054B1B78202B02D12F
:10957000034B00221A70BD465DF8047B704700BFA4
:109580006814002080B400AFBD465DF8047B7047CE
:1095900080B584B000AF0346FB710023FB60FB790C
:1095A000212B09D1164B1B681B7803F07F03212B5D
:1095B00011D1144BFB600EE0FB79202B0BD1104B2B
:1095C0001B681B7803F07F03212B01D10E4BFB603E
:1095D0000E4B20221A70FB68002B01D102230BE0F6
:1095E000074B1B68FA689A61054B1B6800225A8278
:1095F000FB6800209847002318461037BD4680BD01
:1096000010150020099700083D97000868140020F5
:1096100080B483B000AF0346FB710C4B1B681B7812
:1096200003F07F03212B09D1FB79022B01D1002309
:1096300005E0FB79222B01D1002300E0022318462C
:109640000C37BD465DF8047B704700BF1015002045
:1096500080B582B000AF0346FB80FB881846044902
:1096600001F000FF034618460837BD4680BD00BF25
:10967000FC02002080B582B000AF0346FB80FB886F
:109680001846044901F0EEFE034618460837BD4669
:1096900080BD00BF0403002080B584B000AF034646
:1096A000FB800B4B1B68DB78FB73FB7B042B01D926
:1096B000002309E0FB7BDA00064B1344FA881046CE
:1096C000194601F0CFFE034618461037BD4680BD4F
:1096D000101500200C03002080B483B000AF0246B8
:1096E0000B46FA71BB71BB79002B01D0022305E058
:1096F000FB79012B01D9022300E0002318460C3727
:10970000BD465DF8047B704780B483B000AF03466C
:10971000FB80FB88002B05D1064B1B6808221A82B0
:10972000002300E0044B18460C37BD465DF8047B6F
:10973000704700BF101500209C02002080B483B049
:1097400000AF0346FB80FB88002B05D1064B1B684E
:1097500008221A82002300E0044B18460C37BD464D
:109760005DF8047B704700BF101500209C020020AC
:10977000002100F004B80E4B5B58435004310D48F3
:109780000D4B42189A42FFF4F6AF0C4A00F003B8B2
:10979000002342F8043B0A4B9A42FFF4F9AF00F071
:1097A000A9FCFCF7E5FBFCF7A9FEFCF72FFC7047D2
:1097B00064E00008000000203C0400203C0400207D
:1097C00020150020FFF7FEBF704770470D4B0E4A73
:1097D000197839B9D98889B21187198989B29187DD
:1097E0009B8806E0D98989B21187198A89B2918745
:1097F0009B899BB29386054B63221A70FF225A7095
:10980000704700BF6C140020002C01402C03002086
:109810004FF4407000F0F8BD0A4BF0211A684FF485
:109820007A73B2FBF3F2084B013A5A60074A82F8A6
:1098300023100021996007211960D02382F823307A
:10984000704700BF8403002010E000E000ED00E05E
:1098500007B50F4B5B6800930E4B1A680E4BB2FBBB
:10986000F3F34FF0FF32B2FBF3F2904228BF104601
:1098700043430193064B5968009A019B8A1A9A4206
:1098800002D201F0CBF8F5E703B05DF804FB00BFAE
:10989000001000E08403002040420F007FB54FF429
:1098A000003000F0C3FF4FF400330293082300257B
:1098B00001240DEB03008DF80D308DF80C508DF860
:1098C0000E4000F065FF04230DEB030003268DF826
:1098D00005308DF804608DF806508DF8074000F0D3
:1098E0009DFD292301A88DF804308DF805608DF8C1
:1098F00006508DF8074000F091FD022001F0B8F805
:1099000028B1022001F0BEF801F086F918E02046E7
:1099100001F0CAF8412001F009F90028FAD04FF40B
:10992000807001F0D1F8012001F0D6F801F074F94F
:1099300001F06AF947F6FF7001F056F901F064F999
:109940000320012101F00EF901F05EF904B070BDB1
:1099500010B5044645F2555001F04EF8062001F0CE
:1099600051F82820604340F6FF73000A984228BF50
:10997000184680B201F04CF801F050F8BDE81040F4
:1099800001F054B8082814D8012908D10B4B0C4A0F
:1099900003EB80035B6832F810201A610BE051B9C9
:1099A000064B074A03EB80035B6832F810205A61CC
:1099B00001E0FF2000E0002040B270472C030020AF
:1099C00090DC000873B50F4E850073190446012121
:1099D000186901F093F836F8143001A9ADF8043095
:1099E00010238DF8073003238DF80630064B1D44F5
:1099F000686800F08DFF20460021FFF7C3FF02B02A
:109A000070BD00BF90DC00082C03002070B5012160
:109A100088B04FF4006001F071F8314B01A81C6868
:109A2000304B0025B4FBF3F4A4B201F09BFA01A87B
:109A300001F098FAADF804402B4C42F20F7301A9E3
:109A40002046ADF80830ADF80A50ADF8065001F0E8
:109A500041F904A801F08FFA60230126ADF8103017
:109A60002046022304A9ADF81830ADF81260ADF815
:109A70001650ADF81C5001F077F92046294601F048
:109A8000B3FA204604A901F0B3F92046294601F0B3
:109A9000B3FA204604A901F0EFF92046294601F067
:109AA000B5FA204604A9ADF81050ADF81260ADF833
:109AB0001650ADF8185001F021FA2046294601F061
:109AC000ADFA2046314601F083FA2046314601F0D6
:109AD0005CFA2046314601F064FA08B070BD00BF60
:109AE0008403002040420F00002C014030B5104993
:109AF000104B8C8D93F82430A4B204FB0334C0F3D4
:109B000007456C430C4A240CD4808C8DC0F3072588
:109B1000A4B204FB03346C43240C1481898D50617E
:109B200089B2C0B201FB000043431B0C938030BDDF
:109B3000002C01402C0300206C14002030B510498B
:109B4000104B8C8D93F82430A4B204FB0334C0F383
:109B500007456C430C4A240CD4818C8DC0F3072537
:109B6000A4B204FB03346C43240C1482898D9061ED
:109B700089B2C0B201FB000043431B0C938130BD8E
:109B8000002C01402C0300206C14002073B50F4EF4
:109B90008500731904460121186B06EB440600F09A
:109BA000ADFFB6F84030ADF804300CB9102300E03A
:109BB00018238DF8073003238DF80630044B01A9D4
:109BC0001D44A86A00F0A4FE02B070BD90DC00083D
:109BD0002C03002010B1E72806D07047034B4FF448
:109BE00000529B6A1A617047FFF7F0BD2C030020FA
:109BF00010B1E72806D07047074B4FF400529B6A1C
:109C00005A617047054A0023138793879386024A57
:109C100013700123537070472C030020002C014067
:109C200010B51D4A13780BB9012102E0632B01D155
:109C3000FF2151705178E7280B44DBB2137029D112
:109C4000164A6320147816497CB9D488A4B25C43C0
:109C5000B4FBF0F4A4B20C871489A4B25C43B4FB47
:109C6000F0F4A4B28C8792880EE0D489A4B25C434D
:109C7000B4FBF0F4A4B20C87148AA4B25C43B4FB26
:109C8000F0F4A4B28C87928992B25343B3FBF0F004
:109C900080B2888610BD00BF2C0300206C14002009
:109CA000002C014073B5104C0E4604EB400494F8B0
:109CB0004C10054694F8480000F088FEB4F8504077
:109CC000204600F09FFD00238DF80430074B6846C6
:109CD0001D4495F8383000948DF805308DF80660F5
:109CE00000F056FD02B070BD90DC00082C0300208F
:109CF000F7B5234E8700F3190546586D0C4640F022
:109D00000100012100F0FAFE1E4B06EB45065A1930
:109D100092F83A2002A98DF80320B6F85C201F447F
:109D200021F8082DF86B694600F0F2FD012C24D1D2
:109D300010210022144801F042F91B238DF8043051
:109D40000027052301A88DF805308DF806708DF8E1
:109D5000074000F063FBB6F8603001A88DF80430CE
:109D600006238DF805308DF806708DF8074000F059
:109D700055FB28462146FFF795FF03B0F0BD00BF15
:109D800090DC00082C030020002C014010B50121BC
:109D90004FF0C05000F0BEFE012000F04FFE242026
:109DA00000F02AFC4AF2A553984207D124204FF62E
:109DB000FF7100F013FC00F047FEFEE7194B002492
:109DC0005A6842F440725A60A3F54C33A3F5047309
:109DD000DA6842F08072DA60134B5C601A6842F015
:109DE00001021A60FFF714FD0120014600F086FE13
:109DF000E0B20134FFF7E6FD082CF9D1FFF706FECB
:109E00000020FFF7C3FE0120FFF7C0FE0220FFF78E
:109E1000BDFE0320FFF7BAFEBDE81040002001217F
:109E2000FFF766BF002004E0001000E0054A064B83
:109E300002EB800203EB4003B3F85C10D06B00F040
:109E4000B5BD00BF2C03002090DC000802484FF491
:109E5000805100F0B7BD00BF000C014008B54FF4C1
:109E60000061024800F0A2FD08BD00BF000C0140E7
:109E700010B50B4C238823F040031B041B0C2380DC
:109E8000FFF7E4FF074B08481B884FF400719BB2B3
:109E900043F040032380BDE8104000F095BD00BFB3
:109EA00000380040DC140020000C014002484FF450
:109EB000007100F087BD00BF000C014070B50820A4
:109EC00086B0012100F01AFE2D4C4FF48040012194
:109ED00000F020FE4FF40053ADF8003003261823A5
:109EE000204669468DF803308DF8026000F010FDC1
:109EF0004FF4004320466946ADF8003000F008FDFD
:109F00004FF48043ADF800302046042369468DF8B5
:109F100003304FF4007500F0FBFC10232046694627
:109F20008DF80330A4F55444ADF800508DF802606C
:109F300000F0EEFCFFF7BAFF0023ADF804304FF459
:109F40008272ADF80830ADF80A30ADF80C30ADF8DB
:109F50001030ADF812302046072301A9ADF80620D5
:109F6000ADF81430ADF80E5000F07EFE2288054B9F
:109F700092B2204601211A8000F095FE06B070BD15
:109F8000000C0140DC140020014B03221A607047D2
:109F9000B4140020044B9A7A044B0AB1052200E065
:109FA00001221A60704700BFF0140020B414002092
:109FB00020B105484FF4806100F006BD02484FF41F
:109FC000806100F0FFBC00BF000C01400C4B93F817
:109FD0002030A3B10B4B1A880B4BA3F844200B4A3B
:109FE0001288A3F846200A4A1288A3F84820094A92
:109FF0001288A3F84A20084A1288A3F84C20704718
:10A000006C140020004C00082C030020024C0008B7
:10A01000044C0008064C0008084C0008024B1A6C5F
:10A0200001321A64704700BF6C14002010B504465A
:10A030000A48022100F048FE0028F9D007482146CE
:10A0400000F03DFE0548012100F03EFE0028F9D059
:10A05000024800F036FEC0B210BD00BF003800401C
:10A0600070B5FFF705FF9F20FFF7E0FFFF20FFF728
:10A07000DDFF0446FF20FFF7D9FF0546FF20FFF76D
:10A08000D5FF2D020646FFF711FF45EA0440304395
:10A0900070BD000008B5FFF711FFFFF7E9FE0420CF
:10A0A000FFF7C4FFFFF702FFFFF7DAFF104B9842FC
:10A0B00002D04C3B984219D1FFF7DAFE8020FFF71F
:10A0C000B5FFFFF7F3FEFFF7D3FE5020FFF7AEFF1B
:10A0D000FFF7ECFEFFF7CCFE0120FFF7A7FF002003
:10A0E000FFF7A4FFBDE80840FFF7E0BE08BD00BFD2
:10A0F0008D25BF00384B82B01A6842F001021A6009
:10A100005968364A0A405A601A6822F0847222F46A
:10A1100080321A601A6822F480221A605A6822F487
:10A12000FE025A604FF41F029A60002200920192D0
:10A130001A6842F480321A601A6802F400320192FE
:10A14000009A01320092019A1AB9009AB2F5A06FF2
:10A15000F2D11A6812F4003218BF01220192019A5A
:10A16000012A05D01E4B4FF000629A6002B0704782
:10A170001C4A116841F010011160116821F00301BF
:10A180001160116841F0020111605A685A605A6802
:10A190005A605A6842F480625A605A6822F47C120B
:10A1A0005A605A6842F4E8125A601A6842F08072A3
:10A1B0001A601968084A8901FBD5516821F003012A
:10A1C0005160516841F0020151605A6802F00C027E
:10A1D000082AFAD1C6E700BF001002400000FFF8CD
:10A1E00000ED00E00020024008B50120FFF7E0FE8E
:10A1F000064B01221A60064A0020064918601060CA
:10A200004FF4E0520A801A6008BD00BF405C004075
:10A21000445C004014150020064B1A6892B242F0CC
:10A2200008021A601A6892B242F004021A60FFF73C
:10A23000ABBE00BF405C004010B5064C4FF6FB7350
:10A24000226813402360FFF7A5FE4FF43F432360CD
:10A2500010BD00BF405C004010B51E4C072818BF61
:10A2600020702378052B32D8DFE803F003060A0EAE
:10A270001621FFF7E1FF2AE0FFF7DEFF042327E0C6
:10A2800002236370032323E06378013BDBB2637036
:10A290006378F3B9042217E00F4B1A6892B242F0C8
:10A2A00010021A60052323700A23637010BD6378BF
:10A2B000013BDBB2637063785BB9074A4FF6EF731B
:10A2C00011680B4013600622024B1A7010BD062362
:10A2D000237010BDE0140020405C0040F8B5074634
:10A2E00072B63F4B53F830404FF47F00FFF7FEFB50
:10A2F000E720FFF76FFC3B4B13B13B48AFF3008007
:10A30000E720FFF775FC022500F088FB03262046B6
:10A31000FFF7ECFBE720FFF75DFC3448FFF798FA06
:10A32000013EE720FFF764FCB6B23148FFF790FA30
:10A33000002EECD12E48FFF78BFA03262046FFF7BC
:10A34000D5FBE720FFF746FC2A48FFF781FA013EDC
:10A35000E720FFF74DFCB6B22548FFF779FA002E4B
:10A36000ECD12348FFF774FA03262046FFF7BEFB23
:10A37000E720FFF72FFC1D48FFF76AFA013EE720B0
:10A38000FFF736FCB6B21A48FFF762FA002EECD19E
:10A390001948FFF75DFA3E468EB12046FFF7A6FB4F
:10A3A000E720FFF717FC1348FFF752FAE720FFF703
:10A3B0001FFC013E0F48FFF74BFAB6B2ECE70F481F
:10A3C000FFF746FA013D9FD1BFF34F8F0C4A0D4B6B
:10A3D000D16801F4E0610B43D360BFF34F8FFEE718
:10A3E000F4DC00080000000098DD0008F0490200DD
:10A3F000A0860100E0930400A0BB0D0000350C0016
:10A4000000ED00E00400FA0540F0BF60024B40F4AC
:10A410000030D860704700BF00ED00E0C27810B592
:10A420000378FAB1154A4478D26803F16043D24305
:10A43000C2F30222C2F1040104FA01F10F2424FA4A
:10A4400002F2847803F5614322400A431201D2B23A
:10A4500083F8002303780122590903F01F0302FA4D
:10A4600003F306E05909012203F01F0302FA03F384
:10A470002031034A42F8213010BD00BF00ED00E05A
:10A4800000E100E021F0604121F07F01014B084331
:10A490009860704700ED00E043680A6823F4702379
:10A4A00023F4807313430A7910B543EA022343600F
:10A4B0008A68CB6884681A43084B234013434A795F
:10A4C00043EA420383600B7CC26A013B22F47002C0
:10A4D000DBB242EA0353C36210BD00BFFDF7F1FFD8
:10A4E000836811B143F0010301E023F001038360AD
:10A4F0007047836811B143F4807301E023F48073E3
:10A5000083607047836843F0080383607047806806
:10A51000C0F3C0007047836843F004038360704752
:10A520008068C0F380007047836811B143F4A003D2
:10A5300001E023F4A00383607047092970B50DD9A9
:10A54000A1F10A0404EB44040725A540A340C66812
:10A5500026EA050545EA0304C4600BE001EB41046B
:10A560000725A54003FA04F4066926EA050545EA2D
:10A5700004030361062A0CD8013A02EB82021F236E
:10A58000934001FA02F2446B24EA03031A43426344
:10A5900070BD0C2A0CD8073A02EB82021F239340AD
:10A5A00001FA02F2046B24EA03031A43026370BD4A
:10A5B0000D3A02EB82021F23934001FA02F2C46AB1
:10A5C00024EA03031A43C26270BD836811B143F4E5
:10A5D000801301E023F480138360704782B000236E
:10A5E0000193044B0193019B18440190019B196056
:10A5F00002B07047006C004082B000230193054B0D
:10A600000193019B18440190019B188880B202B00D
:10A61000704700BF006C004002684FF6FE731340A5
:10A6200003600023036043608360C3602A4B984249
:10A6300022D02A4B984229D0294B984230D0294B1E
:10A64000984237D0284B98423ED0284B984206D1AA
:10A6500053F8682C42F4700243F8682C7047244B7E
:10A66000984206D153F87C2C42F0706243F87C2C5F
:10A670007047204B984206D153F8042C42F00F0249
:10A6800043F8042C70471C4B984206D153F8182C01
:10A6900042F0F00243F8182C7047184B984206D14C
:10A6A00053F82C2C42F4706243F82C2C7047144B56
:10A6B000984206D153F8402C42F4704243F8402CA3
:10A6C0007047104B984205D153F8542C42F4702235
:10A6D00043F8542C704700BF080002401C000240A1
:10A6E0003000024044000240580002406C0002402A
:10A6F00080000240080402401C0402403004024072
:10A7000044040240580402408A6810B50C6A036889
:10A7100014430A6923F4FF4314434A6923F0700386
:10A7200014438A691443CA6914434A6A14438A6AFF
:10A73000224313430360CB6843600B6883604B681C
:10A74000C36010BD19B1036843F0010303E0026860
:10A750004FF6FE731340036070474160704700007E
:10A76000C3004CBF034B044B1B6803420CBF0020CB
:10A77000012070470004024000000240C3004CBFAB
:10A78000014B024B58607047000402400000024039
:10A79000837930B50168027943B3194BCC431D6806
:10A7A00002F1804225401D605D6802F582322C4036
:10A7B0005C6014682143116002689C68D1430C40BE
:10A7C0009C60DC682140D9604179102906D19968E4
:10A7D00011439960D9680A43DA6030BD01F18043C2
:10A7E00003F5823319680A431A6030BD02F18043D1
:10A7F00003F582331A6822EA0101196030BD00BFF7
:10A8000000040140014B5861704700BF0004014043
:10A81000054B1A685B69034004D010420CBF00204E
:10A82000012070471846704700040140014B5861F1
:10A83000704700BF00040140034B044A5A6002F114
:10A8400088325A60704700BF0020024023016745EC
:10A85000084BDA68D10709D4DA68520708D4DB68F4
:10A8600013F0100F0CBF0420032070470120704725
:10A87000022070470020024010B50446FFF7E8FFB1
:10A88000012806D11CB1FFF7E3FF013CF8E70520E2
:10A8900010BD002C08BF052010BD000038B50546CE
:10A8A0004FF43020FFF7E8FF042812D1094C4FF491
:10A8B0003020236943F0020323616561236943F07B
:10A8C00040032361FFF7D8FF226941F6FD7313406F
:10A8D000236138BD0020024070B505464FF400509A
:10A8E0000E46FFF7C9FF04280ED1084C4FF4005064
:10A8F000236943F0010323612E80FFF7BDFF226926
:10A9000041F6FE731340236170BD00BF002002407A
:10A91000CB78F0B5DA0648BF8A78098803F00F05CE
:10A9200048BF154311F0FF0F1DD004680022012716
:10A93000974007EA0106BE4211D197004FF00F0C75
:10A940000CFA07FC05FA07F724EA0C04282B44EA62
:10A95000070401D1466102E0482B08BF06610132BD
:10A96000082AE4D10460FF291FD94468002202F1BB
:10A9700008060127B74007EA0106BE4211D1970039
:10A980004FF00F0C0CFA07FC05FA07F724EA0C0449
:10A99000282B44EA070401D1466102E0482B08BF96
:10A9A00006610132082AE2D14460F0BD8368194291
:10A9B0000CBF002001207047C36819420CBF002063
:10A9C00001207047016170474161704701F0030346
:10A9D0009B000F229A40984001F0FC0101F1804158
:10A9E00001F5803110B58C6824EA02028A608A6819
:10A9F00002438A6010BD0000014B1860704700BF21
:10AA000000300040014B5860704700BF00300040EC
:10AA1000014B9860704700BF00300040024B4AF67F
:10AA2000AA221A60704700BF00300040024B4CF66B
:10AA3000CC421A60704700BF00300040014B1860E4
:10AA4000704700BF20000E42074B1A6842F0040214
:10AA50001A601A6842F002021A60044B1A6942F046
:10AA600004021A6130BF70470070004000ED00E042
:10AA7000034B5B6818420CBF00200120704700BFE9
:10AA800000700040024B1A6842EA8000186070476C
:10AA900000700040034B5A6822F440421043586053
:10AAA000704700BF00100240064B002201281A70B8
:10AAB0001A7002D0042802D070471870704705221F
:10AAC0001A70704720100240024B1A6A1043186235
:10AAD000704700BF00100240014B1860704700BF74
