:020000040800F2
:105000000050002091780008D5710008D771000881
:10501000E1710008EB710008F57100080000000064
:10502000000000000000000000000000FF71000808
:1050300001720008000000000372000805720008F9
:10504000E5780008E5780008E5780008697400084C
:10505000E5780008E5780008757200089572000888
:10506000B5720008E972000809730008E5780008C5
:10507000E5780008E5780008E5780008C5740008C0
:10508000E5780008E578000815720008E578000862
:10509000C9740008E5780008E5780008297300085D
:1050A000E5780008E5780008E5780008F173000865
:1050B00039740008497400085974000845720008E2
:1050C00055720008E5780008E57800086572000868
:1050D000E57800082572000835720008E5780008B8
:1050E0007973000891740008E5780008000000005A
:1050F00000000000000000000000000000000000B0
:0C51000000000000000000005FF808F153
:1051100081F0004102E000BF83F0004330B54FEA68
:1051200041044FEA430594EA050F08BF90EA020FD5
:105130001FBF54EA000C55EA020C7FEA645C7FEA68
:10514000655C00F0E2804FEA5454D4EB5555B8BF8B
:105150006D420CDD2C4480EA020281EA030382EAFC
:10516000000083EA010180EA020281EA0303362D8E
:1051700088BF30BD11F0004F4FEA01314FF4801C61
:105180004CEA113102D0404261EB410113F0004F73
:105190004FEA03334CEA133302D0524263EB43032A
:1051A00094EA050F00F0A780A4F10104D5F1200EC8
:1051B0000DDB02FA0EFC22FA05F2801841F1000123
:1051C00003FA0EF2801843FA05F359410EE0A5F1F7
:1051D00020050EF1200E012A03FA0EFC28BF4CF028
:1051E000020C43FA05F3C01851EBE37101F00045DE
:1051F00007D54FF0000EDCF1000C7EEB00006EEBEB
:105200000101B1F5801F1BD3B1F5001F0CD3490874
:105210005FEA30004FEA3C0C04F101044FEA4452CB
:1052200012F5800F80F09A80BCF1004F08BF5FEA52
:10523000500C50F1000041EB045141EA050130BD32
:105240005FEA4C0C404141EB010111F4801FA4F1D5
:105250000104E9D191F0000F04BF01460020B1FA2A
:1052600081F308BF2033A3F10B03B3F120020CDA62
:105270000C3208DD02F1140CC2F10C0201FA0CF040
:1052800021FA02F10CE002F11402D8BFC2F1200CA5
:1052900001FA02F120FA0CFCDCBF41EA0C0190405B
:1052A000E41AA2BF01EB0451294330BD6FEA0404A4
:1052B0001F3C1CDA0C340EDC04F11404C4F120028F
:1052C00020FA04F001FA02F340EA030021FA04F3A1
:1052D00045EA030130BDC4F10C04C4F1200220FAF8
:1052E00002F001FA04F340EA0300294630BD21FA36
:1052F00004F0294630BD94F0000F83F4801306BFFC
:1053000081F480110134013D4EE77FEA645C18BFEF
:105310007FEA655C29D094EA050F08BF90EA020F86
:1053200005D054EA000C04BF1946104630BD91EA7E
:10533000030F1EBF0021002030BD5FEA545C05D181
:105340004000494128BF41F0004130BD14F58004C0
:105350003CBF01F5801130BD01F0004545F0FE4134
:1053600041F470014FF0000030BD7FEA645C1ABF69
:10537000194610467FEA655C1CBF0B46024650EAA0
:10538000013406BF52EA033591EA030F41F40021CC
:1053900030BD00BF90F0000F04BF0021704730B552
:1053A0004FF4806404F132044FF000054FF0000127
:1053B00050E700BF90F0000F04BF0021704730B5E8
:1053C0004FF4806404F1320410F0004548BF4042BD
:1053D0004FF000013EE700BF42004FEAE2014FEA12
:1053E00031014FEA02701FBF12F07F4393F07F4FED
:1053F00081F06051704792F0000F14BF93F07F4F1F
:10540000704730B54FF4607401F0004521F0004161
:1054100020E700BF50EA010208BF704730B54FF0E7
:1054200000050AE050EA010208BF704730B511F0EC
:10543000004502D5404261EB41014FF4806404F124
:1054400032045FEA915C3FF4DCAE4FF003025FEAA6
:10545000DC0C18BF03325FEADC0C18BF033202EB2E
:10546000DC02C2F1200300FA03FC20FA02F001FA88
:1054700003FE40EA0E0021FA02F11444C1E600BF27
:1054800070B54FF0FF0C4CF4E06C1CEA11541DBFDA
:105490001CEA135594EA0C0F95EA0C0F00F0DEF8A5
:1054A0002C4481EA030621EA4C5123EA4C5350EA8A
:1054B000013518BF52EA033541F4801143F48013DB
:1054C00038D0A0FB02CE4FF00005E1FB02E506F06C
:1054D0000042E0FB03E54FF00006E1FB03569CF0C1
:1054E000000F18BF4EF0010EA4F1FF04B6F5007FC7
:1054F00064F5407404D25FEA4E0E6D4146EB060639
:1055000042EAC62141EA55514FEAC52040EA5E50C1
:105510004FEACE2EB4F1FD0C88BFBCF5E06F1ED86B
:10552000BEF1004F08BF5FEA500E50F1000041EBA2
:10553000045170BD06F0004646EA010140EA02004F
:1055400081EA0301B4EB5C04C2BFD4EB0C0541EA71
:10555000045170BD41F480114FF0000E013C00F386
:10556000AB8014F1360FDEBF002001F0004170BDAA
:10557000C4F10004203C35DA0C341BDC04F11404C3
:10558000C4F1200500FA05F320FA04F001FA05F24F
:1055900040EA020001F0004221F0004110EBD3701C
:1055A00021FA04F642EB06015EEA430E08BF20EA48
:1055B000D37070BDC4F10C04C4F1200500FA04F3EB
:1055C00020FA05F001FA04F240EA020001F000417D
:1055D00010EBD37041F100015EEA430E08BF20EAF0
:1055E000D37070BDC4F1200500FA05F24EEA020E38
:1055F00020FA04F301FA05F243EA020321FA04F067
:1056000001F0004121FA04F220EA020000EBD3701D
:105610005EEA430E08BF20EAD37070BD94F0000F1D
:105620000FD101F00046400041EB010111F4801F51
:1056300008BF013CF7D041EA060195F0000F18BF02
:10564000704703F00046520043EB030313F4801F3E
:1056500008BF013DF7D043EA0603704794EA0C0FF8
:105660000CEA135518BF95EA0C0F0CD050EA41060E
:1056700018BF52EA4306D1D181EA030101F000418B
:105680004FF0000070BD50EA410606BF10461946B3
:1056900052EA430619D094EA0C0F02D150EA0136BF
:1056A00013D195EA0C0F05D152EA03361CBF104600
:1056B00019460AD181EA030101F0004141F0FE419F
:1056C00041F470014FF0000070BD41F0FE4141F423
:1056D000780170BD70B54FF0FF0C4CF4E06C1CEA23
:1056E00011541DBF1CEA135594EA0C0F95EA0C0FD8
:1056F00000F0A7F8A4EB050481EA030E52EA033593
:105700004FEA013100F088804FEA03334FF08055B3
:1057100045EA131343EA12634FEA022245EA1115E0
:1057200045EA10654FEA00260EF000419D4208BF91
:10573000964244F1FD0404F5407402D25B084FEA3E
:105740003202B61A65EB03055B084FEA32024FF4EA
:1057500080104FF4002CB6EB020E75EB030E22BF47
:10576000B61A754640EA0C005B084FEA3202B6EB07
:10577000020E75EB030E22BFB61A754640EA5C00B6
:105780005B084FEA3202B6EB020E75EB030E22BF46
:10579000B61A754640EA9C005B084FEA3202B6EB47
:1057A000020E75EB030E22BFB61A754640EADC0006
:1057B00055EA060E18D04FEA051545EA16754FEA68
:1057C00006164FEAC30343EA52734FEAC2025FEA86
:1057D0001C1CC0D111F4801F0BD141EA00014FF015
:1057E00000004FF0004CB6E711F4801F04BF0143E6
:1057F0000020B4F1FD0C88BFBCF5E06F3FF6AFAE02
:10580000B5EB030C04BFB6EB020C5FEA500C50F191
:10581000000041EB045170BD0EF0004E4EEA113114
:1058200014EB5C04C2BFD4EB0C0541EA045170BD1B
:1058300041F480114FF0000E013C90E645EA060E5F
:105840008DE60CEA135594EA0C0F08BF95EA0C0F8D
:105850003FF43BAF94EA0C0F0AD150EA01347FF4D5
:1058600034AF95EA0C0F7FF425AF104619462CE7AC
:1058700095EA0C0F06D152EA03353FF4FDAE10460F
:10588000194622E750EA410618BF52EA43067FF460
:10589000C5AE50EA41047FF40DAF52EA43057FF4F0
:1058A000EBAE12E74FF0FF3C06E000BF4FF0010CFB
:1058B00002E000BF4FF0010C4DF804CD4FEA410C5F
:1058C0007FEA6C5C4FEA430C18BF7FEA6C5C1BD02C
:1058D00001B050EA410C0CBF52EA430C91EA030FAD
:1058E00002BF90EA020F0020704710F1000F91EA0A
:1058F000030F58BF994208BF90422CBFD8176FEAD8
:10590000E37040F0010070474FEA410C7FEA6C5CA5
:1059100002D150EA013C07D14FEA430C7FEA6C5CAC
:10592000D6D152EA033CD3D05DF8040B704700BFD8
:105930008446104662468C461946634600E000BF26
:1059400001B5FFF7B7FF002848BF10F1000F01BDF8
:105950004DF808EDFFF7F4FF0CBF012000205DF8C3
:1059600008FB00BF4DF808EDFFF7EAFF34BF012048
:1059700000205DF808FB00BF4DF808EDFFF7E0FFE1
:1059800094BF012000205DF808FB00BF4DF808ED32
:10599000FFF7CEFF94BF012000205DF808FB00BF99
:1059A0004DF808EDFFF7C4FF34BF012000205DF87B
:1059B00008FB00BF4FEA410212F5001215D211D5C3
:1059C0006FF47873B3EB625212D94FEAC12343F0FC
:1059D000004343EA505311F0004F23FA02F018BF7E
:1059E000404270474FF00000704750EA013005D147
:1059F00011F0004008BF6FF0004070474FF000000A
:105A0000704700BF014B0360704700BF50C50008DE
:105A100010B5034B0446036000F0B2FC204610BDF5
:105A200050C5000838B504460D468088002100F0B6
:105A30009BFD2089002100F097FD284601F076F9B2
:105A4000A0880121BDE8384000F08EBD38B50025A2
:105A500080E80E00044605734573012001F018F933
:105A6000102001F055F9284601F024F901F00CF955
:105A70002088294600F0F2FCA088294600F0EEFCC0
:105A80002089294600F0EAFCA088012100F06CFD85
:105A90002089012100F068FD2088012100F064FDCB
:105AA0004FF47A7001F040FF2946208800F05CFD39
:105AB00042F2107001F038FF2088012100F054FDFF
:105AC0002046AE21FFF7AEFF2046D521FFF7AAFF03
:105AD00020468021FFF7A6FF2046A821FFF7A2FF5E
:105AE00020461F21FFF79EFF2046D321FFF79AFF94
:105AF00020462946FFF796FF20464021FFF792FFF8
:105B000020462021FFF78EFF20462946FFF78AFF17
:105B10002046A121FFF786FF2046C821FFF782FF1C
:105B20002046DA21FFF77EFF20460221FFF77AFFA9
:105B300020468121FFF776FF20468F21FFF772FF75
:105B40002046D921FFF76EFF2046F121FFF76AFFBB
:105B50002046DB21FFF766FF20464021FFF762FF6A
:105B60002046A421FFF75EFF2046A621FFF75AFF3B
:105B700020468D21FFF756FF20461421FFF752FFE4
:105B80002046AF21BDE83840FFF74CBF38B5202193
:105B90000446FFF747FF20460021FFF743FF20465A
:105BA0002121FFF73FFF20460021FFF73BFF204662
:105BB0007F21FFF737FF20462221FFF733FF2046E2
:105BC0000021FFF72FFF20460321FFF72BFF20893D
:105BD000012100F0C9FCA088002100F0C5FC4FF4B1
:105BE0000075013D0020ADB201F0A0F8002DF8D104
:105BF000A0880121BDE8384000F0B6BC01734273B3
:105C00007047000070B5274E057B01EB810104460B
:105C10000E4405EB45052021FFF704FF6D002046EB
:105C20000121EDB2FFF7FEFE20462121FFF7FAFE2B
:105C300029462046FFF7F6FE691D2046C9B2FFF748
:105C4000F1FE20462221FFF7EDFE2046617BFFF7A3
:105C5000E9FE2046617BFFF7E5FE2089012100F087
:105C600083FCA088002100F07FFC0025705D0135D9
:105C700001F05CF8052DF9D1A088012100F074FC39
:105C8000237B0133DBB2142B237304D9637B0133F1
:105C9000637300232373637B032B84BF002363732D
:105CA00070BD00BFFABF0008F8B5064608460D46AD
:105CB00004F042FD00240746BC4205DA295D304667
:105CC000FFF7A0FF0134F7E7F8BD000013B5084C5B
:105CD000002100910A460B46204600F0A3FE05492C
:105CE000054A204602B0BDE8104004F0D1BB00BF19
:105CF00038040020055A0008DC110020C0B202F070
:105D000071BA02F02FBA00002DE9F843104E0124B9
:105D100015468046894600201F46346002F0E8F9A7
:105D2000204649462A4602F079F9002041462A4693
:105D300002F074F907480221224602F0F6FD2046DF
:105D400002F0D6F917B93368012BFCD0BDE8F8830F
:105D5000400400205800024008B538B10020014638
:105D600000F002FCBDE8084002F052BA012100F048
:105D7000FBFBBDE8084002F0CBB90000044B4FF438
:105D8000807208B15A607047C3F88420704700BF22
:105D900000E100E008B50C4B00241C8002F0D8FAAA
:105DA0002146282002F002FD204602F09BFABFF3B4
:105DB0004F8F064A064BD16801F4E0610B43D36074
:105DC000BFF34F8FFEE700BF7403002000ED00E03B
:105DD0000400FA050A4B10B55A681C4601325A6095
:105DE0000848802103F08DF820B14FF4083002F00C
:105DF000A5FDF5E720600448BDE8104004F056B961
:105E000040040020003800404804002010B5012064
:105E1000094C014600F0A8FB04F1080004F0B6F9B3
:105E2000D4F8003C01200133C4F8003C0021BDE857
:105E3000104000F099BB00BF4004002038B5254851
:105E40004FF4E13101F09EF90720002100F006FB3C
:105E50000720002100F088FB002001461E4C00F0C6
:105E6000FDFA0120002100F0F9FA0020012100F0E4
:105E70007BFB04F604450320002100F075FB06239C
:105E8000022203212846FFF7E1FD2846FFF77EFEA8
:105E900028461249FFF708FF284600210122FFF794
:105EA000ADFE02F03DF902F067F902F0EBF80C4BA1
:105EB000C4F8143C0B4BC4F8183C0B4BC4F81C3C06
:105EC0000A4BC4F8203C0A4BC4F8243C094BC4F8E4
:105ED000283C38BD702000204004002048C700083E
:105EE00029790008FD5C0008035D00087D5D00085D
:105EF000595D0008095D000813B5084C00210091A8
:105F00000A460B46204600F08DFD0549054A20460D
:105F100002B0BDE8104004F0BBBA00BF6C10002016
:105F2000055A0008DC11002010B500F063FB0146A3
:105F3000194804F0C9F9044640B11849184800F05E
:105F4000C2FD174821460A2200F00EFE144801F057
:105F500005F900B3124801F0FFF8032801460AD002
:105F6000042812D10F48FFF711FE0E480E49FFF723
:105F70009BFEFFF70FFF0B48FFF708FEBDE8104040
:105F8000002108480A46FFF739BE0648C9B2BDE8F5
:105F90001040FFF737BE10BD480400205AC7000864
:105FA00070200020441000206CC70008013101EB74
:105FB000420291420BD0030F092B94BF3033373389
:105FC00001F8013C0023000101F8023BF1E77047B2
:105FD0001C4B10B51A88032A04D8042001461880E7
:105FE00002F0E4FB4FF000604FF4A04102F0D4FB5C
:105FF0000124154B154821461C7002F0CFFD01F01D
:1060000055FF01F075FC2146402002F07FFE6FF045
:106010007F4001F0D5FDE72001F046FE0C4B1C70DF
:1060200001F0A8FC7D2002F095FE18B1094B1C7010
:1060300002F0A4FE40F6B83001F0F6FCBDE81040D6
:1060400002F05EB9D8200020B62000200004300005
:1060500078100020F020002038B5184C2388042B3D
:1060600004D805212180042002F0A0FB144D6B7898
:10607000012B0ED0134B63B12388062B05D80F4B91
:1060800007210420198002F091FBFFF7D7FE0123BE
:106090006B700D4B002BE9D02388072B05D8074BDD
:1060A00008210420198002F081FBFFF73DFF2388BF
:1060B000082BDBD8014B09211980D4E7D820002018
:1060C000781000203D5E0008295F00081D4B10B5C8
:1060D0001A6812B11A68013A1A601B4B1B782BB16F
:1060E0001A4B1B7883B11A4B3BBB0DE0194C23684C
:1060F00013B12368013B06E0174B1B7823B1E7205F
:1061000001F01AFE14232360144B1A68B2F57A7F4B
:106110000FD300221A6002F099FD114B4FF6FF7168
:106120001A888A420CD0BDE810400420198002F081
:106130003DBB1A6801321A6010BD00F047F9E3E771
:1061400010BD00BFF8200020B02000201014002057
:10615000CD630008F420002078100020FC200020EF
:10616000D820002008B5094B186002F06FF8002015
:1061700002F0B8F8064801F0D7FB02F07FF802F011
:106180009DF8BDE8084003F0DFBC00BF9C02002082
:10619000A0860100074B1B68052B08D1064B9A7897
:1061A000012A04D118799B79C01AC0B27047002027
:1061B000704700BFDC200020781000200D4B10B588
:1061C0001B68052B13D10C4CA378012B0FD1A2888F
:1061D000E388D31A012B04D100230320A37003F01A
:1061E0000AFEE3885A1CE2801C44207A10BD4FF05E
:1061F000FF3010BDDC2000207810002008B50C4BCB
:106200001B68052B12D10B4B9A6C99180132B2F511
:10621000807F08BF002281F84C009A6401F0A2FF41
:1062200020B16420BDE8084001F07EBB08BD00BF7E
:10623000DC20002078100020F8B5234B93F84C2187
:10624000012A3FD0D3F85021996CB2F5807F04BF6A
:106250000022C3F85021D3F850411B4A8C4203D18D
:10626000002382F84C31F8BD8CBFC4F58071C4EBBB
:106270000101C2F85411D3F85461134D402EA2B25B
:1062800007D94034403EC5F85041C5F85461402715
:1062900006E034440021B7B2C5F85041C5F85411A6
:1062A0000A4801241044C0213A4683F84C4103F0C7
:1062B0001DFD2046394603F021FE2046BDE8F8408A
:1062C00003F086BDF8BD00BF78100020C410002088
:1062D000094B10B593E8140008331B68D0180AD096
:1062E00006490822FFF762FE204605490422BDE860
:1062F0001040FFF75BBE10BDE8F7FF1F4A02002009
:106300005A02002013B5084C002100910A460B46A2
:10631000204600F087FB0549054A204602B0BDE84B
:10632000104004F0B5B800BFD0110020055A000895
:10633000DC11002038B504460D46AC4203D254F8B7
:10634000043B9847F9E738BD08B507480749FFF708
:10635000F1FF07480749FFF7EDFFBDE80840064891
:106360000649FFF7E7BF00BF04C9000804C90008D9
:1063700004C9000848C9000848C9000848C90008FD
:1063800004F0D4B808B5072002F032F9FEE70000A7
:10639000074A08B5136818441060064A904204D9A9
:1063A000082002F025F904F0A1F8184608BD00BF46
:1063B00000000020004800204FF0FF30704701200F
:1063C000704708B50C2002F013F9FEE738B5114C00
:1063D000D4F8585B2DB1D4F8583B013BC4F8583B76
:1063E00038BDD4F85C3B0C4A52F8230001F010FC95
:1063F000E72001F059FC6423084AC4F8583BD4F85C
:106400005C3B126801339342C4F85C3BA8BFC4F8FC
:106410005C5B38BDE0110020F8C4000804000020D7
:1064200037B50B4C002104F537650B4600910A4641
:10643000284600F0F7FA28460649074A04F028F8EB
:1064400004F50D7003B0BDE8304003F0ABBD00BFF4
:10645000E0110020055A0008DC11002014282DE965
:10646000F34104460E4675D8FF2973D000F078FC3E
:1064700018B1A4F10D03022B6CD900F067FA08B132
:10648000012C67D900F026FE18B1A4F11203012BEC
:1064900060D918236343314DEA18EF58304BB2F8F6
:1064A00004809F4201D1042003E02E4B9F4203D180
:1064B0000820012102F036FCADF80480062E45D8F4
:1064C000DFE806F0040F171F27313C0010238DF87A
:1064D000073003238DF80630182303FB04540023F0
:1064E00033E004238DF80730182303FB0454012301
:1064F0002BE048238DF80730182303FB04540223B4
:1065000023E028238DF80730182303FB04540323CA
:106510001BE0182303228DF8073003FB04548DF889
:106520000620042311E01C238DF8073003238DF887
:106530000630182303FB0454052306E000238DF8DE
:106540000730182303FB04540623A373384601A91C
:1065500002F0CCFA02B0BDE8F08100BF0C000020D0
:1065600000080140000C0140142870B504460E4696
:106570003CD81F4D182303FB00539B7B5A1E022A55
:1065800034D9062B32D0FF2B30D000F0E9FB20B1FC
:10659000A4F10D03022B00D870BD00F0D7F910B1A3
:1065A000012C00D870BD00F095FD20B1A4F11203BC
:1065B000012B00D870BD182303FB04539B7B042BD5
:1065C00003D120460021FFF749FF012E06D11823F1
:1065D0005C432A192B5992881A6170BD36B9182369
:1065E0005C432A192B5992885A6170BD70BD00BF57
:1065F0000C00002001F002BF13B5084C00210091EF
:106600000A460B46204600F00DFA0549054A204689
:1066100002B0BDE8104003F03BBF00BF841D002066
:10662000055A0008DC11002038B5184B05461C88B7
:1066300003F580631B88A4B29BB22BB94EF6EE62C1
:10664000A21A18BF012205E0F4B94EF6EE629B1AB9
:106650005A425A4192020E4B02F1006404F5804402
:1066600013449C420ED22268013209D1204602F026
:1066700021FA042809D1A01C294602F01BFA38BDD2
:106680000434EEE7802038BDAB2038BD0040000860
:10669000FE43000808B5084802F0EEF904280AD1C4
:1066A0000548002102F006FA042804D1BDE808409C
:1066B000024802F0E1B908BD0040000800440008AB
:1066C000104B10B51C8803F580631B88A4B29BB2E5
:1066D0001CB10BB1AB2010BD01240B4BA402234411
:1066E0000A4A224493420AD91A8892B2824204D1B9
:1066F00033F8023C00200B8010BD043BF0E7012082
:1067000010BD00BF00400008FE4300080240000822
:10671000F8B5444E02F070F9434D34884EF6EE6100
:10672000A4B22B888C429BB24FF6FF7210D09442D9
:1067300002D0002C73D142E00BB930466CE08B42A2
:106740006DD1304602F098F904286AD1284632E02B
:106750004BBB1C461646354B354A1B8832F8145045
:106760009BB2AB4208BFA6B233B29C4203D1013404
:10677000642CF0D10FE02E4F284607F1C801FFF737
:106780009FFF0128F3D02846B7F8C810FFF74CFF49
:106790000428ECD0F8BD2348002102F08BF904282E
:1067A0003FD1214838E0934239D1284602F064F9BC
:1067B000042836D13046002102F07CF9F8BD73B3CD
:1067C000934201D1284627E016461A4B184A1B88E7
:1067D00032F814509BB2AB4208BFA6B233B29C420F
:1067E00003D10134642CF0D10FE0114F284607F19A
:1067F000C801FFF765FF0128F3D02846B7F8C81095
:10680000FFF712FF0428ECD0F8BD0748002102F082
:1068100051F9042805D1034802F02EF9F8BDFFF71D
:1068200039FFF8BD00400008004400080640000899
:106830008C1D00200644000810B50446FFF768FFD1
:106840000023044A22F813300133642BF9D1204687
:1068500010BD00BF8C1D00200148FFF7EDBF00BF39
:10686000561E0020024B18785B78C01A704700BF94
:10687000581E0020064B5A781978914204D999186D
:10688000013288785A7070474FF0FF30704700BF70
:10689000581E0020044B5A781978914286BF9B18E5
:1068A00098784FF0FF307047581E00207047000066
:1068B000014B0360704700BF68C5000810B5034B6B
:1068C00004460360FFF75CFD204610BD68C5000864
:1068D000F8B5094B054693F82230164653B10C46DD
:1068E0008F18BC4206D02B6828469B6814F8011B01
:1068F0009847F6E73046F8BD581E002010B50C4BFF
:10690000012293F822408CB193F823401F2C02D926
:106910004260002010BD93F824001C1884F8251054
:10692000411CC9B283F8241083F82310104610BD0F
:10693000581E0020002242604FF47A728260014AA1
:106940000260704728C5000870477047014B93F8F4
:1069500059007047581E002073B50E4C002104F1F9
:1069600064050D4E0B4600910A46284600F05AF881
:106970006C3432460949284603F08AFD2046FFF769
:10698000D9FF07492046324602B0BDE8704003F007
:106990007FBD00BF581E0020DC110020055A0008F2
:1069A000B168000808B5034B53F8203003B198478D
:1069B00008BD00BFD41E002013B5084C0021009173
:1069C0000A460B46204600F02DF80549054A2046A8
:1069D00002B0BDE8104003F05BBD00BF141F0020F3
:1069E000055A0008DC1100202DE9F041002407467B
:1069F0000E4625463B1919790A22304600F0CAF89E
:106A00002E218046304600F062F801344044032CC9
:106A10000544EFD13046F9790A2200F0BBF828444A
:106A2000BDE8F08130B58371034D9DF80C300560F1
:106A300001714271C37130BD50C500080548064B55
:106A400006490360064A0023037143718371C371D1
:106A500003F01EBD1C1F002050C50008055A000889
:106A6000DC110020014B0360704700BF68C50008BF
:106A7000F8B506460C468F180025BC4207D033688F
:106A800030469B6814F8011B98470544F5E72846F3
:106A9000F8BD000010B5034B04460360FFF770FC1F
:106AA000204610BD68C5000838B505460C460846A6
:106AB00041B103F041FE2B680246DB6828462146BF
:106AC000984738BD38BD08B5FFF7EEFF08BD08B5DB
:106AD00003689B68984708BD38B50D210546FFF748
:106AE000F6FF0A2104462846FFF7F1FF204438BD8F
:106AF00030B500238BB08DF82430012A98BF0A22CC
:106B00000DF12304B1FBF2F303FB1211CDB2092DF9
:106B100094BF30353735EDB2214604F801590BB139
:106B20001946EFE7FFF7C0FF0BB030BDF8B50646DA
:106B30000D46144622B90368C9B29B689847F8BD50
:106B40000A2A0CD100290BDA2D21FFF7C0FF694278
:106B5000074622463046FFF7CBFF3844F8BDD2B295
:106B6000BDE8F840FFF7C4BF38B50446FFF7DEFFC5
:106B700005462046FFF7B0FF284438BD10B522B9BE
:106B80000268C9B29268904710BDD2B2BDE8104009
:106B9000FFF7AEBFFFF7F2BF13B5084C002100911D
:106BA0000A460B462046FFF73DFF0549054A2046A9
:106BB00002B0BDE8104003F06BBC00BF241F0020F2
:106BC000055A0008DC11002013B5084C0021009183
:106BD0000A460B462046FFF725FF0549054A204691
:106BE00002B0BDE8104003F053BC00BF2C1F0020D2
:106BF000055A0008DC110020142810B504463DD8C1
:106C00004FF48050012102F08DF80D200421FFF790
:106C100025FC0F200421FFF721FC0E200121FFF7A6
:106C20001DFC20460021FFF719FC20460121144CD1
:106C3000FFF79AFC00232380A380A37C4FF4827289
:106C400062801BB90223E380012323814FF4007388
:106C50006381E37C13B90A4B08229A81237D0BB927
:106C6000074AD381072307480549238202F010F918
:106C70000448012102F02BF90123637510BD00BF08
:106C8000341F0020003001400C20FFF7B5BF00008A
:106C900010B5064C08B9802300E0002304480349DE
:106CA000E38102F0F5F80123237510BD341F0020A5
:106CB0000030014038B5144C0546637D1BB11348C4
:106CC000002102F004F90123032D0FD8DFE805F0BD
:106CD0000205070B0023E38007E0002204E0022303
:106CE000E380002301E00222E28023810748064975
:106CF00002F0CEF8637D1BB10448012102F0E7F8F1
:106D00000123A37438BD00BF341F002000300140B0
:106D100010B5044CA0812146034802F0B9F80123C4
:106D2000E37410BD341F00200030014010B504464C
:106D30000A48022102F0E5F80028F9D00748214668
:106D400002F0DAF80548012102F0DBF80028F9D05A
:106D5000024802F0D3F8C0B210BD00BF00300140BD
:106D6000014B587D704700BF341F00207047000062
:106D700013B5084C002100910A460B462046FFF748
:106D800051FE0549054A204602B0BDE8104003F017
:106D90007FBB00BF4C1F0020055A0008DC110020FB
:106DA00013B5084C002100910A460B462046FFF718
:106DB00039FE0549054A204602B0BDE8104003F0FF
:106DC00067BB00BF581F0020055A0008DC110020D7
:106DD00038B5184C94F92C305BB394F82D3043B38C
:106DE00001F0F4FF94F82C2094F82D5051B20029B2
:106DF00095FBF1F106DD01290BDC013A84F82C202A
:106E0000002307E0013104DB013284F82C20022347
:106E100000E0012394F82D20013A84F82D20C418B5
:106E200002F006F8204601F0E3FFBDE8384001F02B
:106E3000FFBF38BD601F002013B5084C0021009132
:106E40000A460B462046FFF7EDFD0549054A204658
:106E500002B0BDE8104003F01BBB00BF901F002034
:106E6000055A0008DC11002013B5084C00210091E0
:106E70000A460B462046FFF7D5FD0549054A204640
:106E800002B0BDE8104003F003BB00BF9C1F002010
:106E9000055A0008DC110020014B0360704700BF59
:106EA00068C50008426D836DD01A00F03F0070473E
:106EB000426D836D9A421DBF836DC018007D4FF0F7
:106EC000FF307047426D836D9A4209D0836D826DA9
:106ED00003441B7D013202F03F0282651846704771
:106EE0004FF0FF307047000010B5034B04460360BD
:106EF000FFF746FA204610BD68C5000810B50446E5
:106F0000D4F89C20D4F8A0309A42F9D1237C13B94C
:106F10000023237410BDD4F8A4304021186802F077
:106F2000D4F90028F4D1F1E7D0F8A43070B50446C4
:106F30000E46186840F2277102F0CDF928B9D4F84E
:106F40009C20D4F8A0309A4215D1D4F89C50013539
:106F500005F03F05D4F8A0309D42D4F8A43013D0FA
:106F6000EFF31082D20742D5D4F89C10D4F8A020B9
:106F7000914209D13BE0D4F8A43040F2277118685F
:106F8000012202F082F9E0E7186840F2277102F06E
:106F9000A2F90028DED0D4F8A4308021186802F0CD
:106FA00094F90028D6D0D4F8A43040F2277118689C
:106FB000002202F06AF9D4F8A4301868D4F8A0309E
:106FC0005A1C2344C4F8A02093F85C1002F075F911
:106FD000D4F8A03040F2277103F03F03C4F8A0308A
:106FE000D4F8A4300122186802F04FF9B2E7D4F8BF
:106FF0009C2040F22771224482F85C60C4F89C50C7
:107000000125186825742A4602F03FF9284670BD0C
:1070100010B540F225510446006802F05CF970B1E9
:10702000206802F04EF9E369C0B21A6C596C013263
:1070300002F03F028A4202D0196C58541A64206848
:1070400040F2277102F047F9B8B1A3692068196CC2
:107050005A6C914206D1BDE8104040F227710022DF
:1070600002F013B95A6C511C5964995C02F025F96D
:10707000A3695A6C02F03F025A6410BDF8B54FF490
:107080007A7383600C4B0446002503604560C0F8AA
:10709000A41004F15C07482614308F613246C861A1
:1070A000294603F054FA38462946324603F04FFA8F
:1070B00025742046F8BD00BF80C500080148FFF7D1
:1070C000A7BF00BF080200200148FFF7A1BF00BF13
:1070D00028020020014B187C704700BFA41F00202D
:1070E00073B50E4C002104F114050D4E0B460091B2
:1070F0000A462846FFF796FC1C34324628460949C2
:1071000003F0C6F920460849FFF7B8FF07492046B3
:10711000324602B0BDE8704003F0BAB9A41F0020A7
:10712000DC110020055A000808020020996E0008B2
:1071300070474FF0FF307047014B0360704700BF4E
:1071400068C5000810B5034B04460360FFF718F943
:10715000204610BD68C50008FFF730B808B5FFF736
:1071600019F808BD08B50846FFF748F8012008BD22
:10717000002242604FF47A728260014A02607047D6
:10718000A8C500080846FEF7EDBF000037B50D4C56
:1071900000210D4D0B4600910A462046FFF742FCA8
:1071A0002A460A492046083403F072F92046FFF7C0
:1071B000DFFF074920462A4603B0BDE8304003F010
:1071C00067B900BF68200020DC110020055A0008C4
:1071D00039710008704708B5012001F009FAFEE78F
:1071E00008B5032001F004FAFEE708B5042001F019
:1071F000FFF9FEE708B5052001F0FAF9FEE7704750
:107200007047704708B501F0F1F8BDE80840FEF797
:107210005DBF000008B5024B0BB1AFF3008008BDA5
:107220000000000008B5024B0BB1FFF74DFF08BD91
:10723000C970000808B5024B0BB1FFF73FFF08BD4E
:10724000BD70000808B5024B0BB1FFF77DFB08BD10
:107250004969000808B5024B0BB1FFF776FB08BD82
:107260004B69000808B5024B0BB1FFF77FFD08BD65
:107270006D6D000808B5012001F0AAFB38B10120AE
:1072800001F0B4FB024B13B10020FFF78BFB08BDEC
:10729000A569000808B5022001F09AFB38B1022068
:1072A00001F0A4FB024B13B10120FFF77BFB08BDEB
:1072B000A569000808B5042001F08AFB78B1042014
:1072C00001F094FB0020064B0146188000F07AFD87
:1072D000BDE8084003481021012201F08EBF08BD1F
:1072E000B2200020002C014008B5082001F070FBFE
:1072F00038B1082001F07AFB024B13B10320FFF7ED
:1073000051FB08BDA569000808B5102001F060FB1D
:1073100038B1102001F06AFB024B13B10420FFF7D3
:1073200041FB08BDA569000808B5202001F050FB0D
:1073300038B1202001F05AFB0E4B13B10520FFF7A6
:1073400031FB402001F044FB38B1402001F04EFBFE
:10735000084B13B10620FFF725FB802001F038FB16
:1073600038B1802001F042FB024B13B10720FFF738
:1073700019FB08BDA569000808B54FF4005001F0DD
:1073800027FB40B14FF4005001F030FB174B13B115
:107390000D20FFF707FB4FF4804001F019FB40B1CF
:1073A0004FF4804001F022FB104B13B10E20FFF789
:1073B000F9FA4FF4004001F00BFB40B14FF40040EC
:1073C00001F014FB094B13B10F20FFF7EBFA4FF458
:1073D000006001F0FDFA38B14FF4006001F006FBE7
:1073E000BDE80840FEF712BD08BD00BFA569000852
:1073F00008B50F48102101F039FFC0B10C48102129
:1074000001F03FFF002000F0A1FD28B9094B1A88C8
:107410000A3292B21A8008BD05481021002201F0FC
:10742000ECFEBDE808400020012100F0CBBC08BD07
:10743000002C0140B220002008B5024B1B6803B1AC
:10744000984708BD8020002008B5024B5B6803B157
:10745000984708BD8020002008B5024B9B6803B107
:10746000984708BD8020002008B5012001F0F6FCF7
:1074700050B1012001F002FD044B0BB1FFF7A8FC55
:10748000BDE8084001F0D4BC08BD00BFD16D0008C4
:1074900008B5022001F0E2FC98B14FF4003001F091
:1074A000A5FA012001F0FCFB10B1012001F002FC63
:1074B00001F0BEFC022001F0E1FCBDE8084001F053
:1074C000B7BC08BDFEF786BC00F064B838B51449F7
:1074D0000B78012B23D1134A13680BB90B7038BDFD
:1074E000114C402B206881B205D94030403B2060D0
:1074F0001360402504E09DB2034423600023136021
:107500000A482A460844C02102F0F0FB012029461F
:1075100002F0F4FCBDE83840012002F059BC38BD4F
:10752000C4110020CC110020C8110020C41000207C
:1075300008B5094B01221A70084B002203201A805B
:1075400002F00AFD064B024618804FF48871054888
:10755000BDE8084002F0E2BB7A1000207E10002057
:107560007C10002080100020084B1B68052B0BD1DD
:10757000074B1A68052A02F1010101D01960704712
:1075800000221A60FEF758BE704700BFDC200020C2
:107590008C20002070B52B4D2B4C2B682B4E9BB2B2
:1075A0002380228833881340990508D54FF6FF536E
:1075B0002B60A3780133DBB2A370FFF7D5FF2288DD
:1075C000338813401A0401D502F0DAFA228833888E
:1075D00013405B0505D54FF6FF332B601C4B5B68F2
:1075E0009847228833881A40900444BF4DF6FF72B2
:1075F0002A6022881340D90405D54EF6FF732B600C
:10760000002000F0B3FF2288338813401A050BD501
:10761000104B1B7813B100F089FF02E0022000F04C
:10762000A5FF4FF2FF732B60228833881340DB05E0
:1076300007D54FF6FF632B600720BDE8704000F0D0
:1076400095BF70BD445C0040902000203C2100208C
:10765000A402002098030020034B9B7A13B1034B34
:1076600005221A60704700BF18210020DC2000208E
:10767000014B04221A607047DC200020034B1A786B
:10768000202A04BF00221A70704700BF94200020F7
:1076900070470000212810B508D1114B1B681B78DA
:1076A00003F07F03212B10D0022010BD2028FBD136
:1076B0000B4B0C4A1B681B78107003F07F03212BC7
:1076C000094B18BF00230BB9EEE7084B044A00240E
:1076D00012682046936154829847204610BD00BF2F
:1076E00038210020942000203D77000825770008ED
:1076F000074B1B681B7803F07F03212B06D100F09A
:10770000DF0002280CBF00200220704702207047D3
:107710003821002021B9022834BF00200220704700
:107720000220704720B9034B08221B681A82704759
:1077300001487047382100209C02002020B9034BEB
:1077400008221B681A8270470148704738210020C0
:107750009C02002010B5FEF7BBFD054B00241B6802
:107760009C7200F0CBFE02F00DFC024B1C6010BDC1
:1077700038210020DC200020334B344A1B68D279AA
:1077800010B500245A729C72DC72204602F0D8FABE
:1077900020464FF4007102F0DBFA2046102102F07F
:1077A000E5FA2046402102F07DFB8021204602F0D0
:1077B00069FB204602F032FB254B204693F834103B
:1077C00002F0AAFB204602F016FB0120214602F03F
:1077D000BFFA0120C02102F055FB0120202102F058
:1077E000C5FA0120214602F0DAFA02204FF4C06106
:1077F00002F0AEFA02204FF4807102F043FB022047
:10780000214602F0CCFA0220202102F0AFFA032038
:10781000214602F09DFA03204FF4887102F042FBEA
:107820000320402102F078FB03204FF4405102F086
:10783000B6FA0320214602F099FA204602F034F904
:10784000044B01221A6010BD3821002024C6000814
:107850009C020020DC200020014901F021BF00BF74
:10786000D4020020014901F01BBF00BFDC02002050
:10787000054B1B68DB78042B04D8044901EBC301DA
:1078800001F00EBF0020704738210020E4020020E4
:10789000002100F004B80E4B5B58435004310D48F2
:1078A0000D4B42189A42FFF4F6AF0C4A00F003B8B1
:1078B000002342F8043B0A4B9A42FFF4F9AF00F070
:1078C000A3FDFEF785FBFEF73FFDFEF7C5FB704706
:1078D00048C90008000000203804002038040020B7
:1078E00048210020FFF7FEBF4FF4407000F016BFA4
:1078F0000A4BF0211A684FF47A73B2FBF3F2084B8B
:10790000013A5A60074A82F8231000219960072142
:107910001960D02382F82330704700BF8403002011
:1079200010E000E000ED00E007B50F4B5B6800934E
:107930000E4B1A680E4BB2FBF3F34FF0FF32B2FB63
:10794000F3F2904228BF104643430193064B596817
:10795000009A019B8A1A9A4202D201F077F9F5E760
:1079600003B05DF804FB00BF001000E084030020BA
:1079700040420F007FB54FF4003001F037F84FF46C
:10798000003302930823002501240DEB03008DF83A
:107990000D308DF80C508DF80E4000F0D9FF042307
:1079A0000DEB030003268DF805308DF804608DF88B
:1079B00006508DF8074000F0BBFE292301A88DF882
:1079C00004308DF805608DF806508DF8074000F002
:1079D000AFFE022001F064F928B1022001F06AF93B
:1079E00001F02EFA18E0204601F072F9412001F072
:1079F000B1F90028FAD04FF4807001F079F9012034
:107A000001F07EF901F01CFA01F012FA47F6FF705E
:107A100001F0FEF901F00CFA0320012101F0B6F9A2
:107A200001F006FA04B070BD10B5044645F2555099
:107A300001F0FAF8062001F0FDF82820604340F636
:107A4000FF73000A984228BF184680B201F0F8F888
:107A500001F0FCF8BDE8104001F000B9082812D888
:107A6000012907D10A4B0B4A53F8203032F8102075
:107A70001A610AE049B9064B064A53F8203032F839
:107A800010205A6101E0FF2000E0002040B2704762
:107A90002C0300207CC6000837B50F4D044605EBCB
:107AA00080031869012101F03DF935F8143001A96E
:107AB000ADF8043010238DF8073003238DF806301D
:107AC000064B53F8240001F011F820460021FFF77F
:107AD000C5FF03B030BD00BF7CC600082C030020EA
:107AE00070B5012188B04FF4006001F01BF9314BF3
:107AF00001A81C68304B0025B4FBF3F4A4B201F0DC
:107B00004FFB01A801F04CFBADF804402B4C42F2B6
:107B10000F7301A92046ADF80830ADF80A50ADF852
:107B2000065001F0F5F904A801F043FB602301269B
:107B3000ADF810302046022304A9ADF81830ADF896
:107B40001260ADF81650ADF81C5001F02BFA20462B
:107B5000294601F067FB204604A901F067FA204698
:107B6000294601F067FB204604A901F0A3FA20464C
:107B7000294601F069FB204604A9ADF81050ADF884
:107B80001260ADF81650ADF8185001F0D5FA204645
:107B9000294601F061FB2046314601F037FB2046C3
:107BA000314601F010FB2046314601F018FB08B0C9
:107BB00070BD00BF8403002040420F00002C014034
:107BC00030B51049104B8C8D93F82030A4B204FBD3
:107BD0000334C0F307456C430C4A240C14818C8D8C
:107BE000C0F30725A4B204FB03346C43240C548176
:107BF000898D106089B2C0B201FB000043431B0CA9
:107C0000D38030BD002C01402C03002098200020A0
:107C100030B51049104B8C8D93F82030A4B204FB82
:107C20000334C0F307456C430C4A240C94828C8DBA
:107C3000C0F30725A4B204FB03346C43240CD482A4
:107C4000898DD06089B2C0B201FB000043431B0C98
:107C5000538230BD002C01402C03002098200020CE
:107C600073B50F4E8500731904460121186B06EB9E
:107C7000440601F057F8B6F84030ADF804300CB9BE
:107C8000102300E018238DF8073003238DF8063009
:107C9000044B01A91D44686A00F028FF02B070BDC2
:107CA0007CC600082C03002010B1E72806D07047DE
:107CB000114B4FF400525B6A1A6170470F4B104A28
:107CC000197E39B9198989B21187598989B2918781
:107CD000DB8806E0998A89B21187D98A89B29187AF
:107CE0005B8A9BB29386044B632283F83420FF2285
:107CF00083F83520704700BF2C0300209820002017
:107D0000002C014010B1E72806D07047084B4FF413
:107D100000525B6A5A617047064A002313879387B3
:107D20009386034A82F83430012382F83530704755
:107D30002C030020002C014010B51F4A92F834306B
:107D40000BB9012102E0632B02D1FF2182F835102B
:107D500092F83510E7280B44DBB282F8343029D191
:107D6000164A6320147E16497CB91489A4B25C4378
:107D7000B4FBF0F4A4B20C875489A4B25C43B4FB06
:107D8000F0F4A4B28C87D2880EE0948AA4B25C434B
:107D9000B4FBF0F4A4B20C87D48AA4B25C43B4FB65
:107DA000F0F4A4B28C87528A92B25343B3FBF0F042
:107DB00080B2888610BD00BF2C03002098200020D0
:107DC000002C014073B5104C0E4604EB400494F8AF
:107DD0004C10054694F8480000F010FFB4F85040ED
:107DE000204600F0EFFD00238DF80430074B684675
:107DF0001D4495F8363000948DF805308DF80660F6
:107E000000F0A6FD02B070BD7CC600082C03002067
:107E1000F7B5234E8700F3190546586D0C4640F020
:107E20000100012100F07EFF1E4B06EB45065A19AA
:107E300092F8382002A98DF80320B6F85C201F4480
:107E400021F8082DF86B694600F050FE012C24D172
:107E500010210022144801F0D0F91B238DF80430C2
:107E60000027052301A88DF805308DF806708DF8E0
:107E7000074000F05DFCB6F8603001A88DF80430D2
:107E800006238DF805308DF806708DF8074000F058
:107E90004FFC28462146FFF795FF03B0F0BD00BF19
:107EA0007CC600082C030020002C014010B50121E5
:107EB0004FF0C05000F042FF012000F0D7FE242018
:107EC00000F082FC4AF2A553984207D124204FF6D5
:107ED000FF7100F06BFC00F0CFFEFEE7194B0024B1
:107EE0005A6842F440725A60A3F54C33A3F5047308
:107EF000DA6842F08072DA60134B5C601A6842F014
:107F000001021A60FFF7F0FC0120014600F00AFFB1
:107F1000E0B20134FFF7C0FD082CF9D1FFF7E0FD16
:107F20000020FFF79DFE0120FFF79AFE0220FFF7D9
:107F300097FE0320FFF794FEBDE8104000200121CA
:107F4000FFF766BF002004E0001000E0054A064B82
:107F500002EB800203EB4003B3F85C10D06B00F03F
:107F600013BE00BF2C0300207CC6000810B50820FB
:107F700086B0012100F0D6FE4FF48040012100F0D0
:107F8000DDFE244C4FF40053ADF8003003238DF890
:107F900002302046182369468DF8033000F0A6FD14
:107FA0004FF4004320466946ADF8003000F09EFDD6
:107FB0004FF48043ADF800302046042369468DF825
:107FC000033000F093FD4FF48272ADF806200122D9
:107FD0000023ADF80C20A4F554444FF40072ADF822
:107FE0000430ADF80830ADF80A30ADF80E20ADF829
:107FF000123008220723204601A9ADF81020ADF861
:10800000143000F045FF2288034B92B21A8006B06C
:1080100010BD00BF000C01400621002070B50446D1
:1080200001208CB00E460146154600F06FFE124B43
:1080300080220193069200234FF44052012C0296B5
:1080400005930793089309930A920B9306D10B4863
:108050000393049500F0C8FB084807E04CB91023CF
:1080600007480393049500F0BFFB054801A900F001
:1080700033FC0CB070BD00BF0C380040440002401F
:108080005800024073B50F23164E012401A8164D67
:108090008DF8043000238DF805308DF806308DF80A
:1080A000074000F045FBFFF761FF30462246022102
:1080B00000F03BFC28462146224600F014FF2246F1
:1080C0002846022100F00FFF2846214600F0FFFE5F
:1080D0002146064800F01EFC3046214600F01AFCFE
:1080E00002B070BD58000240003800404400024019
:1080F00010B504462146044800F00CFC2146034814
:10810000BDE8104000F006BC4400024058000240A8
:1081100002484FF4805100F03DBD00BF000C01400B
:1081200013B50820012100F0FDFD0D4C4FF48053E4
:10813000ADF804300323204601A98DF80630102342
:108140008DF8073000F0D2FCFFF7E2FF4FF48073A8
:10815000204601A9ADF8043000F0C8FC02B010BD03
:10816000000C014008B54FF40061024800F00CFD1E
:1081700008BD00BF000C014030B5092085B00121C9
:1081800000F0D0FD4FF400644823694614488DF890
:108190000330ADF8004000F0A9FC0B21012000F0F5
:1081A0002DFD204600F00EFC002502940C23012436
:1081B00002A88DF80D308DF80C508DF80E4000F0AF
:1081C000C7FB282301A88DF804308DF805408DF8F1
:1081D00006508DF8074000F0ABFA05B030BD00BF87
:1081E000000C014020B105484FF4807100F0D2BC72
:1081F00002484FF4807100F0CFBC00BF000C01407A
:1082000002484FF4007100F0C5BC00BF000C0140F3
:1082100010B50B4C238823F040031B041B0C238058
:10822000FFF7EEFF074B08481B884FF480519BB2C5
:1082300043F040032380BDE8104000F0ADBC00BF18
:108240000038004006210020000C014007B508203E
:10825000012100F067FD4FF48063ADF80430032383
:108260008DF806300448142301A98DF8073000F07A
:108270003DFC03B05DF804FB000C014008B5002094
:1082800000F020FDBDE808404FF40000012100F09F
:1082900055BD0000014B03221A607047DC2000200E
:1082A000044B9A7A044B0AB1052200E001221A60BD
:1082B000704700BF18210020DC20002007B51423E0
:1082C0008DF8043002238DF8053000238DF8063038
:1082D00001A801238DF8073000F02AFA03B05DF8F9
:1082E00004FB000020B105484FF4806100F054BC4D
:1082F00002484FF4806100F04DBC00BF000C01400B
:108300000C4B9B7FA3B10C4B1A880C4BA3F8442059
:108310000B4A1288A3F846200A4A1288A3F848207C
:10832000094A1288A3F84A20084A1288A3F84C2068
:10833000704700BF98200020004C00082C0300204C
:10834000024C0008044C0008064C0008084C0008C9
:1083500010B5204B9B7F002B3AD000F04DFB342012
:1083600000F05EFB1C4800F087FB04282FD11B4C5B
:108370001948B4F8441000F09DFB042826D1184891
:10838000B4F8461000F096FB04281ED100F10060FE
:1083900000F59840B4F8481000F08CFB042813D185
:1083A0001048B4F84A1000F085FB04280BD10E48A1
:1083B000B4F84C1000F07EFB042803D1BDE8104057
:1083C00000F026BBFEE7FEE7FEE7FEE7FEE7FEE77E
:1083D00010BD00BF98200020004C00082C03002096
:1083E000024C0008064C0008084C0008024BDA6AF0
:1083F0000132DA62704700BF98200020014BD86A32
:10840000704700BF98200020384B82B01A6842F0B5
:1084100001021A605968364A0A405A601A6822F006
:10842000847222F480321A601A6822F480221A6060
:108430005A6822F4FE025A604FF41F029A6000222A
:10844000009201921A6842F480321A601A6802F4AB
:1084500000320192009A01320092019A1AB9009AF0
:10846000B2F5A06FF2D11A6812F4003218BF0122DF
:108470000192019A012A05D01E4B4FF000629A60CA
:1084800002B070471C4A116841F010011160116878
:1084900021F003011160116841F0020111605A6876
:1084A0005A605A685A605A6842F480625A605A6840
:1084B00022F47C125A605A6842F4E8125A601A6830
:1084C00042F080721A601968084A8901FBD5516828
:1084D00021F003015160516841F0020151605A6876
:1084E00002F00C02082AFAD1C6E700BF00100240D1
:1084F0000000FFF800ED00E00020024008B5012078
:10850000FFF7F0FE064B01221A60064A00200649DA
:10851000186010604FF4E0520A801A6008BD00BF76
:10852000405C0040445C00403C210020064B1A683F
:1085300092B242F008021A601A6892B242F0040243
:108540001A60FFF7A7BE00BF405C004010B5064CA4
:108550004FF6FB73226813402360FFF7A1FE4FF430
:108560003F43236010BD00BF405C004010B51E4C6F
:10857000072818BF20702378052B32D8DFE803F0D6
:1085800003060A0E1621FFF7E1FF2AE0FFF7DEFFE0
:10859000042327E002236370032323E06378013B75
:1085A000DBB263706378F3B9042217E00F4B1A68EB
:1085B00092B242F010021A60052323700A236370FE
:1085C00010BD6378013BDBB2637063785BB9074A27
:1085D0004FF6EF7311680B4013600622024B1A70BE
:1085E00010BD0623237010BD08210020405C004010
:1085F000F8B5074672B63F4B53F830404FF47F0052
:10860000FFF7DEFAE720FFF74FFB3B4B13B13B4888
:10861000AFF30080E720FFF775FB022500F016FBA3
:1086200003262046FFF7CCFAE720FFF73DFB34484E
:10863000FFF77AF9013EE720FFF764FBB6B2314855
:10864000FFF772F9002EECD12E48FFF76DF90326E3
:108650002046FFF7B5FAE720FFF726FB2A48FFF789
:1086600063F9013EE720FFF74DFBB6B22548FFF75F
:108670005BF9002EECD12348FFF756F9032620467C
:10868000FFF79EFAE720FFF70FFB1D48FFF74CF9B5
:10869000013EE720FFF736FBB6B21A48FFF744F970
:1086A000002EECD11948FFF73FF93E468EB1204627
:1086B000FFF786FAE720FFF7F7FA1348FFF734F9D8
:1086C000E720FFF71FFB013E0F48FFF72DF9B6B279
:1086D000ECE70F48FFF728F9013D9FD1BFF34F8F1B
:1086E0000C4A0D4BD16801F4E0610B43D360BFF33A
:1086F0004F8FFEE7E0C600080000000053C70008E7
:10870000F0490200A0860100E0930400A0BB0D0028
:1087100000350C0000ED00E00400FA0540F0BF60F9
:10872000024B40F40030D860704700BF00ED00E01D
:10873000C27810B50378FAB1154A4478D26803F1CB
:108740006043D243C2F30222C2F1040104FA01F1F0
:108750000F2424FA02F2847803F5614322400A438D
:108760001201D2B283F8002303780122590903F0E1
:108770001F0302FA03F306E05909012203F01F0365
:1087800002FA03F32031034A42F8213010BD00BF42
:1087900000ED00E000E100E021F0604121F07F0108
:1087A000014B08439860704700ED00E082B0002361
:1087B0000193044B0193019B18440190019B1960A4
:1087C00002B07047006C004082B000230193054B5B
:1087D0000193019B18440190019B188880B202B05C
:1087E000704700BF006C004002684FF6FE731340F4
:1087F00003600023036043608360C3602A4B984298
:1088000022D02A4B984229D0294B984230D0294B6C
:10881000984237D0284B98423ED0284B984206D1F8
:1088200053F8682C42F4700243F8682C7047244BCC
:10883000984206D153F87C2C42F0706243F87C2CAD
:108840007047204B984206D153F8042C42F00F0297
:1088500043F8042C70471C4B984206D153F8182C4F
:1088600042F0F00243F8182C7047184B984206D19A
:1088700053F82C2C42F4706243F82C2C7047144BA4
:10888000984206D153F8402C42F4704243F8402CF1
:108890007047104B984205D153F8542C42F4702283
:1088A00043F8542C704700BF080002401C000240EF
:1088B0003000024044000240580002406C00024078
:1088C00080000240080402401C04024030040240C0
:1088D00044040240580402408A6810B50C6A0368D8
:1088E00014430A6923F4FF4314434A6923F07003D5
:1088F00014438A691443CA6914434A6A14438A6A4E
:10890000224313430360CB6843600B6883604B686A
:10891000C36010BD19B1036843F0010303E00268AE
:108920004FF6FE7313400360704703680AB11943A2
:1089300001E023EA0101016070470000C3004CBF61
:10894000014B024B58607047000402400000024097
:10895000837930B50168027943B3194BCC431D6864
:1089600002F1804225401D605D6802F582322C4094
:108970005C6014682143116002689C68D1430C401C
:108980009C60DC682140D9604179102906D1996842
:1089900011439960D9680A43DA6030BD01F1804320
:1089A00003F5823319680A431A6030BD02F180432F
:1089B00003F582331A6822EA0101196030BD00BF55
:1089C00000040140014B5861704700BF00040140A2
:1089D000054B1A685B69034004D010420CBF0020AD
:1089E000012070471846704700040140014B586150
:1089F000704700BF00040140034B044A5A6002F173
:108A000088325A60704700BF00200240230167454A
:108A1000024B1A6942F080021A617047002002403E
:108A2000014BD860704700BF00200240084BDA6855
:108A3000D10709D4DA68520708D4DB6813F0100FA5
:108A40000CBF0420032070470120704702207047AC
:108A50000020024010B50446FFF7E8FF012806D1C8
:108A60001CB1FFF7E3FF013CF8E7052010BD002C27
:108A700008BF052010BD000038B505464FF4302072
:108A8000FFF7E8FF042812D1094C4FF43020236986
:108A900043F0020323616561236943F040032361CE
:108AA000FFF7D8FF226941F6FD731340236138BDFB
:108AB0000020024070B505464FF400500E46FFF707
:108AC000C9FF04280ED1084C4FF40050236943F02D
:108AD000010323612E80FFF7BDFF226941F6FE737B
:108AE0001340236170BD00BF00200240CB78F0B579
:108AF000DA0648BF8A78098803F00F0548BF154396
:108B000011F0FF0F1DD0046800220127974007EAEB
:108B10000106BE4211D197004FF00F0C0CFA07FC72
:108B200005FA07F724EA0C04282B44EA070401D1CC
:108B3000466102E0482B08BF06610132082AE4D1F1
:108B40000460FF291FD94468002202F108060127AA
:108B5000B74007EA0106BE4211D197004FF00F0C53
:108B60000CFA07FC05FA07F724EA0C04282B44EA60
:108B7000070401D1466102E0482B08BF06610132BB
:108B8000082AE2D14460F0BD836819420CBF00207E
:108B90000120704701617047416170470028164A03
:108BA00030B500F44015B4BFD3695368B5F5401F24
:108BB00084B206D1556823F0706325F07065556066
:108BC0000FE0C20205D5C0F30342032505FA02F205
:108BD00003E0420D120104FA02F223EA020343F019
:108BE000706319B1420D120194402343024A0028D8
:108BF000B4BFD361536030BD0000014001F00303F6
:108C00009B000F229A40984001F0FC0101F1804145
:108C100001F5803110B58C6824EA02028A608A6806
:108C200002438A6010BD0000014B1860704700BF0E
:108C300000300040014B5860704700BF00300040DA
:108C4000014B9860704700BF00300040024B4AF66D
:108C5000AA221A60704700BF00300040024B4CF659
:108C6000CC421A60704700BF00300040014B1860D2
:108C7000704700BF20000E42074B1A6842F0040202
:108C80001A601A6842F002021A60044B1A6942F034
:108C900004021A6130BF70470070004000ED00E030
:108CA000034B5B6818420CBF00200120704700BFD7
:108CB00000700040024B1A6842EA8000186070475A
:108CC00000700040014B1860704700BFD80042425E
:108CD000064B002201281A701A7002D0042802D014
:108CE00070471870704705221A70704720100240B4
:108CF000024B1A6A10431862704700BF001002400E
:108D0000014B1860704700BF3C044242044B5A6953
:108D100009B1104301E022EA00005861704700BF2A
:108D200000100240044B9A6909B1104301E022EAA5
:108D300000009861704700BF00100240044BDA69E0
:108D400009B1104301E022EA0000D861704700BF7A
:108D5000001002404309012B074A01D1136803E0C8
:108D6000022B0CBF136A536A00F01F0023FA00F0B5
:108D700000F00100704700BF00100240024B5A6A29
:108D800042F080725A62704700100240044B1A8809
:108D900092B209B1104301E022EA00001880704746
:108DA00000280040034B9A8892B242F010029A8049
:108DB000704700BF00280040034A938823F0100347
:108DC0001B041B0C9380704700280040074B1A8B34
:108DD000988B198B92B289B28A4280B21DBF988B50
:108DE00080B240EA014040EA02407047002800405B
:108DF00010B50446FFF7D6FF044B220CA4B21A8329
:108E00009C83BDE81040FFF7D7BF00BF002800409B
:108E100010B50446FFF7C6FF044BC4F30342A4B2E7
:108E20001A819C81BDE81040FFF7C6BF00280040B2
:108E3000024B9B889B06FBD5704700BF0028004073
:108E4000054A938823F008031B041B0C9380938826
:108E50001B07FCD5704700BF00280040064B9A88CE
:108E60001B8892B2034005D01040C0B2003018BF3A
:108E7000012070471846704700280040034B9A882D
:108E800092B222EA00009880704700BF002800409C
:108E90000B8810B54C88028823438C8802F4415219
:108EA0002343CC8823430C8923434C8923438C8957
:108EB0002343CC89234313439BB20380838B23F446
:108EC00000631B041B0C83830B8A038210BD038881
:108ED00019B19BB243F0400303E023F040031B04AD
:108EE0001B0C0380704783889BB20AB1194301E0D1
:108EF00023EA01018180704781817047808980B2B7
:108F00007047038919420CBF002001207047000000
:108F1000224A038890429BB212D002F5006290422E
:108F20000ED0B0F1804F0BD0A2F59832904207D00E
:108F300002F58062904203D002F58062904203D134
:108F40004A8823F070031343154A904208D002F573
:108F50008062904204D023F44073CA889BB21343CA
:108F600003808B8883850B8803850C4B98420FD038
:108F700003F5006398420BD003F54063984207D095
:108F800003F58063984203D003F58063984201D1D2
:108F90000B7A038601238382704700BF002C0140B7
:108FA00000100040038C70B523F001031B041B0C60
:108FB0000384038C8488028B0D8822F073021204D0
:108FC000120C2A434E880D8923F002031B043543FB
:108FD000ADB21B0C2B43144DA4B2A8420FD005F523
:108FE0000065A8420BD005F54065A84207D005F5FD
:108FF0008065A84203D005F58065A8420ED14D8951
:1090000023F008032B438D8823F004032B43CE89E0
:109010008D8924F440743543ADB22C43848002839F
:10902000CA888286038470BD002C0140038C30B551
:1090300023F010031B041B0C0384038C8288048B15
:109040000D8824F4E6442404240C23F0200344EA8D
:1090500005241B040D891B0C43EA05134D8892B2AD
:1090600043EA0513124DA4B2A8429BB203D005F502
:109070000065A84215D14D8923F080039BB243EAD5
:1090800005134FF6BF751D408B8822F4406245EAF8
:1090900003138D899BB242EA8502CD8942EA85029B
:1090A00092B28280CA8804830287038430BD00BFE5
:1090B000002C0140038C30B523F480731B041B0C7F
:1090C0000384038C8288848B0D8824F07304240429
:1090D000240C23F400732C431B040D891B0C43EA5E
:1090E00005234D8892B243EA0523124D9BB2A84254
:1090F00003D005F50065A84215D14D8923F400631E
:109100009BB243EA05234FF6FF351D408B8822F4BE
:10911000405245EA03238D899BB242EA0512CD896C
:1091200042EA051292B28280CA88848382870384CD
:1091300030BD00BF002C0140038C30B523F48053B8
:109140001B041B0C0384038C8488828B0D8822F4FF
:10915000E6421204120C23F4005342EA05221B04D7
:109160000D891B0C43EA05334D88A4B243EA05334D
:109170000A4D92B2A8429BB203D005F50065A84201
:1091800005D18D8924F4804444EA8514A4B28480F6
:109190008283CA88A0F84020038430BD002C01409F
:1091A0004FF6FF73838000230380C38043800372E4
:1091B00070470023038043808380C3800381438101
:1091C0008381C3817047038819B19BB243F00103C7
:1091D00003E023F001031B041B0C03807047B0F86D
:1091E000443029B16FEA43436FEA53439BB201E035
:1091F000C3F30E03A0F84430704783899BB20AB1D1
:10920000194301E023EA010181817047038819B104
:109210009BB243F0800303E023F080031B041B0C8C
:1092200003807047038B23F008031B041B0C1943B6
:1092300001837047038B23F400631B041B0C43EA78
:1092400001218BB203837047838B23F008031B0437
:109250001B0C194381837047838B23F400631B0429
:109260001B0C43EA01218BB283837047038A8289F6
:1092700011EA030092B203D011420CBF002001207A
:109280007047C94389B201827047C1F3421310B5D8
:10929000012401F01F01A34204FA01F101D10C30B5
:1092A00003E0022B0CBF1030143003680AB11943DD
:1092B00001E023EA0101016010BDC1F308018180D2
:1092C00070478088C0F308007047038819420CBFBC
:1092D00000200120704710B5C1F3421401F01F03B4
:1092E0000122012C02FA03F201D1838903E0022C4E
:1092F0000CBF038A838A9BB21340028892B243B1A7
:109300000123090A03FA01F111420CBF00200120D8
:1093100010BD184610BD000010B5064C18B92368E2
:1093200001221A8210BD044B1B681B6898472068F5
:109330000A3010BD382100203421002010B5064C21
:1093400018B9236801221A8210BD044B1B689B6860
:10935000984720680C3010BD3821002034210020AF
:1093600010B5204B18B91B6802221A8210BD1E4A84
:109370001968002010800C78134614F07F040DD17A
:109380004A7A910644BF0221197012F0400F1A78F0
:1093900014BF42F0010222F0010214E0012C1FD0A0
:1093A000022C1ED1497901F00F02920002F1804295
:1093B00002F5B84211F0800F126806D002F03002B8
:1093C000102A07D101221A7004E002F44052B2F5CB
:1093D000805FF6E7054B1B681B699847024810BD84
:1093E000104610BD382100200A2100203421002021
:1093F000234A2DE9F84314689046238A267A214FA0
:10940000A3B9042E12D120490A78012A0AD11F4A91
:1094100010681F4A80B202445200136030223A8022
:109420000B7027E010233B80072623E0A58AAB4280
:109430008CBF022604269D4228BF1D462846A369EC
:1094400098478146002000F03DFD2A4601464846E7
:1094500000F04CFC2946002000F050FD238A4FF418
:1094600040525B1B2382638A1D4430233B80094B9F
:1094700065821A80D8F800301E72BDE8F88300BFFC
:109480003821002040210020E0200020505C0040D6
:10949000023000203E21002010B50A4B0A491B680B
:1094A0004978DA7891420AD3997841B99C8834B9DD
:1094B0009A72064B1B685B689847204610BD0220D5
:1094C00010BD00BF382100202803002034210020D7
:1094D00038B50E4A0E4C1268236892695879D978CB
:1094E000904723689A7A7AB170B91A7962B99D78EF
:1094F00055B9084B1B68DB689847236828465A799A
:10950000DA72DA781A7338BD022038BD10210020D3
:10951000382100203421002038B5314B1B681878E1
:1095200010F07F0004D15A7A22F020025A7238BD1E
:10953000022853D15A88002A51D11A79002A4ED1D3
:109540005A79284D22F08000840004F1804101F511
:10955000B84109682D7812F0800F14BF01F0300176
:1095600001F44051A84239D2002937D09B7A002B10
:1095700034D004F1804404F5B844120623680CD5B5
:1095800003F03003102B23D1C4B2204600F068FC56
:109590002046302100F0EAFB1AE003F44053B3F513
:1095A000805F15D128B9104B93F82C1000F0B4FC53
:1095B00001E000F043FC236823F4804323F07003B0
:1095C0009BB283F4405343F4004343F08003236091
:1095D000064B1B685B699847002038BD022038BDE8
:1095E0003821002028030020A4020020342100207C
:1095F00038B51F4B1F4D19682D784A7922F0800429
:10960000A30003F1804000F5B840006812F0800F1D
:1096100014BF00F0300000F44050AC4226D24C8819
:1096200024BB18B3897A09B303F1804303F5B84327
:1096300012F0800F1A6807D022F4E04222F04002B4
:1096400092B282F0100206E022F4804222F0700210
:1096500092B282F4805242F4004242F080021A60D8
:10966000054B1B689B699847002038BD022038BD18
:1096700038210020280300203421002008B5064BA3
:109680001B685A7A42F020025A72044B1B68DB694D
:109690009847002008BD00BF382100203421002059
:1096A000054B1A68538A18B98988CB1A13827047F8
:1096B00008681844704700BF3821002008B50B4BDC
:1096C000002093F82C1000F027FC094B1B68187A37
:1096D000082806D1074B4FF480521A80064B1022FF
:1096E0001A80B0F109035842584108BDA402002075
:1096F000382100203E21002040210020F7B5964F60
:10970000964B3A68964D92B213442E685B001C68E3
:10971000337A092B15D0A4B2640004F1804404F517
:10972000C0442378337063787370A08800F024FC01
:10973000708020892E6800F01FFCB080A2892B6801
:10974000DA802B6801221A72DA885C78002A5ED1EE
:109750001A7812F07F0237D1092C02D1FFF79CFE54
:1097600041E0052C0FD193F90320002A01DA0823E8
:109770004AE09A78002AFAD19A88002AF7D19B7A8F
:10978000002B34D0F3E7032C10D1DA78012A07D06C
:10979000744B20461B685B699847032825D132E04B
:1097A0009B88002BF4D1FFF769FF1CE0012CEFD15F
:1097B000DA78012AECD19A88002AE9D15B7A9906F5
:1097C000E6D5FFF7A9FE0EE0012A04D10B2CDFD16C
:1097D000FFF77EFE07E0022ADAD1012CF1D0032C3C
:1097E000D6D1FFF705FF10B1D2E70028BFD13A6804
:1097F0005D4B92B213445B0000221A605B4B302237
:109800001A80062300E009232A681372D0E0062C90
:1098100013D11A78520678D19A78524B012A02D184
:109820001B68DB6968E0022A02D11B681B6A63E0DF
:10983000032A6AD11B685B6A5EE0002C3DD159881F
:10984000002962D15A6822F47F42B2F5003F5CD110
:109850001A7812F07F0204D19B88002B00F0AC80B4
:1098600053E0012A0DD13F4A587912689269904716
:1098700000284AD13A4B1B689B7A002B40F09C8011
:1098800043E0022A41D15B79394803F00F018A0095
:1098900002F1804202F5B8421268007813F0800F9E
:1098A00014BF02F0300202F4405281422DD213F074
:1098B000700F2AD1002A7FD127E0082C03D11B7812
:1098C0005B067BD021E00A2C1FD11A7802F07F02C0
:1098D000012A1AD19A7AC2B15988B1B95A6822F4C8
:1098E0007F42B2F5803F10D11E4A587912689269C2
:1098F0009047002864D008E03BB12A6800245482D5
:1099000093612046984720460AE0164B1A682B6858
:10991000126958789047032802D1114B1B6805E063
:109920002B684FF6FF711A8A8A4201D1092203E09F
:10993000022800D012B908221A7239E093F90010F7
:1099400000292FDAD988019101988242054811D95E
:10995000019A1A821FE000BF505C004004300020D2
:10996000382100201021002002300020402100205A
:10997000280300208A420ED2016891F82C108A42F6
:1099800001D2002105E092FBF1F401FB142212B98F
:1099900001210C4A1170026892F82C209A82FFF77C
:1099A00027FD05E003221A72074B4FF440521A803C
:1099B000FFF784FE03B0F0BD044B9EE7044B9CE729
:1099C000044B9AE7E02000203E210020619300082C
:1099D000199300083D930008F8B52D4D2C68237AA3
:1099E000022B4DD0042B4BD0032B01D0052B41D1A2
:1099F000A369228AABB1A2B1A68A964228BF1646B5
:109A000030469847238A07469B1B2382638A00209F
:109A10003344638200F064FA32460146384600F06F
:109A20007DF9238A53B11B4B00204FF4405201466D
:109A30001A8000F063FA184B30221A80238AA28A17
:109A40009A4202D82B68032202E01BB12B68052240
:109A50001A720CE02A6806211172104A1168104A25
:109A600089B20A44520013600B4B30221A802B68D3
:109A70001B7A06E0072B03D10A4B1B68DB6898476B
:109A800008232A681372BDE8F840FFF717BE00BF2D
:109A9000382100203E21002040210020505C004061
:109AA000023000201021002070B50D4B1D780023DE
:109AB000AB4210D203F1805202F5B85294002668EE
:109AC00043F4004140F60F7241F0800132400A43F6
:109AD00022600133ECE7034B40F08000186070BD5A
:109AE000280300204C5C004010B5134C23681A7A00
:109AF000022A01D0042A04D1FFF77AFC23681B7ADA
:109B000013E0062A10D15A78052A09D11A7852068C
:109B100006D1D878FFF7C8FF084B1B681B6A984727
:109B2000074B1B689B689847082322681372BDE89F
:109B30001040FFF7C3BD00BF3821002034210020B2
:109B4000102100207047000008B5074A074B08495C
:109B5000136002221A72074B074A1360074A1B68F8
:109B60001160984708BD00BF38210020182100204F
:109B700004030020A4020020102100203421002032
:109B800073B50023ADF80630504B1A68504B91B2B4
:109B90001204198040F197801A884E4C02F00F028F
:109BA0002270002A61D14C4C4C4E22684C4D92B22E
:109BB0003280328802F030022A80328802F4405229
:109BC000328021684BF6BF720A4082F4005282F064
:109BD000200242F4004242F0800222601B88D80634
:109BE00007D4226848F60F7313402360FFF77CFF09
:109BF0001BE023689BB2ADF80630BDF806301905AE
:109C000007D5226840F68F7313402360FFF776FD77
:109C10000BE0BDF806301BB2002BB5DA226840F627
:109C20008F7313402360FFF7D7FE22684BF6BF7394
:109C300013403288D204328848BF83F4805396049C
:109C40002A8848BF83F40053D4062A8848BF83F08B
:109C50001003900648BF83F0200343F4004343F011
:109C600080031D4A9BB213602DE0930003F18043F3
:109C700003F5B843196889B2ADF80610BDF80610AF
:109C800009B2002909DA186840F68F71014019609D
:109C9000144B013A53F822309847BDF806301906A4
:109CA0007FF572AF217848F60F728B0003F1804385
:109CB00003F5B8431868013902401A600A4B53F89B
:109CC0002130984760E702B070BD00BF445C00409F
:109CD0009020002014210020005C00403E21002044
:109CE00040210020640200208002002030B501F1F4
:109CF0000051013201F540515210490000239342B6
:109D000000F1020009D010F8015C10F8024C44EA9E
:109D1000052421F823400133F1E730BD10B501F1EE
:109D20000051013201F54051521049000023934285
:109D300005D051F8234020F813400133F7E710BD58
:109D40004FF6F873014A034013607047505C0040BF
:109D5000800000F1804000F5B840036823F4EC4334
:109D600023F0700319438BB203607047800000F149
:109D7000804000F5B8400368CA0623F4E04323F0AE
:109D800040039BB248BF83F010038A0648BF83F0AC
:109D9000200343F4004343F08003036070478000D6
:109DA00000F1804000F5B8400368CA0423F4804302
:109DB00023F070039BB248BF83F480538A0448BFEA
:109DC00083F4005343F4004343F08003036070477F
:109DD000800000F1804000F5B840036823F4E043C0
:109DE00023F040039BB283F0300343F4004343F07D
:109DF000800303607047800000F1804000F5B840A8
:109E0000036823F4804323F070039BB283F4405330
:109E100043F4004343F0800303607047800000F187
:109E2000804000F5B840036823F4F8731B051B0D50
:109E300043F4004343F0800303607047800000F167
:109E4000804000F5B84003685B0408D5026840F61E
:109E50000F73134043F4404343F0800303607047A3
:109E6000800000F1804000F5B84003685B0608D52B
:109E7000026840F60F73134043F4004343F0C003FD
:109E800003607047064B49081B6849009BB203EB0F
:109E9000C00000F1005000F54050400001607047E4
:109EA000505C0040054B49081B6849009BB203EB1E
:109EB000C000034B03445B0019607047505C0040D6
:109EC00004300020054B1B689BB203EBC00000F17F
:109ED000005000F54050400000887047505C004042
:109EE000044B1B689BB203EBC000034B03445B00B5
:109EF00018887047505C004004300020044B1B68F9
:109F00009BB203EBC000034B03445B001960704736
:109F1000505C0040023000200D4B3E291B689BB274
:109F200003EBC0000B4B03444FEA430209D94B0932
:109F3000C80604BF03F1FF339BB29B0243F4004306
:109F400004E04B08C90748BF01339B021360704708
:109F5000505C004006300020054B1B689BB203EBB1
:109F6000C000044B03445B001868C0F3090070474D
:109F7000505C004006300020C3B2000A40EA0320D3
:109F800070470000044B0020044A18604FF43F4320
:109F90001380034A13607047445C00403C2100205A
:109FA000405C00404FF420720260002280F852268C
:109FB00080F8532680F8542600F29562C0F82029D4
:109FC000C0F81C2900F61512C0F8182970470000C7
:109FD00080B582B000AF786039607B681B681B6910
:109FE000386898470837BD4680BD00BF90B585B03A
:109FF00000AFF860B9607A607B80FB681B685C69C1
:10A000007B88B86879681A460123A0471437BD4693
:10A0100090BD00BF80B582B000AF786039607B68CA
:10A020001B68DB68386898470837BD4680BD00BFAD
:10A0300080B483B000AF78600B46FB707B68FA7821
:10A0400083F824200C37BD465DF8047B704700BFC1
:10A0500080B584B000AF78607B682933FB60FB6813
:10A0600003221A70FB6800225A7000229A70FB6863
:10A070000022DA7000221A7178680521FFF7D8FFF4
:10A0800078680121FFF7A4FF7B6803F129027B6850
:10A0900003F20563786811461A460523FFF7A6FF09
:10A0A000002318461037BD4680BD00BF80B584B080
:10A0B00000AF78607B68DB685A1C7B68DA607B687D
:10A0C00093F82430052B04D0062B25D0032B31D058
:10A0D00035E07B6803F20563FB60FB68B3F803308F
:10A0E0009BB21B0A7B81FB68B3F803309BB21B0257
:10A0F0009AB27B8913439BB27B8178680621FFF774
:10A1000097FF7B6803F129017B6803F20A627B8970
:10A110007868FFF76BFF12E07B685B695A1C7B680D
:10A120005A6178680721FFF783FF78680021FFF7FD
:10A130004FFF04E078680021FFF74AFF00BF0023CB
:10A1400018461037BD4680BD80B584B000AFF860BA
:10A150007A600A467A817B727A897B7AF86811463E
:10A160007A6800F03DF9FB681B695A1CFB681A61AC
:10A17000F8680221FFF75CFFF8680121FFF728FF6C
:10A18000002318461037BD4680BD00BF80B582B0A1
:10A1900000AF78607B685B685A1C7B685A607B689C
:10A1A00093F82430062B2ED801A252F823F000BFDA
:10A1B00027A20008EFA10008CDA10008F7A1000820
:10A1C000FFA1000827A2000827A200087868032141
:10A1D000FFF72EFF7B6803F129017B6803F205621C
:10A1E0007B68B3F8E23B7868FFF700FF1CE0786813
:10A1F000FFF72EFF18E07868FFF72AFF14E0786871
:10A20000FFF726FF10E07B689B685A1C7B689A600A
:10A210007B6893F824207B6883F825207B680122E3
:10A2200083F8282000E000BF002318460837BD4609
:10A2300080BD00BF80B584B000AF78607B6803F25A
:10A240000A63FB60FB681B78042B01D0022336E015
:10A250007B6803F20E63BB60FB68B3F801309AB20F
:10A26000FB68DB7878681146BA6800F0EBF8FB68A9
:10A27000B3F801309BB2B3F5824F05D37B689B697D
:10A280005A1C7B689A6119E0FB68B3F801309AB2F6
:10A290007B68DB8C9A4201D0022310E0FB68B3F8A4
:10A2A00001309BB2B3F5804F00D007E0786844F2EC
:10A2B0000B0100220023FFF747FF00BF00231846D1
:10A2C0001037BD4680BD00BF80B584B000AF786058
:10A2D00039607B68D3F8E83B002B02D10023FB6098
:10A2E00005E07B68D3F8E83B3A68D31AFB607B68EB
:10A2F0003A68C3F8E82B7B6893F82430042B19D014
:10A30000072B00D01DE078680021FFF783FE7868F6
:10A310000421FFF78DFE7868FFF78CFF0346FB7280
:10A3200078680121FFF776FEFB7A002B01D0FB7ADB
:10A3300014E006E07868092100220023FFF704FFFB
:10A3400000BF7B6893F82830002B06D07868FFF7B1
:10A350007FFE7B68002283F82820002318461037F0
:10A36000BD4680BD80B487B000AFF860B9601346C9
:10A37000FB80FB6829337B61FB88053303F0010315
:10A38000002B02D0FB880133FB80BB68DAB27B690B
:10A390001A70FB881B0A9AB27B69A3F801207B69BB
:10A3A000B3F801309BB29AB2FB881B029BB21343F5
:10A3B0009BB29AB27B69A3F801207B690022DA7014
:10A3C00000221A71FB8805339AB2FB68A3F8E22BCE
:10A3D000002318461C37BD465DF8047B704700BF5C
:10A3E00080B586B000AFF8607A600A467A817B72E9
:10A3F000FB682E337B617B6901221A707B697A8945
:10A40000A3F801207B697A7ADA707B7A002B08D076
:10A410007B6903F110027B7A104679681A4600F0D6
:10A420008DF8FB687A89DA847B7A9BB204339BB21D
:10A43000F86801211A46FFF795FF034618461837BA
:10A44000BD4680BD80B487B000AFF8607A600A4630
:10A450007A817B727B89092B0BD044F20B029342E9
:10A460000FD17B687B617B695A78FB6883F8F02B9E
:10A4700007E07B683B613B695A68FB68C3F8F42BD3
:10A4800000BF002318461C37BD465DF8047B7047AB
:10A4900003460846194600F031B8000031F0004389
:10A4A00010B408D00F4AA3F5801494420AD80420AF
:10A4B0005DF8044B704700280CBF022003205DF8B4
:10A4C000044B7047B3F5801F01D20320F7E7064A1B
:10A4D000934201D00020F2E7D0F1010038BF002004
:10A4E000EDE700BFFFFFDF7F0000F07F08B506202B
:10A4F00000F006F90120FBF745FF000070B5064C9F
:10A5000006460D4613462CB131462A460220AFF3CB
:10A51000008070BD204670BD00000000024B014667
:10A52000186800F061B800BFFC030020024B014630
:10A53000186800F015B800BFFC03002010B5002318
:10A54000934203D0CC5CC4540133F9E710BD0244FC
:10A550000346934202D003F8011BFAE7704700005C
:10A5600030B500293CD051F8042C0B1F1D49002A9E
:10A57000B8BF9B180A680C4612B95A600B6030BD10
:10A5800093420DD219685818904203D15A58114479
:10A59000426819605A60236030BD994203D80A4668
:10A5A00051680029F9D1146815199D420AD11B6818
:10A5B0002344D0188842136012D108680344136002
:10A5C0004B680CE002D90C23036030BD18681C18DE
:10A5D0008C4203D10C68496820441860596053606C
:10A5E00030BD00BFE820002070B5CD1C25F003056C
:10A5F00008350C2D38BF0C25002D06463FDB8D425B
:10A600003DD3214B1C6818462146A1B10B685B1B4A
:10A610000ED40B2B03D90B60CC18CD501FE08C420D
:10A6200002D1626802601AE04B6863600C4616E073
:10A630000C464968E9E7154C23681BB9304600F021
:10A6400027F820602946304600F022F8431C0146D6
:10A6500015D0C41C24F0030484420AD1256004F1FF
:10A660000B00231D20F00700C31A0BD05A42E25002
:10A6700070BD3046611A00F00BF80130EED10C23AA
:10A680003360002070BD00BFE8200020E4200020DF
:10A6900038B5064C0023054608462360FBF778FED4
:10A6A000431C02D1236803B12B6038BD4421002034
:10A6B0001F2938B505460C4604D9162303604FF010
:10A6C000FF3038BD426C12B152F821304BB92846E8
:10A6D00000F030F8224601462846BDE8384000F038
:10A6E00017B8012B0AD0591C03D11623036001208F
:10A6F00038BD002542F8245020469847002038BD38
:10A70000024B01461868FFF7D3BF00BFFC030020CF
:10A7100038B5074C00230546084611462360FBF771
:10A720004BFE431C02D1236803B12B6038BD00BF30
:10A7300044210020FBF743BE034613F8012B002AF7
:10A74000FBD1181A013870472DE9F047002B88B06B
:10A7500014461D46109E1299139F05DA05F1004319
:10A760001D4614462D2300E000230B70149B23F09C
:10A77000200ABAF1460F04D0BAF1450F03D10136D1
:10A7800001E0032300E002238DE8C80006AB039339
:10A7900007AB049322462B4600F07AFBBAF1470F31
:10A7A000804602D1119BDB0725D5BAF1460F08EB95
:10A7B00006090FD198F80030302B09D120462946E0
:10A7C00000220023FBF7C4F810B9C6F101063E6071
:10A7D0003B6899442046294600220023FBF7B8F83D
:10A7E00008B1CDF81C90079B4B4504D25A1C079228
:10A7F00030221A70F7E7079B4046C8EB0302159B0F
:10A800001A6008B0BDE8F08773B50346002903F865
:10A81000022B03DA49421A462D2401E01A462B2462
:10A82000092944701BDD0DF106040A2691FBF6F59B
:10A8300006FB1511092D01F13001234604F8011919
:10A840002946F2DC05F1300103F8011D0DF1070185
:10A850008B420AD213F8011B02F8011BF6E73024E1
:10A860001A46214402F8024B5970101A02B070BD0A
:10A870002DE9F04F8FB00C4616461F46DDF860906C
:10A88000054601F0C5F8D0F800A05046FFF754FF88
:10A8900000230C93D9F800300990073323F0070305
:10A8A00003F10802D3E9000194F81880C9F80020E8
:10A8B000C4E91201FFF7F2FD0128D4E9120117D112
:10A8C00000220023FBF74EF810B12D2384F843300B
:10A8D000904B914AB8F1470F8CBF9146994603239C
:10A8E0002361236823F0040323604FF0000B86E00C
:10A8F000FFF7D4FD236848B9884A8949B8F1470F62
:10A900008CBF8946914603222261EBE7626828F0FA
:10A91000200B511C01D1062204E0BBF1470F02D1EC
:10A920000AB901226260606843F480618DE8030027
:10A93000D4E912230DF12B0002900BA803900CA870
:10A940000590002021600690CDF810802846FFF782
:10A95000FBFEBBF1470F81460B9909D1C81C02DBF6
:10A960006368994230DDA8F102085FFA88F802E0D6
:10A97000B8F1650F12D80139424604F150000B912D
:10A98000FFF742FF0C9A83468318012A236102DCF9
:10A990002268D2072DD5013323612AE0B8F1660F72
:10A9A00014D10029636807DD216113B92268D0073B
:10A9B0001CD501330B4418E013B92268D20701D526
:10A9C000023312E0012310E04FF067080C9A914225
:10A9D00005DB23682161D80708D54B1C05E0002959
:10A9E000D4BFC1F10203012313442361A1654FF0D9
:10A9F000000B9DF82B3013B12D2384F843300097C2
:10AA0000284621460DAA334600F040F9013002D114
:10AA10004FF0FF3036E123685A0504D4284631460A
:10AA20004A46236908E1B8F1650F40F2CB80D4E9CA
:10AA3000120100220023FAF78BFF00282AD02846B3
:10AA40003146384A0123B8470130E1D00C9B0B9ABC
:10AA50009A4207DB2368D80704D423689B0700F1D8
:10AA6000F880FDE0284631465246099BB847013040
:10AA7000CED04FF000080C9B013B9845EDDA2846FC
:10AA8000314604F11A020123B8470130C0D008F161
:10AA90000108F0E70B9B002B28DC28463146214AB1
:10AAA0000123B8470130B3D00B9B23B90C9B13B9DA
:10AAB0002368D907D1D5284631465246099BB84765
:10AAC0000130A5D04FF000080B9B28465B4298450B
:10AAD000314608DA04F11A020123B847013097D051
