:020000040800F2
:1050000000500020B9820008417800084D7800085F
:1050100059780008657800087178000800000000E1
:105020000000000000000000000000007D78000883
:10503000897800080000000095780008A178000831
:105040000D8300080D8300080D830008257C0008EF
:105050000D8300080D830008297900085D79000898
:1050600091790008D5790008097A00080D830008B5
:105070000D8300080D8300080D830008A97C00083B
:105080000D8300080D830008B17800080D83000827
:10509000B57C00080D8300080D8300083D7A0008E8
:1050A0000D8300080D8300080D830008757B000840
:1050B000DD7B0008F57B00080D7C0008ED7800081A
:1050C000017900080D8300080D8300081579000898
:1050D0000D830008C5780008D97800080D83000802
:1050E000C17A0008597C00080D8300080000000008
:1050F00000000000000000000000000000000000B0
:0C51000000000000000000005FF808F153
:1051100081F0004102E000BF83F0004330B54FEA68
:1051200041044FEA430594EA050F08BF90EA020FD5
:105130001FBF54EA000C55EA020C7FEA645C7FEA68
:10514000655C00F0E2804FEA5454D4EB5555B8BF8B
:105150006D420CDD2C4480EA020281EA030382EAFC
:10516000000083EA010180EA020281EA0303362D8E
:1051700088BF30BD11F0004F4FEA01314FF4801C61
:105180004CEA113102D0404261EB410113F0004F73
:105190004FEA03334CEA133302D0524263EB43032A
:1051A00094EA050F00F0A780A4F10104D5F1200EC8
:1051B0000DDB02FA0EFC22FA05F2801841F1000123
:1051C00003FA0EF2801843FA05F359410EE0A5F1F7
:1051D00020050EF1200E012A03FA0EFC28BF4CF028
:1051E000020C43FA05F3C01851EBE37101F00045DE
:1051F00007D54FF0000EDCF1000C7EEB00006EEBEB
:105200000101B1F5801F1BD3B1F5001F0CD3490874
:105210005FEA30004FEA3C0C04F101044FEA4452CB
:1052200012F5800F80F09A80BCF1004F08BF5FEA52
:10523000500C50F1000041EB045141EA050130BD32
:105240005FEA4C0C404141EB010111F4801FA4F1D5
:105250000104E9D191F0000F04BF01460020B1FA2A
:1052600081F308BF2033A3F10B03B3F120020CDA62
:105270000C3208DD02F1140CC2F10C0201FA0CF040
:1052800021FA02F10CE002F11402D8BFC2F1200CA5
:1052900001FA02F120FA0CFCDCBF41EA0C0190405B
:1052A000E41AA2BF01EB0451294330BD6FEA0404A4
:1052B0001F3C1CDA0C340EDC04F11404C4F120028F
:1052C00020FA04F001FA02F340EA030021FA04F3A1
:1052D00045EA030130BDC4F10C04C4F1200220FAF8
:1052E00002F001FA04F340EA0300294630BD21FA36
:1052F00004F0294630BD94F0000F83F4801306BFFC
:1053000081F480110134013D4EE77FEA645C18BFEF
:105310007FEA655C29D094EA050F08BF90EA020F86
:1053200005D054EA000C04BF1946104630BD91EA7E
:10533000030F1EBF0021002030BD5FEA545C05D181
:105340004000494128BF41F0004130BD14F58004C0
:105350003CBF01F5801130BD01F0004545F0FE4134
:1053600041F470014FF0000030BD7FEA645C1ABF69
:10537000194610467FEA655C1CBF0B46024650EAA0
:10538000013406BF52EA033591EA030F41F40021CC
:1053900030BD00BF90F0000F04BF0021704730B552
:1053A0004FF4806404F132044FF000054FF0000127
:1053B00050E700BF90F0000F04BF0021704730B5E8
:1053C0004FF4806404F1320410F0004548BF4042BD
:1053D0004FF000013EE700BF42004FEAE2014FEA12
:1053E00031014FEA02701FBF12F07F4393F07F4FED
:1053F00081F06051704792F0000F14BF93F07F4F1F
:10540000704730B54FF4607401F0004521F0004161
:1054100020E700BF50EA010208BF704730B54FF0E7
:1054200000050AE050EA010208BF704730B511F0EC
:10543000004502D5404261EB41014FF4806404F124
:1054400032045FEA915C3FF4DCAE4FF003025FEAA6
:10545000DC0C18BF03325FEADC0C18BF033202EB2E
:10546000DC02C2F1200300FA03FC20FA02F001FA88
:1054700003FE40EA0E0021FA02F11444C1E600BF27
:1054800070B54FF0FF0C4CF4E06C1CEA11541DBFDA
:105490001CEA135594EA0C0F95EA0C0F00F0DEF8A5
:1054A0002C4481EA030621EA4C5123EA4C5350EA8A
:1054B000013518BF52EA033541F4801143F48013DB
:1054C00038D0A0FB02CE4FF00005E1FB02E506F06C
:1054D0000042E0FB03E54FF00006E1FB03569CF0C1
:1054E000000F18BF4EF0010EA4F1FF04B6F5007FC7
:1054F00064F5407404D25FEA4E0E6D4146EB060639
:1055000042EAC62141EA55514FEAC52040EA5E50C1
:105510004FEACE2EB4F1FD0C88BFBCF5E06F1ED86B
:10552000BEF1004F08BF5FEA500E50F1000041EBA2
:10553000045170BD06F0004646EA010140EA02004F
:1055400081EA0301B4EB5C04C2BFD4EB0C0541EA71
:10555000045170BD41F480114FF0000E013C00F386
:10556000AB8014F1360FDEBF002001F0004170BDAA
:10557000C4F10004203C35DA0C341BDC04F11404C3
:10558000C4F1200500FA05F320FA04F001FA05F24F
:1055900040EA020001F0004221F0004110EBD3701C
:1055A00021FA04F642EB06015EEA430E08BF20EA48
:1055B000D37070BDC4F10C04C4F1200500FA04F3EB
:1055C00020FA05F001FA04F240EA020001F000417D
:1055D00010EBD37041F100015EEA430E08BF20EAF0
:1055E000D37070BDC4F1200500FA05F24EEA020E38
:1055F00020FA04F301FA05F243EA020321FA04F067
:1056000001F0004121FA04F220EA020000EBD3701D
:105610005EEA430E08BF20EAD37070BD94F0000F1D
:105620000FD101F00046400041EB010111F4801F51
:1056300008BF013CF7D041EA060195F0000F18BF02
:10564000704703F00046520043EB030313F4801F3E
:1056500008BF013DF7D043EA0603704794EA0C0FF8
:105660000CEA135518BF95EA0C0F0CD050EA41060E
:1056700018BF52EA4306D1D181EA030101F000418B
:105680004FF0000070BD50EA410606BF10461946B3
:1056900052EA430619D094EA0C0F02D150EA0136BF
:1056A00013D195EA0C0F05D152EA03361CBF104600
:1056B00019460AD181EA030101F0004141F0FE419F
:1056C00041F470014FF0000070BD41F0FE4141F423
:1056D000780170BD70B54FF0FF0C4CF4E06C1CEA23
:1056E00011541DBF1CEA135594EA0C0F95EA0C0FD8
:1056F00000F0A7F8A4EB050481EA030E52EA033593
:105700004FEA013100F088804FEA03334FF08055B3
:1057100045EA131343EA12634FEA022245EA1115E0
:1057200045EA10654FEA00260EF000419D4208BF91
:10573000964244F1FD0404F5407402D25B084FEA3E
:105740003202B61A65EB03055B084FEA32024FF4EA
:1057500080104FF4002CB6EB020E75EB030E22BF47
:10576000B61A754640EA0C005B084FEA3202B6EB07
:10577000020E75EB030E22BFB61A754640EA5C00B6
:105780005B084FEA3202B6EB020E75EB030E22BF46
:10579000B61A754640EA9C005B084FEA3202B6EB47
:1057A000020E75EB030E22BFB61A754640EADC0006
:1057B00055EA060E18D04FEA051545EA16754FEA68
:1057C00006164FEAC30343EA52734FEAC2025FEA86
:1057D0001C1CC0D111F4801F0BD141EA00014FF015
:1057E00000004FF0004CB6E711F4801F04BF0143E6
:1057F0000020B4F1FD0C88BFBCF5E06F3FF6AFAE02
:10580000B5EB030C04BFB6EB020C5FEA500C50F191
:10581000000041EB045170BD0EF0004E4EEA113114
:1058200014EB5C04C2BFD4EB0C0541EA045170BD1B
:1058300041F480114FF0000E013C90E645EA060E5F
:105840008DE60CEA135594EA0C0F08BF95EA0C0F8D
:105850003FF43BAF94EA0C0F0AD150EA01347FF4D5
:1058600034AF95EA0C0F7FF425AF104619462CE7AC
:1058700095EA0C0F06D152EA03353FF4FDAE10460F
:10588000194622E750EA410618BF52EA43067FF460
:10589000C5AE50EA41047FF40DAF52EA43057FF4F0
:1058A000EBAE12E74FF0FF3C06E000BF4FF0010CFB
:1058B00002E000BF4FF0010C4DF804CD4FEA410C5F
:1058C0007FEA6C5C4FEA430C18BF7FEA6C5C1BD02C
:1058D00001B050EA410C0CBF52EA430C91EA030FAD
:1058E00002BF90EA020F0020704710F1000F91EA0A
:1058F000030F58BF994208BF90422CBFD8176FEAD8
:10590000E37040F0010070474FEA410C7FEA6C5CA5
:1059100002D150EA013C07D14FEA430C7FEA6C5CAC
:10592000D6D152EA033CD3D05DF8040B704700BFD8
:105930008446104662468C461946634600E000BF26
:1059400001B5FFF7B7FF002848BF10F1000F01BDF8
:105950004DF808EDFFF7F4FF0CBF012000205DF8C3
:1059600008FB00BF4DF808EDFFF7EAFF34BF012048
:1059700000205DF808FB00BF4DF808EDFFF7E0FFE1
:1059800094BF012000205DF808FB00BF4DF808ED32
:10599000FFF7CEFF94BF012000205DF808FB00BF99
:1059A0004DF808EDFFF7C4FF34BF012000205DF87B
:1059B00008FB00BF4FEA410212F5001215D211D5C3
:1059C0006FF47873B3EB625212D94FEAC12343F0FC
:1059D000004343EA505311F0004F23FA02F018BF7E
:1059E000404270474FF00000704750EA013005D147
:1059F00011F0004008BF6FF0004070474FF000000A
:105A0000704700BF80B582B000AF78607B68064AFF
:105A10001A600023002B02D0786800F059FB7B68E5
:105A200018460837BD4680BD58C2000880B582B010
:105A300000AF78607868FFF7E5FF786800F048FB12
:105A40007B6818460837BD4680BD00BF80B500AFF3
:105A500002484FF4E13101F049FE80BD44120020BC
:105A600080B500AF00F0E8FB0346034819460A2260
:105A700001F0F0F980BD00BF4412002080B584B071
:105A800002AF786039607B68012B11D13A684FF61C
:105A9000FF739A420CD10023009307480021002293
:105AA000002301F0B3F804480449054A04F0EBFD73
:105AB0000837BD4680BD00BF3C020020055A0008E3
:105AC000A803002080B500AF01204FF6FF71FFF75B
:105AD000D5FF80BD80B500AF214B1B88032B08D8B4
:105AE0001F4B04221A801E4B1B880420194603F00A
:105AF000B5FA4FF000604FF4A04103F0A5FA194B3E
:105B000001221A7002F0E6FE02F02AFC4020012178
:105B100003F062FC6FF07F4002F08CFDE72002F0A2
:105B2000FDFD114B01221A7002F05CFC7D2003F098
:105B300077FC0346002B0CBF00230123DBB2002BB4
:105B400004D00A4B01221A7003F07EFC40F6B830F4
:105B500002F0A2FC03F016F803F07EF880BD00BF4F
:105B6000B01200208C1200204C020020C81200202D
:105B700080B500AF224B1B88042B08D8204B052290
:105B80001A801F4B1B880420194603F067FA1D4B2F
:105B90001B78012B14D01C4B002B11D0184B1B88E9
:105BA000062B08D8164B07221A80154B1B88042099
:105BB000194603F053FAFFF749FF124B01221A70FE
:105BC000124B002B1BD00E4B1B88072B08D80C4BFD
:105BD00008221A800A4B1B880420194603F03EFA5B
:105BE000FFF73EFF064B1B88082B08D8044B092201
:105BF0001A80034B1B880420194603F02FFAC6E7CE
:105C0000B0120020A60300204D5A0008615A000877
:105C100080B500AF334B1B68002B0CBF0023012362
:105C2000DBB2002B04D02F4B1B685A1E2D4B1A6081
:105C30002D4B1B78002B0FD02C4B1B78DBB2002B8D
:105C400004D02B4B002B01D0012300E00023002BBC
:105C500021D000F08BFA1EE0264B1B68002B0CBFF6
:105C600000230123DBB2002B05D0224B1B685A1EF8
:105C7000204B1A600FE0204B1B78DBB2002B0CBFCF
:105C800000230123DBB2002B05D0E72002F06CFDDE
:105C9000184B14221A60194B1A6840F2E7339A42E3
:105CA00094BF00230123DBB2002B15D0134B00223D
:105CB0001A6003F031FB124B1A884FF6FF739A42B9
:105CC0000FD00F4B4FF6FF721A800D4B1B8804202C
:105CD000194603F0C3F904E0084B1B685A1C074B34
:105CE0001A6080BDD01200206C120020E80C002049
:105CF0006D610008CC1200204C020020D41200205C
:105D0000B012002080B582B000AF7860094B7A688D
:105D10001A6002F0DDFE002002F026FF064802F0C5
:105D20003BFB02F0EDFE02F00BFF04F069FA0837CE
:105D3000BD4680BDA0000020A086010080B400AF59
:105D40000D4B1B68052B14BF00230123DBB2002B76
:105D50000CD00A4B1B78012B08D1094B1B88DAB2F7
:105D6000084B1B88DBB2D31ADBB200E000231846D5
:105D7000BD465DF8047B7047B4120020A5030020E7
:105D8000A0030020A203002080B500AF134B1B68C6
:105D9000052B14BF00230123DBB2002B1AD0104BBC
:105DA0001B78012B16D10F4B1B881A460E4B1B88F4
:105DB000D31A012B05D10A4B00221A70032004F0DC
:105DC00076FB094B1B885A1C91B2074A1180074A7F
:105DD000D35C01E04FF0FF33184680BDB4120020C1
:105DE000A5030020A0030020A203002060030020E0
:105DF00080B582B000AF0346FB71154B1B68052BC5
:105E000014BF00230123DBB2002B1ED0114B1B68F3
:105E1000114AF979D1540F4B1B685A1C0D4B1A606B
:105E20000C4B1B68B3F5807F02D10A4B00221A602D
:105E300002F0B8FD0346002B0CBF00230123DBB2A8
:105E4000002B02D0642002F0A7FA0837BD4680BDBF
:105E5000B4120020540300205402002080B582B008
:105E600000AF334B1B78012B5FD0324B1B68B3F56F
:105E7000807F02D12F4B00221A602E4B1A682E4BC6
:105E80001B689A4203D12A4B00221A704DE0294B1D
:105E90001A68294B1B689A4206D9264B1B68C3F522
:105EA0008072264B1A6006E0234B1A68214B1B6850
:105EB000D21A224B1A60214B1B68402B11D91D4B63
:105EC0001B68FB804023BB801A4B1B6803F1400218
:105ED000184B1A60194B1B68A3F14002174B1A604C
:105EE0000FE0144B1B68FB80144B1B68BB80114BED
:105EF0001A68124B1B681A440E4B1A600F4B002293
:105F00001A600B4B01221A70FA880D4B1A44BB8899
:105F10001046C0211A4604F045FABB8801201946F4
:105F200004F048FB012004F0AFFA0837BD4680BDFD
:105F3000A403002058030020540300205C03002029
:105F40005402002080B584B000AF0E4B1B68FB608C
:105F50000D4B1B68BB600D4B1B687B60FA687B6850
:105F60001344FB60FB68002B09D0F868084908223D
:105F700000F012F8B8680749042200F00DF8103755
:105F8000BD4680BDE8F7FF1FECF7FF1FF0F7FF1FCE
:105F90004E0000205E00002080B487B000AFF860A3
:105FA000B9601346FB710023FB750023FB7525E0E8
:105FB000FB681B0F092B0AD8FB7D5B00BA681344F2
:105FC000FA68120FD2B23032D2B21A7009E0FB7DF9
:105FD0005B00BA681344FA68120FD2B23732D2B2F9
:105FE0001A70FB681B01FB60FB7D5B000133BA6824
:105FF000134400221A70FB7D0133FB75FA7DFB7997
:106000009A42D5D31C37BD465DF8047B704700BF6C
:1060100080B584B002AF786039607B68012B11D104
:106020003A684FF6FF739A420CD100230093074859
:1060300000210022002300F0E9FD04480449054A3C
:1060400004F021FB0837BD4680BD00BF440200209C
:10605000055A0008A803002080B500AF01204FF6C4
:10606000FF71FFF7D5FF80BD80B584B000AF7860C9
:1060700039607B68FB6007E0FB681B68BB60BB683E
:106080009847FB680433FB60FA683B689A42F3D395
:106090001037BD4680BD00BF80B500AF0648074938
:1060A000FFF7E2FF06480749FFF7DEFF064807490A
:1060B000FFF7DAFF80BD00BF2CC600082CC6000821
:1060C0002CC600086CC600086CC600086CC6000828
:1060D00080B582B000AF7860786804F021FB0837A3
:1060E000BD4680BD80B582B000AF7860072002F069
:1060F000D7FEFEE780B584B000AF78600B4B1B681D
:10610000FB600A4B1A687B681A44084B1A60074BFD
:106110001A68074B9A4204D9082002F0C1FE04F025
:10612000DFFAFB6818461037BD4680BD000000202E
:106130000048002080B483B000AF786039604FF031
:10614000FF3318460C37BD465DF8047B704700BF2F
:1061500080B400AF01231846BD465DF8047B70474C
:1061600080B500AF0C2002F09BFEFEE780B500AFCB
:10617000154B1B68002B0CBF00230123DBB2002B47
:1061800005D0114B1B685A1E0F4B1A601BE00F4BBA
:106190001A680F4B53F82230184602F073FAE720C2
:1061A00002F0BCFA084B64221A60084B1B685A1CA8
:1061B000064B1A60054B1A68064B1B689A4202DBB5
:1061C000024B00221A6080BDEC0C0020F00C002075
:1061D00008C200080800002080B584B002AF7860D3
:1061E00039607B68012B14D13A684FF6FF739A42ED
:1061F0000FD100230093084800210022002300F063
:1062000005FD05480549064A04F03DFA054804F035
:1062100025FA0837BD4680BDAC030020055A0008AA
:10622000A8030020B403002080B500AF01204FF682
:10623000FF71FFF7D1FF80BD80B500AF02F0D2FC47
:106240000346184680BD00BF80B584B002AF7860B9
:1062500039607B68012B11D13A684FF6FF739A427F
:106260000CD100230093074800210022002300F0F6
:10627000CDFC04480449054A04F005FA0837BD4638
:1062800080BD00BF2C0F0020055A0008A803002085
:1062900080B500AF01204FF6FF71FFF7D5FF80BD3D
:1062A00080B584B000AF06237B8106233B810023A9
:1062B000FB810023FB800023BB804FF6FF73BB8173
:1062C00002F03EFF984B1B887B81984B1B883B81DB
:1062D0007B894EF6EE62934238D04FF6FF729342BE
:1062E00003D0002B00F0AA8015E13B89002B09D1D7
:1062F0008D4802F057FF03467B807B88042B24D017
:106300007B881FE13A894EF6EE639A4214D18648A3
:1063100002F048FF03467B807B88042B01D07B88FA
:1063200010E18248002102F05BFF03467B807B88FE
:10633000042B0AD07B8805E100F052F903467B80EC
:106340007B88042B01D07B88FCE0FAE03B89002BA2
:1063500050D10023FB8135E0754B1B889AB2F98937
:10636000744B33F811309A4214BF00230123DBB27F
:10637000002B01D0FB89BB81FA89B7F90C309A4216
:106380001DD0FA896B4B33F8123018466A4900F079
:10639000DDF80346BB80BB88012B10D0FA89654B22
:1063A00033F81220644B1B881046194600F086F91A
:1063B0000346FB80FB88042B01D0FB88C2E0FB89ED
:1063C0000133FB81FB89632BC6D95748002102F0BA
:1063D00007FF03467B807B88042B01D07B88B1E0DC
:1063E000524802F0DFFE03467B807B88042B24D0DA
:1063F0007B88A7E03A894FF6FF739A4214D14B4845
:1064000002F0D0FE03467B807B88042B01D07B8882
:1064100098E04548002102F0E3FE03467B807B883C
:10642000042B0AD07B888DE000F0DAF803467B80ED
:106430007B88042B01D07B8884E082E03B89002BA1
:1064400008D100F0CDF803467B807B88042B61D017
:106450007B8877E03A894FF6FF739A4209D1334837
:1064600002F0A0FE03467B807B88042B52D07B8801
:1064700068E00023FB8135E0304B1B889AB2F98934
:106480002C4B33F811309A4214BF00230123DBB2A6
:10649000002B01D0FB89BB81FA89B7F90C309A42F5
:1064A0001DD0FA89234B33F812301846224900F0E8
:1064B0004DF80346BB80BB88012B10D0FA891D4BD9
:1064C00033F812201C4B1B881046194600F0F6F8D2
:1064D0000346FB80FB88042B01D0FB8832E0FB895C
:1064E0000133FB81FB89632BC6D91048002102F0E0
:1064F00077FE03467B807B88042B01D07B8821E0DC
:10650000094802F04FFE03467B807B88042B01D0B4
:106510007B8817E015E000F063F803467B807B88FA
:10652000042B0DD07B880DE00040000800440008DB
:1065300006400008600F00205C0F002006440008A1
:1065400000BF042318461037BD4680BD80B586B015
:1065500000AF03463960FB800023FB810023BB8131
:106560000123FB821C4B3B611B4BBB60002000F0F6
:106570005FF80346FB81FB89AB2B01D1AB2327E0FE
:10658000FB899B0203F1006303F58043BB60FB8939
:1065900001339B021A46114B13443B6112E03B69E5
:1065A0001B88BB81BA89FB889A4208D13B69023BB0
:1065B0001B889AB23B681A800023FB8207E03B6984
:1065C000043B3B61BB689A1C3B699A42E7D3FB8A58
:1065D00018461837BD4680BD00400008FE3F000841
:1065E00080B582B000AF0423FB710F4802F0DAFDE2
:1065F0000346FB71FB79042B01D0FB7910E00A48BC
:10660000002102F0EDFD0346FB71FB79042B01D064
:10661000FB7905E0054802F0C5FD0346FB71FB79F7
:1066200018460837BD4680BD0040000800440008F9
:1066300080B485B000AF0346FB710623FB810623BF
:10664000BB811C4B1B88FB811B4B1B88BB81FB79CF
:10665000002B1BD0012B25D1BB89002B08D1FA8937
:106660004EF6EE639A4201D100231CE001231AE0AA
:10667000FB89002B08D1BA894EF6EE639A4201D10C
:10668000012310E000230EE0AB230CE0FB89002B7C
:1066900001D1002307E0BB89002B01D1012302E0D7
:1066A000AB2300E0002318461437BD465DF8047B99
:1066B000704700BF004000080044000880B586B065
:1066C00000AF02460B46FA80BB800423FB74002314
:1066D0003B82264B7B61264BFB600120FFF7A8FF26
:1066E00003463B823B8AAB2B01D1AB2339E03B8A8B
:1066F0009B0203F1006303F580437B613B8A013316
:106700009B021A461B4B1344FB6025E07B691B6808
:10671000B3F1FF3F14BF00230123DBB2002B18D0DD
:10672000BB887869194602F05BFD0346FB74FB7C6D
:10673000042B02D0FB7C9BB213E07B699A1CFB8884
:106740001046194602F04CFD0346FB74FB7C9BB2DD
:1067500007E07B6904337B617A69FB689A42D5D391
:10676000802318461837BD4680BD00BF0040000892
:10677000FF470008FE3F000880B584B000AF786096
:10678000FFF78EFD0023FB8107E0FA89074BF989AB
:1067900023F81210FB890133FB81FB89632BF4D9A9
:1067A0007B6818461037BD4680BD00BF600F0020D3
:1067B00080B582B000AF786039607B68012B07D16B
:1067C0003A684FF6FF739A4202D10348FFF7D4FFAD
:1067D0000837BD4680BD00BF2810002080B500AF3F
:1067E00001204FF6FF71FFF7E3FF80BD80B483B057
:1067F00000AF786039607B683A685A600C37BD46F4
:106800005DF8047B704700BF80B483B000AF786050
:106810007B68064A1A607B6800225A607B681846CB
:106820000C37BD465DF8047B704700BF80C200088E
:1068300080B582B000AF78607B68064A1A6000239A
:10684000002B02D07868FFF743FC7B6818460837B6
:10685000BD4680BD80C2000880B582B000AF7860C0
:106860007868FFF7E5FF7868FFF732FC7B68184629
:106870000837BD4680BD00BF80B582B000AF7860EC
:106880007B681846FFF7C0FF7B68054A1A607B6883
:106890004FF47A729A607B6818460837BD4680BD0F
:1068A00070C4000880B582B000AF78607B68084A89
:1068B0001A607B681846FFF7BBFF0023002B02D04D
:1068C0007868FFF705FC7B6818460837BD4680BD31
:1068D00070C4000880B582B000AF78607868FFF7B8
:1068E000E1FF7868FFF7F4FB7B6818460837BD4680
:1068F00080BD00BF80B582B000AF78607B6818466D
:10690000FFF7BAFF7B68034A1A607B6818460837AE
:10691000BD4680BD30C2000880B582B000AF78604F
:106920000B46FB70114B1B78002B19D0104B1B78BA
:106930001F2B06D97B6818460121FFF757FF00235C
:106940000FE00C4B1B780C4AF978D154094B1B789B
:106950000133DAB2074B1A70064B1A78044B1A70DF
:10696000012318460837BD4680BD00BF8E100020A9
:106970008D1000208C1000206C10002080B586B097
:1069800000AFF860B9607A600E4B1B78002B14D012
:1069900000237B610DE0FB681B6808331B68B96846
:1069A0007A690A441278F868114698477B6901337E
:1069B0007B617A697B689A42EDD37B681846183709
:1069C000BD4680BD8E10002080B483B000AF7860DB
:1069D000054B1B781A46054B1B78D31A18460C3703
:1069E000BD465DF8047B70476910002068100020E8
:1069F00080B485B000AF78604FF0FF33FB600C4B84
:106A00001A780C4B1B789A420AD2094B1B780A4A17
:106A1000D35CFB60064B1B780133DAB2044B1A706F
:106A2000FB6818461437BD465DF8047B704700BF0D
:106A300068100020691000204810002080B485B044
:106A400000AF78604FF0FF33FB60094B1A78094BB9
:106A50001B789A4204D2064B1B78074AD35CFB6032
:106A6000FB6818461437BD465DF8047B704700BFCD
:106A700068100020691000204810002080B483B006
:106A800000AF78600C37BD465DF8047B704700BFEF
:106A900080B400AFBD465DF8047B704780B400AFA2
:106AA000BD465DF8047B704780B582B000AF78606A
:106AB0007B68084A1A607B681846FFF7F3FE0023DC
:106AC000002B02D07868FFF703FB7B681846083775
:106AD000BD4680BD30C2000880B582B000AF78608E
:106AE0007868FFF7E1FF7868FFF7F2FA7B681846ED
:106AF0000837BD4680BD00BF80B584B002AF786066
:106B000039607B68012B19D13A684FF6FF739A42BE
:106B100014D1002300930B4800210022002300F031
:106B200075F808480849094A03F0ADFD0848FFF721
:106B3000E1FE07480749054A03F0A5FD0837BD46B1
:106B400080BD00BF2C100020055A0008A8030020BB
:106B500098100020A96A000880B500AF01204FF608
:106B6000FF71FFF7C9FF80BD80B584B000AF034659
:106B7000FB71FA79064B53F82230FB60FB68002B5F
:106B800000D101E0FB6898471037BD4680BD00BFCB
:106B9000B010002080B584B002AF786039607B68A7
:106BA000012B11D13A684FF6FF739A420CD10023A2
:106BB0000093074800210022002300F027F8044832
:106BC0000449054A03F05FFD0837BD4680BD00BF9C
:106BD000A8100020055A0008A803002080B500AFC7
:106BE00001204FF6FF71FFF7D5FF80BD80B483B061
:106BF00000AF78607B68044A1A607B6818460C37DF
:106C0000BD465DF8047B704798C4000880B582B02B
:106C100000AF7860F970BA707B707B681846FFF738
:106C2000E5FF7B68094A1A607B68FA781A717B680D
:106C3000BA785A717B687A789A717B683A7CDA7193
:106C40007B6818460837BD4680BD00BF58C20008A3
:106C500080B584B000AF786039600023FB6000230A
:106C6000BB6017E07A68BB6813441B793868194623
:106C70000A2200F0A7F80346FA681344FB6038685C
:106C80002E2100F08BF80346FA681344FB60BB68C2
:106C90000133BB60BB68022BE4DD7B68DB793868BD
:106CA00019460A2200F08EF80346FA681344FB6086
:106CB000FB6818461037BD4680BD00BF80B584B064
:106CC00002AF786039607B68012B11D13A684FF6CA
:106CD000FF739A420CD10023009307480021002241
:106CE0000023FFF793FF04480449054A03F0CBFC57
:106CF0000837BD4680BD00BFF0100020055A0008CF
:106D0000A803002080B500AF01204FF6FF71FFF708
:106D1000D5FF80BD90B583B000AF786039603B6827
:106D2000002B01D100230CE07B681B680C331C682E
:106D3000386803F0FBFD0346786839681A46A047B7
:106D4000034618460C37BD4690BD00BF80B586B0DF
:106D500000AFF860B9607A6000237B610EE0FB68E9
:106D60001B6808331A68BB68591CB9601B78F8683F
:106D70001946904703467A6913447B617B685A1E23
:106D80007A60002B0CBF00230123DBB2002BE6D17D
:106D90007B6918461837BD4680BD00BF80B582B0FC
:106DA00000AF78600B46FB707B681B6808331B687C
:106DB000FA78786811469847034618460837BD4662
:106DC00080BD00BF80B584B000AFF8600B467A602C
:106DD000FB72FB7AF86819467A6800F005F80346FA
:106DE00018461037BD4680BD80B584B000AFF8604E
:106DF000B9607A607B68002B0AD1FB681B68083396
:106E00001B68BA68D2B2F86811469847034607E093
:106E10007B68DBB2F868B9681A4600F033F80346BD
:106E200018461037BD4680BD80B584B000AF78608D
:106E300078680D21FFF7B2FFF86078680A21FFF744
:106E4000ADFF0346FA681344FB60FB681846103731
:106E5000BD4680BD80B586B000AFF860B9607A608D
:106E6000F868B9687A68FFF7BFFF7861F868FFF7DC
:106E7000DBFF03467A6913447B617B691846183748
:106E8000BD4680BD80B590B000AFF860B9601346D4
:106E9000FB71202307F114021344FB63FB6B0022F8
:106EA0001A70FB79012B01D80A23FB71BB68BB6305
:106EB000FB79BA68B2FBF3F3BB60BB6BDAB2BB68B9
:106EC000DBB2F97901FB03F3DBB2D31A87F8373071
:106ED000FB6B013BFB6397F83730092B04D897F81D
:106EE00037303033DBB203E097F837303733DBB27B
:106EF000FA6B1370BB68002BD8D1F868F96BFFF7F9
:106F000009FF034618464037BD4680BD80B584B0B2
:106F100002AF786039607B68012B11D13A684FF677
:106F2000FF739A420CD100230093074800210022EE
:106F30000023FFF76BFE04480449054A03F0A3FB56
:106F40000837BD4680BD00BFF8100020055A000874
:106F5000A803002080B500AF01204FF6FF71FFF7B6
:106F6000D5FF80BD80B584B002AF786039607B68A2
:106F7000012B11D13A684FF6FF739A420CD10023CE
:106F800000930748002100220023FFF73FFE04483A
:106F90000449054A03F077FB0837BD4680BD00BFB2
:106FA00000110020055A0008A803002080B500AF9A
:106FB00001204FF6FF71FFF7D5FF80BD80B400AF11
:106FC000BD465DF8047B704780B584B002AF786041
:106FD00039607B68012B11D13A684FF6FF739A42F2
:106FE0000CD1002300930748002100220023FFF763
:106FF0000DFE04480449054A03F045FB0837BD4629
:1070000080BD00BF08110020055A0008A803002019
:1070100080B500AF01204FF6FF71FFF7D5FF80BDAF
:1070200080B584B002AF786039607B68012B11D1E4
:107030003A684FF6FF739A420CD100230093074839
:10704000002100220023FFF7E1FD04480449054A1E
:1070500003F019FB0837BD4680BD00BF2C1100208E
:10706000055A0008A803002080B500AF01204FF6A4
:10707000FF71FFF7D5FF80BD80B582B000AF254B13
:107080001B78002B43D0234B5B78002B3FD000F0C4
:1070900043F8386001237B601E4B1B785BB2002BEA
:1070A00014DD1C4B5B781A461A4B1B785BB292FBC3
:1070B000F3F3012B1FDC7B68013B7B60154B1B78D6
:1070C000DBB2013BDAB2134B1A7014E0114B5B7860
:1070D0001A46104B1B785BB292FBF3F3B3F1FF3F00
:1070E00009DB7B6801337B600A4B1B78DBB2013321
:1070F000DAB2084B1A70074B5B78013BDAB2054BEA
:107100005A703A687B681344184600F011F8083743
:10711000BD4680BD3C11002080B582B000AF02F0BA
:10712000BBF903467B607B6818460837BD4680BDC7
:1071300080B582B000AF786002F0E0F97B68184655
:1071400002F0BCF902F0DAF90837BD4680BD00BF95
:1071500080B584B002AF786039607B68012B11D1B3
:107160003A684FF6FF739A420CD100230093074808
:10717000002100220023FFF749FD04480449054A85
:1071800003F081FA0837BD4680BD00BF34110020EE
:10719000055A0008A803002080B500AF01204FF673
:1071A000FF71FFF7D5FF80BD80B584B002AF786076
:1071B00039607B68012B11D13A684FF6FF739A4210
:1071C0000CD1002300930748002100220023FFF781
:1071D0001DFD04480449054A03F055FA0837BD4629
:1071E00080BD00BF70110020055A0008A8030020D0
:1071F00080B500AF01204FF6FF71FFF7D5FF80BDCE
:1072000080B582B000AF78607B68084A1A607B68FE
:107210001846FFF747FB0023002B02D07868FEF7E3
:1072200057FF7B6818460837BD4680BD98C20008E6
:1072300080B582B000AF78607868FFF7E1FF7868CA
:10724000FEF746FF7B6818460837BD4680BD00BF85
:1072500080B485B000AF03463960FB713B681B6C9E
:10726000013303F03F03FB603B685A6CFB689A42B2
:107270000CBF00230123DBB2002B07D03B681B6C43
:107280003A68F979D1543B68FA681A641437BD46F4
:107290005DF8047B704700BF80B582B000AF7860B6
:1072A00039607B681846FFF7E7FA7B68134A1A6073
:1072B0007B683A68C3F8A4207B68D3F8A4307A6866
:1072C0001432DA617B68D3F8A4307A685C329A6150
:1072D0007B68143318460021482203F032FA7B6899
:1072E0005C3318460021482203F02BFA7B68002209
:1072F0001A747B6818460837BD4680BD98C20008DE
:1073000080B483B000AF78607B685A6D7B689B6DFA
:10731000D31A03F03F0318460C37BD465DF8047BD3
:10732000704700BF80B483B000AF78607B685A6D4F
:107330007B689B6D9A4214BF00230123DBB2002BB4
:1073400002D04FF0FF3304E07B689B6D7A681344F2
:107350001B7D18460C37BD465DF8047B704700BFA7
:1073600080B485B000AF78607B685A6D7B689B6D98
:107370009A4214BF00230123DBB2002B02D04FF04E
:10738000FF330DE07B689B6D7A6813441B7DFB73B4
:107390007B689B6D013303F03F027B689A65FB7B42
:1073A00018461437BD465DF8047B704780B582B03F
:1073B00000AF786000BF7B68D3F89C207B68D3F86F
:1073C000A0309A420CBF00230123DBB2002BF2D184
:1073D00000BF7B681B7C002B0CD07B68D3F8A430EB
:1073E0001B681846402102F0CCFA0346002B01D15D
:1073F000012300E00023002BEBD17B6800221A74EC
:107400000837BD4680BD00BF80B584B000AF78604E
:107410000B46FB707B68D3F8A4301B68184640F21B
:10742000277102F0B4FA0346002B09D17B68D3F828
:107430009C207B68D3F8A0309A4201D0012300E061
:107440000023002B09D07B68D3F8A4301B681846B2
:1074500040F22771012202F074FA7B68D3F89C3065
:10746000013303F03F03FB604AE07B68D3F8A430AC
:107470001B68184640F2277102F089FA0346002B78
:107480000CD07B68D3F8A4301B681846802102F02A
:1074900078FA0346002B01D0012300E00023002BE3
:1074A0002ED07B68D3F8A4301B68184640F22771B1
:1074B000002202F046FA7B68D3F8A4301A687B6891
:1074C000D3F8A030581C7968C1F8A00079680B4443
:1074D00093F85C301046194602F04BFA7B68D3F8FB
:1074E000A03003F03F027B68C3F8A0207B68D3F88C
:1074F000A4301B68184640F22771012202F021FADD
:107500007B68D3F8A020FB689A420FD0EFF310837A
:10751000BB60BB6803F00103002B09D07B68D3F884
:107520009C207B68D3F8A0309A4201D0012300E070
:107530000023002B99D17B68D3F89C307A681344E0
:10754000FA7883F85C207B68FA68C3F89C207B6833
:1075500001221A747B68D3F8A4301B68184640F2E5
:107560002771012202F0EDF9012318461037BD46BC
:1075700080BD00BF90B585B000AF78607B681B68A8
:10758000184640F2255102F002FA0346002B0CBFC8
:1075900000230123DBB2002B0DD07B681B6818464B
:1075A00002F0EBF90346FB737B68DB69FA7B10465C
:1075B0001946FFF74DFE7B681B68184640F227719D
:1075C00002F0E5F90346002B0CBF00230123DBB2D8
:1075D000002B2BD07B689B691A6C7B689B695B6C6A
:1075E0009A4214BF00230123DBB2002B08D07B6832
:1075F0001B68184640F22771002202F0A2F915E03C
:107600007B6819687B6898697B689A69536C5C1C15
:107610005464C35C0846194602F0ABF97B689B6969
:107620007A689269526C02F03F025A641437BD4680
:1076300090BD00BF80B500AF0148FFF79BFF80BD44
:107640000C00002080B500AF0148FFF793FF80BD1C
:107650002C00002080B584B002AF786039607B6870
:10766000012B1AD13A684FF6FF739A4215D10023C5
:1076700000930B48002100220023FFF7C7FA0848B7
:107680000849094A02F0FFFF08480949FFF704FECC
:1076900006480849044A02F0F6FF0837BD4680BD97
:1076A00078110020055A0008A8030020941100203A
:1076B0000C0000200172000880B500AF01204FF6D9
:1076C000FF71FFF7C7FF80BD80B582B000AF786063
:1076D0007B681846FFF7D0F87B68034A1A607B681E
:1076E00018460837BD4680BDC0C2000880B582B0CC
:1076F00000AF786039603B681846FEF703FB083737
:10770000BD4680BD80B582B000AF7860FEF73CFB1F
:10771000034618460837BD4680BD00BF80B582B01D
:1077200000AF7860FEF70AFB034618460837BD46EF
:1077300080BD00BF80B582B000AF78600B46FB70A3
:10774000FB781846FEF754FB012318460837BD4660
:1077500080BD00BF80B483B000AF78600C37BD46F9
:107760005DF8047B704700BF80B483B000AF7860E1
:107770004FF0FF3318460C37BD465DF8047B704769
:1077800080B582B000AF78607B68084A1A607B6879
:107790001846FFF787F80023002B02D07868FEF721
:1077A00097FC7B6818460837BD4680BDC0C20008FC
:1077B00080B582B000AF78607868FFF7E1FF786845
:1077C000FEF786FC7B6818460837BD4680BD00BFC3
:1077D00080B584B002AF786039607B68012B19D125
:1077E0003A684FF6FF739A4214D1002300930B4876
:1077F000002100220023FFF709FA08480849094A36
:1078000002F041FF0848FFF75FFF07480749054AB4
:1078100002F039FF0837BD4680BD00BF3C12002092
:10782000055A0008A80300204412002081770008B0
:1078300080B500AF01204FF6FF71FFF7C9FF80BD93
:1078400080B400AFBD465DF8047B704780B500AFE3
:10785000012001F025FBFEE780B500AF032001F019
:107860001FFBFEE780B500AF042001F019FBFEE727
:1078700080B500AF052001F013FBFEE780B400AF38
:10788000BD465DF8047B704780B400AFBD465DF82F
:10789000047B704780B400AFBD465DF8047B704741
:1078A00080B500AF01F096F9FEF7B2F980BD00BFD8
:1078B00080B500AF024B002B01D0AFF3008080BD3C
:1078C0000000000080B500AF024B002B01D0FFF795
:1078D000B9FE80BD4576000880B500AF024B002B95
:1078E00001D0FFF7A7FE80BD3576000880B500AF58
:1078F000024B002B01D0FFF7CBF880BD916A000846
:1079000080B500AF024B002B01D0FFF7C7F880BD58
:107910009D6A000880B500AF024B002B01D0FFF735
:107920004DFB80BDBD6F000880B500AF012001F0A8
:10793000F3FB0346002B0CBF00230123DBB2002B1B
:1079400008D0012001F0F6FB034B002B02D00020F1
:10795000FFF70AF980BD00BF696B000880B500AF72
:10796000022001F0D9FB0346002B0CBF00230123AA
:10797000DBB2002B08D0022001F0DCFB034B002B14
:1079800002D00120FFF7F0F880BD00BF696B00084E
:1079900080B500AF042001F0BFFB0346002B0CBFF5
:1079A00000230123DBB2002B0ED0042001F0C2FB28
:1079B000064B00221A800020002100F017FF044827
:1079C0001021012201F075FF80BD00BF8812002048
:1079D000002C014080B500AF082001F09DFB03465C
:1079E000002B0CBF00230123DBB2002B08D00820A2
:1079F00001F0A0FB034B002B02D00320FFF7B4F8EB
:107A000080BD00BF696B000880B500AF102001F099
:107A100083FB0346002B0CBF00230123DBB2002BAA
:107A200008D0102001F086FB034B002B02D004206D
:107A3000FFF79AF880BD00BF696B000880B500AF02
:107A4000202001F069FB0346002B0CBF002301231B
:107A5000DBB2002B08D0202001F06CFB174B002B71
:107A600002D00520FFF780F8402001F055FB0346C7
:107A7000002B0CBF00230123DBB2002B08D04020D9
:107A800001F058FB0D4B002B02D00620FFF76CF8DD
:107A9000802001F041FB0346002B0CBF0023012393
:107AA000DBB2002B08D0802001F044FB034B002BFD
:107AB00002D00720FFF758F880BD00BF696B0008AF
:107AC00080B500AF4FF4005001F026FB0346002BB9
:107AD0000CBF00230123DBB2002B09D04FF4005070
:107AE00001F028FB224B002B02D00D20FFF73CF8C1
:107AF0004FF4804001F010FB0346002B0CBF002325
:107B00000123DBB2002B09D04FF4804001F012FBBF
:107B1000174B002B02D00E20FFF726F84FF4004041
:107B200001F0FAFA0346002B0CBF00230123DBB25D
:107B3000002B09D04FF4004001F0FCFA0C4B002B55
:107B400002D00F20FFF710F84FF4006001F0E4FAC4
:107B50000346002B0CBF00230123DBB2002B05D012
:107B60004FF4006001F0E6FA00F0D3FB80BD00BFE7
:107B7000696B000880B500AF1648102101F0D2FEF5
:107B80000346002B0CBF00230123DBB2002B1FD0C8
:107B90001048102101F0D1FE002000F0EBFE03465A
:107BA000002B14BF00230123DBB2002B07D00A4BAC
:107BB0001B889BB20A339AB2074B1A8008E005482B
:107BC0001021002201F075FE0020012100F00EFEC0
:107BD00080BD00BF002C01408812002080B500AF9E
:107BE000034B1B68002B02D0014B1B68984780BDDC
:107BF0005412002080B500AF034B1B68002B02D04D
:107C0000014B1B68984780BD5812002080B500AF1B
:107C1000034B1B68002B02D0014B1B68984780BDAB
:107C20005C12002080B500AF012001F07DFC03460E
:107C3000002B0CBF00230123DBB2002B09D0012055
:107C400001F082FC034B002B01D0FFF715FA01F085
:107C500055FC80BD7970000880B500AF022001F0AE
:107C600063FC0346002B0CBF00230123DBB2002B77
:107C700018D04FF4003001F05DFA012001F076FBDE
:107C80000346002B0CBF00230123DBB2002B02D0E4
:107C9000012001F075FB01F031FC022001F054FCE1
:107CA00001F02CFC80BD00BF80B500AF00F030FBC0
:107CB00080BD00BF80B500AF00F096F880BD00BF6A
:107CC00080B582B000AF234B1B78012B3ED1224BF5
:107CD0001B68002B03D11F4B00221A7036E01E4B8D
:107CE0001B68402B11D91D4B1B68FB804023BB80B8
:107CF0001A4B1B6803F14002184B1A60164B1B68A5
:107D0000A3F14002144B1A600FE0144B1B68FB8078
:107D1000114B1B68BB80114B1A680F4B1B681A4430
:107D20000E4B1A600C4B00221A60FA880C4B1A4456
:107D3000BB881046C0211A4602F034FBBB880120E4
:107D4000194602F037FC012002F09EFB0837BD46C1
:107D500080BD00BFA40300205C0300205803002066
:107D60005402002080B500AF0A4B01221A700A4B62
:107D700000221A80032002F04BFC03461A46074BF0
:107D80001A80064B1B8806484FF488711A4602F089
:107D900021FB80BDA5030020A2030020A00300203A
:107DA0006003002080B500AF0D4B1B68052B14BF8E
:107DB00000230123DBB2002B10D00A4B1B68591C97
:107DC000084A1160052B14BF00230123DBB2002BEE
:107DD00004D0044B00221A60FEF740F880BD00BFBB
:107DE000B41200206012002080B500AF524B1B6817
:107DF0009AB2524B1A80514B1B889BB203F400720B
:107E00004F4B1B881340002B0CBF00230123DBB218
:107E1000002B0CD0484B4FF6FF521A60494B1B7891
:107E2000DBB20133DAB2474B1A70FFF7BBFF434BAB
:107E30001B889BB203F40042414B1B881340002B6C
:107E40000CBF00230123DBB2002B01D002F0F4F9B8
:107E50003A4B1B889BB203F48062394B1B8813405A
:107E6000002B0CBF00230123DBB2002B06D0324BCA
:107E70004FF6FF321A60344B5B6898472F4B1B88D4
:107E80009BB203F400522E4B1B881340002B0CBFF7
:107E900000230123DBB2002B03D0274B4DF6FF72EA
:107EA0001A60264B1B889BB203F48052244B1B881C
:107EB0001340002B0CBF00230123DBB2002B06D0A4
:107EC0001D4B4EF6FF721A60002000F0A7FF1B4BFF
:107ED0001B889BB203F40062194B1B881340002BD4
:107EE0000CBF00230123DBB2002B0ED0174B1B78F5
:107EF000DBB2002B02D000F071FF02E0022000F0A4
:107F00008DFF0D4B4FF2FF721A600C4B1B889BB21A
:107F100003F480720A4B1B881340002B0CBF002314
:107F20000123DBB2002B06D0034B4FF6FF621A6031
:107F3000072000F073FF80BD445C00406412002005
:107F40001413002066120020AC0000209C010020C9
:107F500080B500AFFDF7F6FF054B1B6800229A7253
:107F600000F024FF02F06AFB024B00221A6080BD81
:107F700010130020B412002080B500AF364B1B68F0
:107F800000229A72344B1B68344AD2795A72324BAF
:107F90001B680022DA72002002F02EFA00204FF453
:107FA000007102F031FA0020102102F03BFA0020AB
:107FB000402102F0D3FA0020802102F0BFFA002015
:107FC00002F088FA264B93F82C300020194602F074
:107FD000FFFA002002F06BFA0120002102F014FAEF
:107FE0000120C02102F0AAFA0120202102F01AFA91
:107FF0000120002102F02FFA02204FF4C06102F0AC
:1080000003FA02204FF4807102F098FA0220002156
:1080100002F021FA0220202102F004FA03200021BC
:1080200002F0F2F903204FF4887102F097FA03206E
:10803000402102F0CDFA03204FF4405102F00BFA38
:108040000320002102F0EEF9002002F089F8054B30
:1080500001221A6080BD00BF10130020F4C2000886
:10806000AC000020B412002080B483B000AF074BF6
:108070007B607B689B7A002B02D0054B05221A603F
:108080000C37BD465DF8047B704700BFF01200203E
:10809000B412002080B400AF034B04221A60BD4626
:1080A0005DF8047B704700BFB412002080B400AFBD
:1080B000054B1B78202B02D1034B00221A70BD46C2
:1080C0005DF8047B704700BF6812002080B400AFE9
:1080D000BD465DF8047B704780B584B000AF0346B1
:1080E000FB710023FB60FB79212B09D1164B1B6828
:1080F0001B7803F07F03212B11D1144BFB600EE0A2
:10810000FB79202B0BD1104B1B681B7803F07F03EE
:10811000212B01D10E4BFB600E4B20221A70FB6805
:10812000002B01D102230BE0074B1B68FA689A6110
:10813000054B1B6800225A82FB68002098470023E9
:1081400018461037BD4680BD10130020518200082C
:10815000858200086812002080B483B000AF034617
:10816000FB710C4B1B681B7803F07F03212B09D19B
:10817000FB79022B01D1002305E0FB79222B01D1F1
:10818000002300E0022318460C37BD465DF8047B4F
:10819000704700BF1013002080B582B000AF0346C7
:1081A000FB80FB881846044901F0D6FD03461846BB
:1081B0000837BD4680BD00BF0001002080B582B0F9
:1081C00000AF0346FB80FB881846044901F0C4FD5C
:1081D000034618460837BD4680BD00BF0801002091
:1081E00080B584B000AF0346FB800B4B1B68DB7887
:1081F000FB73FB7B042B01D9002309E0FB7BDA0036
:10820000064B1344FA881046194601F0A5FD0346B3
:1082100018461037BD4680BD101300201001002005
:1082200080B483B000AF02460B46FA71BB71BB79D4
:10823000002B01D0022305E0FB79012B01D9022399
:1082400000E0002318460C37BD465DF8047B7047FC
:1082500080B483B000AF0346FB80FB88002B05D1C0
:10826000064B1B6808221A82002300E0044B1846C4
:108270000C37BD465DF8047B704700BF101300202B
:10828000A000002080B483B000AF0346FB80FB88D1
:10829000002B05D1064B1B6808221A82002300E040
:1082A000044B18460C37BD465DF8047B704700BF91
:1082B00010130020A0000020002100F004B80E4B95
:1082C0005B58435004310D480D4B42189A42FFF45D
:1082D000F6AF0C4A00F003B8002342F8043B0A4B07
:1082E0009A42FFF4F9AF00F0E7FCFDF7F3FBFDF76E
:1082F000D3FEFDF73DFC70476CC60008000000206F
:108300003C0200203C02002020130020FFF7FEBFAB
:10831000704770470D4B0E4A197839B9D98889B220
:108320001187198989B291879B8806E0D98989B21A
:108330001187198A89B291879B899BB29386054BD5
:1083400063221A70FF225A70704700BF6C1200201F
:10835000002C0140300100204FF4407000F036BE88
:108360000A4BF0211A684FF47A73B2FBF3F2084B10
:10837000013A5A60074A82F82310002199600721C8
:108380001960D02382F82330704700BF8801002095
:1083900010E000E000ED00E007B50F4B5B680093D4
:1083A0000E4B1A680E4BB2FBF3F34FF0FF32B2FBE9
:1083B000F3F2904228BF104643430193064B59689D
:1083C000009A019B8A1A9A4202D200F0A5FFF5E7B3
:1083D00003B05DF804FB00BF001000E0880100203E
:1083E00040420F007FB54FF4003000F0A3FE4FF481
:1083F000003302930823002501240DEB03008DF8C0
:108400000D308DF80C508DF80E4000F045FE042321
:108410000DEB030003268DF805308DF804608DF810
:1084200006508DF8074000F0DBFD292301A88DF8E8
:1084300004308DF805608DF806508DF8074000F087
:10844000CFFD022000F092FF28B1022000F098FF3B
:1084500001F05CF818E0204600F0A0FF412000F099
:10846000DFFF0028FAD04FF4807000F0A7FF012052
:1084700000F0ACFF01F04AF801F040F847F6FF7059
:1084800001F02CF801F03AF80320012100F0E4FF9C
:1084900001F034F804B070BD10B5044645F25550F3
:1084A00000F028FF062000F02BFF2820604340F654
:1084B000FF73000A984228BF184680B200F026FFDA
:1084C00000F02AFFBDE8104000F02EBF082814D8A5
:1084D000012908D10B4B0C4A03EB80035B6832F88F
:1084E00010201A610BE051B9064B074A03EB8003D9
:1084F0005B6832F810205A6101E0FF2000E00020A4
:1085000040B270473001002098C3000873B50F4E89
:108510008500731904460121186900F069FF36F8D7
:10852000143001A9ADF8043010238DF8073003236F
:108530008DF80630064B1D44686800F06DFE20463D
:108540000021FFF7C3FF02B070BD00BF98C3000851
:108550003001002070B5012188B04FF4006000F0B8
:1085600047FF314B01A81C68304B0025B4FBF3F4E6
:10857000A4B201F071F901A801F06EF9ADF8044060
:108580002B4C42F20F7301A92046ADF80830ADF82C
:108590000A50ADF8065001F017F804A801F065F98B
:1085A00060230126ADF810302046022304A9ADF85F
:1085B0001830ADF81260ADF81650ADF81C5001F04F
:1085C0004DF82046294601F089F9204604A901F01A
:1085D00089F82046294601F089F9204604A901F0CE
:1085E000C5F82046294601F08BF9204604A9ADF8CC
:1085F0001050ADF81260ADF81650ADF8185001F0FB
:10860000F7F82046294601F083F92046314601F06B
:1086100059F92046314601F032F92046314601F041
:108620003AF908B070BD00BF8801002040420F0039
:10863000002C014030B51049104B8C8D93F824303C
:10864000A4B204FB0334C0F307456C430C4A240C6A
:10865000D4808C8DC0F30725A4B204FB03346C4393
:10866000240C1481898D506189B2C0B201FB0000D5
:1086700043431B0C938030BD002C0140300100208F
:108680006C12002030B51049104B8C8D93F82430BB
:10869000A4B204FB0334C0F307456C430C4A240C1A
:1086A000D4818C8DC0F30725A4B204FB03346C4342
:1086B000240C1482898D906189B2C0B201FB000044
:1086C00043431B0C938130BD002C0140300100203E
:1086D0006C12002073B50F4E8500731904460121FA
:1086E000186B06EB440600F083FEB6F84030ADF898
:1086F00004300CB9102300E018238DF80730032351
:108700008DF80630044B01A91D44A86A00F084FDD1
:1087100002B070BD98C300083001002010B1E728F6
:1087200006D07047034B4FF400529B6A1A617047A2
:10873000FFF7F0BD3001002010B1E72806D07047E8
:10874000074B4FF400529B6A5A617047054A002359
:10875000138793879386024A1370012353707047DF
:1087600030010020002C014010B51D4A13780BB9D0
:10877000012102E0632B01D1FF2151705178E728DC
:108780000B44DBB2137029D1164A632014781649C2
:108790007CB9D488A4B25C43B4FBF0F4A4B20C87D7
:1087A0001489A4B25C43B4FBF0F4A4B28C87928821
:1087B0000EE0D489A4B25C43B4FBF0F4A4B20C87FD
:1087C000148AA4B25C43B4FBF0F4A4B28C879289FF
:1087D00092B25343B3FBF0F080B2888610BD00BF65
:1087E000300100206C120020002C014073B5104CA9
:1087F0000E4604EB400494F84C10054694F84800EB
:1088000000F062FDB4F85040204600F07FFC0023E9
:108810008DF80430074B68461D4495F838300094B5
:108820008DF805308DF8066000F036FC02B070BDA2
:1088300098C3000830010020F7B5234E8700F319D4
:108840000546586D0C4640F00100012100F0D0FDB6
:108850001E4B06EB45065A1992F83A2002A98DF8EC
:108860000320B6F85C201F4421F8082DF86B6946F8
:1088700000F0D2FC012C24D110210022144801F078
:1088800018F81B238DF804300027052301A88DF864
:1088900005308DF806708DF8074000F0A1FBB6F8A2
:1088A000603001A88DF8043006238DF805308DF86E
:1088B00006708DF8074000F093FB28462146FFF72D
:1088C00095FF03B0F0BD00BF98C300083001002041
:1088D000002C014010B501214FF0C05000F094FD74
:1088E000012000F029FD242000F0C6FB4AF2A55328
:1088F000984207D124204FF6FF7100F0AFFB00F043
:1089000021FDFEE7194B00245A6842F440725A6078
:10891000A3F54C33A3F50473DA6842F08072DA6091
:10892000134B5C601A6842F001021A60FFF714FDF5
:108930000120014600F05CFDE0B20134FFF7E6FDE6
:10894000082CF9D1FFF706FE0020FFF7C3FE012037
:10895000FFF7C0FE0220FFF7BDFE0320FFF7BAFEBF
:10896000BDE8104000200121FFF766BF002004E0B1
:10897000001000E0054A064B02EB800203EB4003C7
:10898000B3F85C10D06B00F095BC00BF3001002044
:1089900098C3000802484FF4805100F091BC00BF1A
:1089A000000C014008B54FF40061024800F082FC61
:1089B00008BD00BF000C014010B50B4C238823F00C
:1089C00040031B041B0C2380FFF7E4FF074B084800
:1089D0001B884FF400719BB243F040032380BDE835
:1089E000104000F06FBC00BF00380040DC120020D7
:1089F000000C014002484FF4007100F061BC00BF60
:108A0000000C014070B5082086B0012100F0F0FC98
:108A10002D4C4FF48040012100F0F6FC4FF4005340
:108A2000ADF8003003261823204669468DF8033040
:108A30008DF8026000F0F0FB4FF4004320466946D9
:108A4000ADF8003000F0E8FB4FF48043ADF80030A3
:108A50002046042369468DF803304FF4007500F07A
:108A6000DBFB1023204669468DF80330A4F55444FF
:108A7000ADF800508DF8026000F0CEFBFFF7BAFFB2
:108A80000023ADF804304FF48272ADF80830ADF831
:108A90000A30ADF80C30ADF81030ADF81230204689
:108AA000072301A9ADF80620ADF81430ADF80E503B
:108AB00000F054FD2288054B92B2204601211A8015
:108AC00000F06BFD06B070BD000C0140DC12002010
:108AD00007B50820012100F08BFC4FF48063ADF84E
:108AE000043003238DF806300448142301A98DF8BF
:108AF000073000F091FB03B05DF804FB000C01406F
:108B000008B5002000F044FCBDE808404FF4000028
:108B1000012100F079BC0000014B03221A6070476C
:108B2000B4120020044B9A7A044B0AB1052200E0EB
:108B300001221A60704700BFF0120020B41200201A
:108B400007B514238DF8043002238DF80530002377
:108B50008DF8063001A801238DF8073000F040FAA7
:108B600003B05DF804FB000020B105484FF48061BC
:108B700000F0A8BB02484FF4806100F0A1BB00BF29
:108B8000000C01400C4B93F82030A3B10B4B1A881A
:108B90000B4BA3F844200B4A1288A3F846200A4A3C
:108BA0001288A3F84820094A1288A3F84A20084AE4
:108BB0001288A3F84C2070476C120020004C00086B
:108BC00030010020024C0008044C0008064C00084C
:108BD000084C0008024B1A6C01321A64704700BF3F
:108BE0006C120020014B186C704700BF6C12002003
:108BF00010B504460A48022100F0E0FC0028F9D034
:108C00000748214600F0D5FC0548012100F0D6FCBC
:108C10000028F9D0024800F0CEFCC0B210BD00BF61
:108C20000038004070B5FFF7C7FE9F20FFF7E0FF58
:108C3000FF20FFF7DDFF0446FF20FFF7D9FF0546C1
:108C4000FF20FFF7D5FF2D020646FFF7D3FE45EACA
:108C50000440304370BD000008B5FFF7D3FEFFF7B6
:108C6000ABFE0420FFF7C4FFFFF7C4FEFFF7DAFFF7
:108C7000104B984202D04C3B984219D1FFF79CFE12
:108C80008020FFF7B5FFFFF7B5FEFFF795FE5020F8
:108C9000FFF7AEFFFFF7AEFEFFF78EFE0120FFF7F6
:108CA000A7FF0020FFF7A4FFBDE80840FFF7A2BE22
:108CB00008BD00BF8D25BF00384B82B01A6842F056
:108CC00001021A605968364A0A405A601A6822F04E
:108CD000847222F480321A601A6822F480221A60A8
:108CE0005A6822F4FE025A604FF41F029A60002272
:108CF000009201921A6842F480321A601A6802F4F3
:108D000000320192009A01320092019A1AB9009A37
:108D1000B2F5A06FF2D11A6812F4003218BF012226
:108D20000192019A012A05D01E4B4FF000629A6011
:108D300002B070471C4A116841F0100111601168BF
:108D400021F003011160116841F0020111605A68BD
:108D50005A605A685A605A6842F480625A605A6887
:108D600022F47C125A605A6842F4E8125A601A6877
:108D700042F080721A601968084A8901FBD551686F
:108D800021F003015160516841F0020151605A68BD
:108D900002F00C02082AFAD1C6E700BF0010024018
:108DA0000000FFF800ED00E00020024008B50120BF
:108DB000FFF7DAFE064B01221A60064A0020064938
:108DC000186010604FF4E0520A801A6008BD00BFBE
:108DD000405C0040445C004014130020064B1A68BD
:108DE00092B242F008021A601A6892B242F004028B
:108DF0001A60FFF791BE00BF405C004010B5064C02
:108E00004FF6FB73226813402360FFF78BFE4FF48D
:108E10003F43236010BD00BF405C004010B51E4CB6
:108E2000072818BF20702378052B32D8DFE803F01D
:108E300003060A0E1621FFF7E1FF2AE0FFF7DEFF27
:108E4000042327E002236370032323E06378013BBC
:108E5000DBB263706378F3B9042217E00F4B1A6832
:108E600092B242F010021A60052323700A23637045
:108E700010BD6378013BDBB2637063785BB9074A6E
:108E80004FF6EF7311680B4013600622024B1A7005
:108E900010BD0623237010BDE0120020405C00408E
:108EA000F8B5074672B63F4B53F830404FF47F0099
:108EB000FFF7C0FBE720FFF731FC3B4B13B13B480A
:108EC000AFF30080E720FFF737FC022500F024FA1B
:108ED00003262046FFF7AEFBE720FFF71FFC3448D0
:108EE000FFF75AFA013EE720FFF726FCB6B23148F9
:108EF000FFF752FA002EECD12E48FFF74DFA032669
:108F00002046FFF797FBE720FFF708FC2A48FFF70A
:108F100043FA013EE720FFF70FFCB6B22548FFF702
:108F20003BFA002EECD12348FFF736FA0326204601
:108F3000FFF780FBE720FFF7F1FB1D48FFF72CFA56
:108F4000013EE720FFF7F8FBB6B21A48FFF724FA14
:108F5000002EECD11948FFF71FFA3E468EB120468D
:108F6000FFF768FBE720FFF7D9FB1348FFF714FA78
:108F7000E720FFF7E1FB013E0F48FFF70DFAB6B21D
:108F8000ECE70F48FFF708FA013D9FD1BFF34F8F81
:108F90000C4A0D4BD16801F4E0610B43D360BFF381
:108FA0004F8FFEE7FCC3000800000000A0C40008CB
:108FB000F0490200A0860100E0930400A0BB0D0070
:108FC00000350C0000ED00E00400FA0540F0BF6041
:108FD000024B40F40030D860704700BF00ED00E065
:108FE000C27810B50378FAB1154A4478D26803F113
:108FF0006043D243C2F30222C2F1040104FA01F138
:109000000F2424FA02F2847803F5614322400A43D4
:109010001201D2B283F8002303780122590903F028
:109020001F0302FA03F306E05909012203F01F03AC
:1090300002FA03F32031034A42F8213010BD00BF89
:1090400000ED00E000E100E021F0604121F07F014F
:10905000014B08439860704700ED00E082B00023A8
:109060000193044B0193019B18440190019B1960EB
:1090700002B07047006C004082B000230193054BA2
:109080000193019B18440190019B188880B202B0A3
:10909000704700BF006C0040837930B501680279E9
:1090A00043B3194BCC431D6802F1804225401D603B
:1090B0005D6802F582322C405C60146821431160C7
:1090C00002689C68D1430C409C60DC682140D960F8
:1090D0004179102906D1996811439960D9680A43EA
:1090E000DA6030BD01F1804303F5823319680A4329
:1090F0001A6030BD02F1804303F582331A6822EA18
:109100000101196030BD00BF00040140014B5861EE
:10911000704700BF00040140054B1A685B690340BB
:1091200004D010420CBF0020012070471846704741
:1091300000040140014B5861704700BF000401402A
:10914000034B044A5A6002F188325A60704700BFEC
:109150000020024023016745084BDA68D10709D493
:10916000DA68520708D4DB6813F0100F0CBF042034
:109170000320704701207047022070470020024002
:1091800010B50446FFF7E8FF012806D11CB1FFF730
:10919000E3FF013CF8E7052010BD002C08BF0520C7
:1091A00010BD000038B505464FF43020FFF7E8FF4A
:1091B000042812D1094C4FF43020236943F00203F4
:1091C00023616561236943F040032361FFF7D8FF02
:1091D000226941F6FD731340236138BD002002402F
:1091E00070B505464FF400500E46FFF7C9FF04283E
:1091F0000ED1084C4FF40050236943F00103236162
:109200002E80FFF7BDFF226941F6FE7313402361F4
:1092100070BD00BF00200240CB78F0B5DA0648BF31
:109220008A78098803F00F0548BF154311F0FF0F36
:109230001DD0046800220127974007EA0106BE42BC
:1092400011D197004FF00F0C0CFA07FC05FA07F745
:1092500024EA0C04282B44EA070401D1466102E009
:10926000482B08BF06610132082AE4D10460FF29B7
:109270001FD94468002202F108060127B74007EA17
:109280000106BE4211D197004FF00F0C0CFA07FCFB
:1092900005FA07F724EA0C04282B44EA070401D155
:1092A000466102E0482B08BF06610132082AE2D17C
:1092B0004460F0BD836819420CBF00200120704754
:1092C000016170474161704701F003039B000F2269
:1092D0009A40984001F0FC0101F1804101F5803194
:1092E00010B58C6824EA02028A608A6802438A60A8
:1092F00010BD0000014B1860704700BF00300040F7
:10930000014B5860704700BF00300040014B98602F
:10931000704700BF00300040024B4AF6AA221A6094
:10932000704700BF00300040024B4CF6CC421A6040
:10933000704700BF00300040014B1860704700BF0D
:1093400020000E42074B1A6842F004021A601A68A5
:1093500042F002021A60044B1A6942F004021A61D8
:1093600030BF70470070004000ED00E0034B5B68C9
:1093700018420CBF00200120704700BF0070004061
:10938000024B1A6842EA8000186070470070004083
:10939000014B1860704700BFD8004242064B0022C4
:1093A00001281A701A7002D0042802D07047187071
:1093B000704705221A70704720100240024B1A6A4B
:1093C00010431862704700BF00100240014B186044
:1093D000704700BF3C044242044B5A6909B1104334
:1093E00001E022EA00005861704700BF001002400F
:1093F000044B9A6909B1104301E022EA0000986128
:10940000704700BF00100240044BDA6909B11043F5
:1094100001E022EA0000D861704700BF001002405E
:109420004309012B074A01D1136803E0022B0CBF4B
:10943000136A536A00F01F0023FA00F000F00100E5
:10944000704700BF00100240024B5A6A42F080721F
:109450005A62704700100240044B1A8892B209B158
:10946000104301E022EA0000188070470028004005
:10947000034B9A8892B242F010029A80704700BF64
:1094800000280040034A938823F010031B041B0CA0
:109490009380704700280040074B1A8B988B198BDC
:1094A00092B289B28A4280B21DBF988B80B240EAE4
:1094B000014040EA024070470028004010B50446D1
:1094C000FFF7D6FF044B220CA4B21A839C83BDE89D
:1094D0001040FFF7D7BF00BF0028004010B504467A
:1094E000FFF7C6FF044BC4F30342A4B21A819C8168
:1094F000BDE81040FFF7C6BF00280040024B9B8824
:109500009B06FBD5704700BF00280040054A9388A2
:1095100023F008031B041B0C938093881B07FCD5C6
:10952000704700BF00280040064B9A881B8892B203
:10953000034005D01040C0B2003018BF0120704772
:109540001846704700280040034B9A8892B222EADE
:1095500000009880704700BF002800400B8810B5BD
:109560004C88028823438C8802F441522343CC88E0
:1095700023430C8923434C8923438C892343CC897F
:10958000234313439BB20380838B23F400631B04A8
:109590001B0C83830B8A038210BD038819B19BB215
:1095A00043F0400303E023F040031B041B0C038043
:1095B000704781817047808980B270470389194262
:1095C0000CBF002001207047224A038890429BB2C2
:1095D00012D002F5006290420ED0B0F1804F0BD055
:1095E000A2F59832904207D002F58062904203D0F3
:1095F00002F58062904203D14A8823F0700313433E
:10960000154A904208D002F58062904204D023F4BB
:109610004073CA889BB2134303808B8883850B8871
:1096200003850C4B98420FD003F5006398420BD092
:1096300003F54063984207D003F58063984203D056
:1096400003F58063984201D10B7A0386012383825C
:10965000704700BF002C014000100040038C70B523
:1096600023F001031B041B0C0384038C8488028BEE
:109670000D8822F073021204120C2A434E880D89C1
:1096800023F002031B043543ADB21B0C2B43144DD6
:10969000A4B2A8420FD005F50065A8420BD005F58D
:1096A0004065A84207D005F58065A84203D005F5BE
:1096B0008065A8420ED14D8923F008032B438D8885
:1096C00023F004032B43CE898D8924F44074354361
:1096D000ADB22C4384800283CA888286038470BD25
:1096E000002C0140038C30B523F010031B041B0C2D
:1096F0000384038C8288048B0D8824F4E6442404BC
:10970000240C23F0200344EA05241B040D891B0CC0
:1097100043EA05134D8892B243EA0513124DA4B2F1
:10972000A8429BB203D005F50065A84215D14D892A
:1097300023F080039BB243EA05134FF6BF751D402B
:109740008B8822F4406245EA03138D899BB242EA7A
:109750008502CD8942EA850292B28280CA8804835A
:109760000287038430BD00BF002C0140038C30B55C
:1097700023F480731B041B0C0384038C8288848B6A
:109780000D8824F073042404240C23F400732C4368
:109790001B040D891B0C43EA05234D8892B243EA52
:1097A0000523124D9BB2A84203D005F50065A842DF
:1097B00015D14D8923F400639BB243EA05234FF68C
:1097C000FF351D408B8822F4405245EA03238D89E2
:1097D0009BB242EA0512CD8942EA051292B282801A
:1097E000CA8884838287038430BD00BF002C014077
:1097F000038C30B523F480531B041B0C0384038CAF
:109800008488828B0D8822F4E6421204120C23F421
:10981000005342EA05221B040D891B0C43EA053361
:109820004D88A4B243EA05330A4D92B2A8429BB2D6
:1098300003D005F50065A84205D18D8924F4804444
:1098400044EA8514A4B284808283CA88A0F84020A8
:10985000038430BD002C01404FF6FF73838000234A
:109860000380C380438003727047002303804380DA
:109870008380C380038143818381C38170470388D0
:1098800019B19BB243F0010303E023F001031B0471
:109890001B0C03807047B0F8443029B16FEA434392
:1098A0006FEA53439BB201E0C3F30E03A0F84430C8
:1098B000704783899BB20AB1194301E023EA010191
:1098C00081817047038819B19BB243F0800303E0A4
:1098D00023F080031B041B0C03807047038B23F0D1
:1098E00008031B041B0C194301837047038B23F4EB
:1098F00000631B041B0C43EA01218BB203837047F6
:10990000838B23F008031B041B0C194381837047CE
:10991000838B23F400631B041B0C43EA01218BB2ED
:1099200083837047038A828911EA030092B203D0CD
:1099300011420CBF002001207047C94389B2018247
:109940007047C1F3421310B5012401F01F01A34277
:1099500004FA01F101D10C3003E0022B0CBF1030EE
:10996000143003680AB1194301E023EA01010160E0
:1099700010BDC1F30801818070478088C0F30800E2
:109980007047038819420CBF00200120704710B5B2
:10999000C1F3421401F01F030122012C02FA03F269
:1099A00001D1838903E0022C0CBF038A838A9BB216
:1099B0001340028892B243B10123090A03FA01F16C
:1099C00011420CBF0020012010BD184610BD000040
:1099D00010B5064C18B9236801221A8210BD044B39
:1099E0001B681B68984720680A3010BD10130020C0
:1099F0000C13002010B5064C18B9236801221A82F6
:109A000010BD044B1B689B68984720680C3010BD44
:109A1000101300200C13002010B5204B18B91B6840
:109A200002221A8210BD1E4A1968002010800C788C
:109A3000134614F07F040DD14A7A910644BF0221E7
:109A4000197012F0400F1A7814BF42F0010222F090
:109A5000010214E0012C1FD0022C1ED1497901F023
:109A60000F02920002F1804202F5B84211F0800F1D
:109A7000126806D002F03002102A07D101221A70B3
:109A800004E002F44052B2F5805FF6E7054B1B6834
:109A90001B699847024810BD104610BD10130020E6
:109AA000E21200200C130020234A2DE9F843146829
:109AB0009046238A267A214FA3B9042E12D1204939
:109AC0000A78012A0AD11F4A10681F4A80B202444C
:109AD0005200136030223A800B7027E010233B8045
:109AE000072623E0A58AAB428CBF022604269D42AE
:109AF00028BF1D462846A36998478146002000F0EC
:109B00003DFD2A460146484600F04CFC294600200F
:109B100000F050FD238A4FF440525B1B2382638A7E
:109B20001D4430233B80094B65821A80D8F80030F1
:109B30001E72BDE8F88300BF101300201813002028
:109B4000B8120020505C00400230002016130020A4
:109B500010B50A4B0A491B684978DA7891420AD352
:109B6000997841B99C8834B99A72064B1B685B6836
:109B70009847204610BD022010BD00BF10130020E2
:109B8000A80000200C13002038B50E4A0E4C1268B5
:109B9000236892695879D978904723689A7A7AB17C
:109BA00070B91A7962B99D7855B9084B1B68DB68A2
:109BB0009847236828465A79DA72DA781A7338BDDA
:109BC000022038BDE8120020101300200C130020E2
:109BD00038B5314B1B68187810F07F0004D15A7AE1
:109BE00022F020025A7238BD022853D15A88002A26
:109BF00051D11A79002A4ED15A79284D22F080008D
:109C0000840004F1804101F5B84109682D7812F013
:109C1000800F14BF01F0300101F44051A84239D245
:109C2000002937D09B7A002B34D004F1804404F50E
:109C3000B844120623680CD503F03003102B23D14F
:109C4000C4B2204600F068FC2046302100F0EAFB58
:109C50001AE003F44053B3F5805F15D128B9104BD7
:109C600093F82C1000F0B4FC01E000F043FC2368F2
:109C700023F4804323F070039BB283F4405343F4F6
:109C8000004343F080032360064B1B685B699847E1
:109C9000002038BD022038BD10130020A80000208D
:109CA000AC0000200C13002038B51F4B1F4D196865
:109CB0002D784A7922F08004A30003F1804000F55A
:109CC000B840006812F0800F14BF00F0300000F4BC
:109CD0004050AC4226D24C8824BB18B3897A09B3D1
:109CE00003F1804303F5B84312F0800F1A6807D0E0
:109CF00022F4E04222F0400292B282F0100206E02A
:109D000022F4804222F0700292B282F4805242F435
:109D1000004242F080021A60054B1B689B6998471D
:109D2000002038BD022038BD10130020A8000020FC
:109D30000C13002008B5064B1B685A7A42F020022B
:109D40005A72044B1B68DB699847002008BD00BFAE
:109D5000101300200C130020054B1A68538A18B901
:109D60008988CB1A1382704708681844704700BF6F
:109D70001013002008B50B4B002093F82C1000F0B6
:109D800027FC094B1B68187A082806D1074B4FF4AB
:109D900080521A80064B10221A80B0F109035842F3
:109DA000584108BDAC0000201013002016130020FD
:109DB00018130020F7B5964F964B3A68964D92B21D
:109DC00013442E685B001C68337A092B15D0A4B2AB
:109DD000640004F1804404F5C04423783370637850
:109DE0007370A08800F024FC708020892E6800F039
:109DF0001FFCB080A2892B68DA802B6801221A72BE
:109E0000DA885C78002A5ED11A7812F07F0237D1A6
:109E1000092C02D1FFF79CFE41E0052C0FD193F9EC
:109E20000320002A01DA08234AE09A78002AFAD1AE
:109E30009A88002AF7D19B7A002B34D0F3E7032CC1
:109E400010D1DA78012A07D0744B20461B685B6971
:109E50009847032825D132E09B88002BF4D1FFF7E7
:109E600069FF1CE0012CEFD1DA78012AECD19A8845
:109E7000002AE9D15B7A9906E6D5FFF7A9FE0EE044
:109E8000012A04D10B2CDFD1FFF77EFE07E0022A66
:109E9000DAD1012CF1D0032CD6D1FFF705FF10B198
:109EA000D2E70028BFD13A685D4B92B213445B0001
:109EB00000221A605B4B30221A80062300E009233F
:109EC0002A681372D0E0062C13D11A78520678D182
:109ED0009A78524B012A02D11B68DB6968E0022A9A
:109EE00002D11B681B6A63E0032A6AD11B685B6AA4
:109EF0005EE0002C3DD15988002962D15A6822F4D5
:109F00007F42B2F5003F5CD11A7812F07F0204D193
:109F10009B88002B00F0AC8053E0012A0DD13F4A12
:109F2000587912689269904700284AD13A4B1B68C9
:109F30009B7A002B40F09C8043E0022A41D15B7960
:109F4000394803F00F018A0002F1804202F5B8425D
:109F50001268007813F0800F14BF02F0300202F490
:109F6000405281422DD213F0700F2AD1002A7FD1A6
:109F700027E0082C03D11B785B067BD021E00A2C5C
:109F80001FD11A7802F07F02012A1AD19A7AC2B13F
:109F90005988B1B95A6822F47F42B2F5803F10D196
:109FA0001E4A5879126892699047002864D008E0E8
:109FB0003BB12A680024548293612046984720468A
:109FC0000AE0164B1A682B681269587890470328E4
:109FD00002D1114B1B6805E02B684FF6FF711A8AFE
:109FE0008A4201D1092203E0022800D012B90822D6
:109FF0001A7239E093F9001000292FDAD9880191FB
:10A0000001988242054811D9019A1A821FE000BFC7
:10A01000505C00400430002010130020E8120020A3
:10A020000230002018130020A80000208A420ED21F
:10A03000016891F82C108A4201D2002105E092FBC0
:10A04000F1F401FB142212B901210C4A11700268CB
:10A0500092F82C209A82FFF727FD05E003221A725E
:10A06000074B4FF440521A80FFF784FE03B0F0BD57
:10A07000044B9EE7044B9CE7044B9AE7B812002080
:10A0800016130020199A0008D1990008F5990008C4
:10A09000F8B52D4D2C68237A022B4DD0042B4BD0D4
:10A0A000032B01D0052B41D1A369228AABB1A2B108
:10A0B000A68A964228BF164630469847238A074606
:10A0C0009B1B2382638A00203344638200F064FA7E
:10A0D00032460146384600F07DF9238A53B11B4BC6
:10A0E00000204FF4405201461A8000F063FA184BEA
:10A0F00030221A80238AA28A9A4202D82B6803222D
:10A1000002E01BB12B6805221A720CE02A680621B6
:10A110001172104A1168104A89B20A445200136041
:10A120000B4B30221A802B681B7A06E0072B03D1D9
:10A130000A4B1B68DB68984708232A681372BDE83E
:10A14000F840FFF717BE00BF1013002016130020C1
:10A1500018130020505C004002300020E81200205C
:10A1600070B50D4B1D780023AB4210D203F1805225
:10A1700002F5B8529400266843F4004140F60F728D
:10A1800041F0800132400A4322600133ECE7034B87
:10A1900040F08000186070BDA80000204C5C0040BA
:10A1A00010B5134C23681A7A022A01D0042A04D16C
:10A1B000FFF77AFC23681B7A13E0062A10D15A783D
:10A1C000052A09D11A78520606D1D878FFF7C8FFB8
:10A1D000084B1B681B6A9847074B1B689B6898478E
:10A1E000082322681372BDE81040FFF7C3BD00BF0B
:10A1F000101300200C130020E8120020704700000C
:10A2000008B5074A074B0849136002221A72074B28
:10A21000074A1360074A1B681160984708BD00BFD2
:10A2200010130020F0120020DC000020AC00002001
:10A23000E81200200C13002073B50023ADF806309F
:10A24000504B1A68504B91B21204198040F197801C
:10A250001A884E4C02F00F022270002A61D14C4C39
:10A260004C4E22684C4D92B23280328802F030025D
:10A270002A80328802F44052328021684BF6BF7245
:10A280000A4082F4005282F0200242F4004242F07E
:10A29000800222601B88D80607D4226848F60F7314
:10A2A00013402360FFF77CFF1BE023689BB2ADF8EF
:10A2B0000630BDF80630190507D5226840F68F73C1
:10A2C00013402360FFF776FD0BE0BDF806301BB2AC
:10A2D000002BB5DA226840F68F7313402360FFF736
:10A2E000D7FE22684BF6BF7313403288D2043288FF
:10A2F00048BF83F4805396042A8848BF83F40053F0
:10A30000D4062A8848BF83F01003900648BF83F024
:10A31000200343F4004343F080031D4A9BB21360C3
:10A320002DE0930003F1804303F5B843196889B227
:10A33000ADF80610BDF8061009B2002909DA186850
:10A3400040F68F7101401960144B013A53F82230E6
:10A350009847BDF8063019067FF572AF217848F6A8
:10A360000F728B0003F1804303F5B843186801397D
:10A3700002401A600A4B53F82130984760E702B058
:10A3800070BD00BF445C004064120020EC1200204D
:10A39000005C0040161300201813002084000020E9
:10A3A0006800002030B501F10051013201F5405143
:10A3B000521049000023934200F1020009D010F826
:10A3C000015C10F8024C44EA052421F823400133D3
:10A3D000F1E730BD10B501F10051013201F54051F6
:10A3E000521049000023934205D051F8234020F831
:10A3F00013400133F7E710BD4FF6F873014A0340ED
:10A4000013607047505C0040800000F1804000F510
:10A41000B840036823F4EC4323F0700319438BB274
:10A4200003607047800000F1804000F5B840036889
:10A43000CA0623F4E04323F040039BB248BF83F0F5
:10A4400010038A0648BF83F0200343F4004343F01F
:10A45000800303607047800000F1804000F5B84041
:10A460000368CA0423F4804323F070039BB248BFFF
:10A4700083F480538A0448BF83F4005343F40043B9
:10A4800043F0800303607047800000F1804000F5D6
:10A49000B840036823F4E04323F040039BB283F009
:10A4A000300343F4004343F08003036070478000AF
:10A4B00000F1804000F5B840036823F4804323F0A6
:10A4C00070039BB283F4405343F4004343F0800392
:10A4D00003607047800000F1804000F5B8400368D9
:10A4E00023F4F8731B051B0D43F4004343F0800372
:10A4F00003607047800000F1804000F5B8400368B9
:10A500005B0408D5026840F60F73134043F44043E0
:10A5100043F0800303607047800000F1804000F545
:10A52000B84003685B0608D5026840F60F73134015
:10A5300043F4004343F0C00303607047064B4908EF
:10A540001B6849009BB203EBC00000F1005000F50E
:10A550004050400001607047505C0040054B490886
:10A560001B6849009BB203EBC000034B03445B0034
:10A5700019607047505C004004300020054B1B6898
:10A580009BB203EBC00000F1005000F540504000CA
:10A5900000887047505C0040044B1B689BB203EB83
:10A5A000C000034B03445B0018887047505C0040B8
:10A5B00004300020044B1B689BB203EBC000034B2C
:10A5C00003445B0019607047505C0040023000207B
:10A5D0000D4B3E291B689BB203EBC0000B4B0344A1
:10A5E0004FEA430209D94B09C80604BF03F1FF3300
:10A5F0009BB29B0243F4004304E04B08C90748BFE9
:10A6000001339B0213607047505C0040063000200D
:10A61000054B1B689BB203EBC000044B03445B007B
:10A620001868C0F309007047505C004006300020F5
:10A63000C3B2000A40EA032070470000044B002028
:10A64000044A18604FF43F431380034A1360704775
:10A65000445C004014130020405C00404FF4207222
:10A660000260002280F8522680F8532680F8542693
:10A6700000F29562C0F82029C0F81C2900F61512D6
:10A68000C0F81829704703460846194600F030B84C
:10A6900031F0004310B408D00F4AA3F5801494425F
:10A6A0000AD804205DF8044B704700280CBF022034
:10A6B00003205DF8044B7047B3F5801F01D20320DF
:10A6C000F7E7064A934201D00020F2E7D0F10100FB
:10A6D00038BF0020EDE700BFFFFFDF7F0000F07F05
:10A6E00008B5062000F006F90120FBF7FBFC00008E
:10A6F00070B5064C06460D4613462CB131462A4627
:10A700000220AFF3008070BD204670BD0000000045
:10A71000024B0146186800F061B800BF000200203B
:10A72000024B0146186800F015B800BF0002002077
:10A7300010B50023934203D0CC5CC4540133F9E735
:10A7400010BD02440346934202D003F8011BFAE70E
:10A750007047000030B500293CD051F8042C0B1F85
:10A760001D49002AB8BF9B180A680C4612B95A60E6
:10A770000B6030BD93420DD219685818904203D136
:10A780005A581144426819605A60236030BD99429A
:10A7900003D80A4651680029F9D1146815199D4259
:10A7A0000AD11B682344D0188842136012D108686C
:10A7B000034413604B680CE002D90C23036030BDE6
:10A7C00018681C188C4203D10C6849682044186032
:10A7D0005960536030BD00BFC012002070B5CD1C61
:10A7E00025F0030508350C2D38BF0C25002D064635
:10A7F0003FDB8D423DD3214B1C6818462146A1B159
:10A800000B685B1B0ED40B2B03D90B60CC18CD50FF
:10A810001FE08C4202D1626802601AE04B686360FC
:10A820000C4616E00C464968E9E7154C23681BB94D
:10A83000304600F027F820602946304600F022F824
:10A84000431C014615D0C41C24F0030484420AD1E1
:10A85000256004F10B00231D20F00700C31A0BD064
:10A860005A42E25070BD3046611A00F00BF80130D8
:10A87000EED10C233360002070BD00BFC012002059
:10A88000BC12002038B5064C00230546084623605C
:10A89000FBF730FC431C02D1236803B12B6038BDA9
:10A8A0001C1300201F2938B505460C4604D9162371
:10A8B00003604FF0FF3038BD426C12B152F82130C6
:10A8C0004BB9284600F030F8224601462846BDE83C
:10A8D000384000F017B8012B0AD0591C03D11623B9
:10A8E0000360012038BD002542F8245020469847D7
:10A8F000002038BD024B01461868FFF7D3BF00BFE8
:10A900000002002038B5074C0023054608461146D2
:10A910002360FBF70FFC431C02D1236803B12B60BB
:10A9200038BD00BF1C130020FBF712BC034613F810
:10A93000012B002AFBD1181A013870472DE9F04786
:10A94000002B88B014461D46109E1299139F05DAFD
:10A9500005F100431D4614462D2300E000230B7033
:10A96000149B23F0200ABAF1460F04D0BAF1450F28
:10A9700003D1013601E0032300E002238DE8C80083
:10A9800006AB039307AB049322462B4600F07CFBF7
:10A99000BAF1470F804602D1119BDB0725D5BAF1EA
:10A9A000460F08EB06090FD198F80030302B09D17B
:10A9B0002046294600220023FAF7CAFF10B9C6F143
:10A9C00001063E603B689944204629460022002348
:10A9D000FAF7BEFF08B1CDF81C90079B4B4504D297
:10A9E0005A1C079230221A70F7E7079B4046C8EBC3
:10A9F0000302159B1A6008B0BDE8F08773B50346E3
:10AA0000002903F8022B03DA49421A462D2401E0FB
:10AA10001A462B24092944701BDD0DF106040A2671
:10AA200091FBF6F506FB1511092D01F130012346C6
:10AA300004F801192946F2DC05F1300103F8011D83
:10AA40000DF107018B420AD213F8011B02F8011B1A
:10AA5000F6E730241A46214402F8024B5970101AC6
:10AA600002B070BD2DE9F04F8FB00C4616461F4660
:10AA7000DDF86090054601F0C7F8D0F800A0504618
:10AA8000FFF754FF00230C93D9F8003009900733E7
:10AA900023F0070303F10802D3E9000194F81880BA
:10AAA000C9F80020C4E91201FFF7F2FD0128D4E93A
:10AAB000120117D100220023FAF754FF10B12D2301
:10AAC00084F84330904B914AB8F1470F8CBF9146C0
:10AAD000994603232361236823F0040323604FF086
